:100000000C94A9010C94C6010C94C6010C94C60171
:100010000C94C6010C94C6010C94C6010C94C60144
:100020000C94C6010C94C6010C94C6010C94C60134
:100030000C94C6010C942F020C94C6010C94C601BA
:100040000C94C6010C94C6010C94C6010C94C60114
:100050000C94C6010C94C6010C94C6010C94C60104
:100060000C94C6010C94C6010C94C6010C94C601F4
:100070000C94C6010C94C6010C94C601000000004B
:100080000000005F00000003000300143E143E1453
:10009000242A7F2A124333086661364955225000CC
:1000A00005030000001C2241000041221C0014082E
:1000B0003E081408083E08080050300000080808F0
:1000C0000808006060000020100804023E51494505
:1000D0003E0004027F0042615149462241494936AF
:1000E0001814127F1027454545393E4949493201C8
:1000F000017109073649494936264949493E0036C2
:100100003600000056360000081422410014141472
:100110001414004122140802015109063E415955A8
:100120005E7E0909097E7F494949363E41414122A7
:100130007F4141413E7F494949417F090909013ECB
:100140004141493A7F0808087F00417F4100304023
:1001500040403F7F081422417F404040407F020CD6
:10016000027F7F0204087F3E4141413E7F09090929
:10017000061E2121215E7F09090976264949493257
:1001800001017F01013F4040403F1F2040201F7F71
:100190002010207F41221C2241070870080761516E
:1001A000494543007F41000002040810200000413F
:1001B0007F0004020102044040404040000102046C
:1001C0000020545454787F444444383844444444D0
:1001D000384444447F385454541804047E050508B8
:1001E0005454543C7F0804047800447D400020406F
:1001F000443D007F1028440000417F40007C04788B
:1002000004787C0804047838444444387C1414147A
:1002100008081414147C007C080404485454542026
:1002200004043F44443C4040207C1C2040201C3CB3
:100230004030403C44281028440C5050503C44640A
:10024000544C44000836414100007F0000414136D3
:100250000800020102040200407A10F35A00A07262
:100260004E18090010A5D4E80000E87648170000F1
:10027000E40B54020000CA9A3B000000E1F50500BF
:100280000080969800000040420F000000A0860108
:10029000000000102700000000E8030000000064D8
:1002A00000000000000A0000000000010000000043
:1002B000002C76D888DC674F0823DFC1DFAE59E118
:1002C000B1B796E5E3E453C63AE651997696E8E687
:1002D000C28426EB898C9B62ED407C6FFCEFBC9C5A
:1002E0009F40F2BAA56FA5F490055A2AF75C936B6C
:1002F0006CF9676DC11BFCE0E40D47FEF520E6B527
:1003000000D0ED902E0300943577050080841E0800
:100310000000204E0A000000C80C333333330F981E
:100320006E12831141EF8D2114893BE65516CFFEE5
:10033000E6DB18D1844B381BF77C1D901DA4BBE471
:1003400024203284725E228100C9F124ECA1E53DB3
:10035000270011241FBECFEFD0E1DEBFCDBF13E0D9
:10036000A0E0B1E0E4E0F0E402C005900D92A0331B
:10037000B107D9F713E0A0E3B3E001C01D92A635A1
:10038000B107E1F70E9454100C9400200C94000077
:10039000DF93CF9300D00F92CDB7DEB789837B83F5
:1003A0006A8389818A3031F42A813B818DE0B901E9
:1003B0000E94C801E0ECF0E08081882F90E080721C
:1003C00090700097B9F3E6ECF0E089818083898131
:1003D000992787FD90950F900F900F90CF91DF9107
:1003E0000895DF93CF9300D0CDB7DEB79A8389838A
:1003F000E0ECF0E080818823DCF7E6ECF0E080813F
:10040000882F90E00F900F90CF91DF910895DF93A8
:10041000CF93CDB7DEB7E5ECF0E01082E4ECF0E08E
:100420008DE48083E1ECF0E088E18083E2ECF0E0B1
:1004300086E080838EE091E0909353038093520393
:100440008EE091E0909355038093540380E091E017
:100450009093510380935003CF91DF9108951F92A1
:100460000F920FB60F9211242F933F934F935F93E8
:100470008F939F93AF93BF93DF93CF9300D000D020
:10048000CDB7DEB780914A0390914B03A0914C0306
:10049000B0914D030196A11DB11D80934A03909325
:1004A0004B03A0934C03B0934D038CEF9FEF9C83C1
:1004B0008B8381E090E09A83898380912201882355
:1004C000F1F020914E0330914F0389819A81820F80
:1004D000931F90934F0380934E0320914E033091CE
:1004E0004F038B819C812817390740F18B819C81B8
:1004F00090934F0380934E03109222011FC02091CE
:100500004E0330914F0389819A81A901481B590BF1
:10051000CA0190934F0380934E0380914E039091B4
:100520004F038F3F910509F048F48FEF90E09093CF
:100530004F0380934E0381E0809322010F900F9030
:100540000F900F90CF91DF91BF91AF919F918F91BD
:100550005F914F913F912F910F900FBE0F901F9081
:100560001895DF93CF93CDB7DEB7A0E8B0E0E0E811
:10057000F0E080818C93A1E8B0E0E1E8F0E08081D8
:1005800088608C93A1E8B0E0E1E8F0E080818260CF
:100590008C93E8E8F0E08CED95E091838083AFE602
:1005A000B0E0EFE6F0E0808182608C93CF91DF9144
:1005B0000895DF93CF93CDB7DEB7EAE7F0E086E8A2
:1005C0008083CF91DF910895DF93CF93CDB7DEB7CE
:1005D000A1E2B0E0E1E2F0E080818F788C93A2E2CA
:1005E000B0E0E2E2F0E080818F788C93AAE2B0E0A4
:1005F000EAE2F0E0808180678C93ABE2B0E0EBE26E
:10060000F0E080818F788C93CF91DF910895DF9314
:10061000CF93CDB7DEB7AAE2B0E0EAE2F0E08081A6
:1006200080688C93A0EBB0E0E0EBF0E08081836821
:100630008C93A1EBB0E0E1EBF0E0808181608C93E2
:10064000E3EBF0E01082CF91DF910895DF93CF9339
:1006500000D000D00F92CDB7DEB78D8380E090E060
:10066000A0E0B0E089839A83AB83BC83ECE7F0E041
:100670008D818083AAE7B0E0EAE7F0E080818064C2
:100680008C93EAE7F0E08081882F90E0807490708E
:100690000097B9F7E8E7F0E080819181CC01A0E014
:1006A000B0E0BC01CD010E94001BDC01CB01BC010C
:1006B000CD0123E333E343E550E40E944618DC0117
:1006C000CB01BC01CD0120E030EC4FE754E40E94A7
:1006D0004019DC01CB0189839A83AB83BC83898178
:1006E0009A81AB81BC81BC01CD010F900F900F901E
:1006F0000F900F90CF91DF910895DF93CF93CDB7F7
:10070000DEB72D970FB6F894DEBF0FBECDBF8D8735
:1007100080914A0390914B03A0914C03B0914D03FB
:100720004496A11DB11D89879A87AB87BC8780E05D
:1007300090E0A0E0B0E08D839E83AF83B88780E037
:1007400090E0A0E0B0E089839A83AB83BC831DC0B6
:100750008D850E942603DC01CB018D839E83AF83B0
:10076000B8876D817E818F81988529813A814B81FF
:100770005C810E94EC19181644F48D819E81AF8132
:10078000B88589839A83AB83BC8320914A033091D7
:100790004B0340914C0350914D0389859A85AB855D
:1007A000BC85281739074A075B0790F269817A816F
:1007B0008B819C8120E030E040E050E40E944019B1
:1007C000DC01CB0189839A83AB83BC8389819A81C5
:1007D000AB81BC81BC01CD012D960FB6F894DEBF74
:1007E0000FBECDBFCF91DF910895DF93CF9300D09F
:1007F000CDB7DEB7E0E2F0E08081882F90E0807135
:1008000090709A83898389819A81009721F081E091
:1008100080931C0102C010921C01E0E2F0E0808194
:10082000882F90E0807290709A83898389819A8161
:10083000009721F081E080931D0102C010921D01FC
:10084000E0E2F0E08081882F90E0807490709A83DD
:10085000898389819A81009721F081E080931E012C
:1008600002C010921E010F900F90CF91DF9108955A
:100870000F931F93DF93CF93CDB7DEB703EB10E059
:100880008091300390913103A0913203B0913303F2
:10089000BC01CD0120E030E040E251E40E9440196B
:1008A000DC01CB01BC01CD0120E030E04FE753E497
:1008B0000E944618DC01CB01BC01CD010E947016DC
:1008C000DC01CB01F8018083CF91DF911F910F9163
:1008D0000895DF93CF93CDB7DEB780911F018823B2
:1008E00041F0ABE2B0E0EBE2F0E0808180618C931C
:1008F00007C0ABE2B0E0EBE2F0E080818F7E8C934A
:1009000080912001882341F0ABE2B0E0EBE2F0E01F
:10091000808180628C9307C0ABE2B0E0EBE2F0E054
:1009200080818F7D8C9380912101882341F0ABE2FF
:10093000B0E0EBE2F0E0808180648C9307C0ABE232
:10094000B0E0EBE2F0E080818F7B8C9380914803F4
:10095000882341F0ABE2B0E0EBE2F0E08081886018
:100960008C9307C0ABE2B0E0EBE2F0E08081877FE0
:100970008C9380914903882341F0ABE2B0E0EBE235
:10098000F0E0808188608C9307C0ABE2B0E0EBE2DE
:10099000F0E08081877F8C93CF91DF910895DF9382
:1009A000CF93CDB7DEB780E00E942603DC01CB01F8
:1009B0008093400390934103A0934203B093430379
:1009C00081E00E942603DC01CB01809344039093D5
:1009D0004503A0934603B093470382E00E947D0342
:1009E000DC01CB018093380390933903A0933A0341
:1009F000B0933B0383E00E947D03DC01CB01809335
:100A00003C0390933D03A0933E03B0933F030E94A9
:100A1000F503CF91DF910895DF93CF93CDB7DEB784
:100A20000E9438040E946904CF91DF910895DF93FA
:100A3000CF93CDB7DEB729970FB6F894DEBF0FBEC0
:100A4000CDBF89834A835B836C837D8389818823BF
:100A500049F08A819B81AC81BD818E839F83A88769
:100A6000B98708C080E090E0A0E0B0E08E839F836B
:100A7000A887B9878E819F81A885B985BC01CD01E2
:100A800029960FB6F894DEBF0FBECDBFCF91DF9190
:100A90000895EF92FF920F931F93DF93CF93CDB7FB
:100AA000DEB7AD970FB6F894DEBF0FBECDBF8FA3F4
:100AB00068A749A780E090E0A0E0B0E08093300311
:100AC00090933103A0933203B09333031092480301
:100AD000109249031EA21DA280E090E0A0E8B0E4BD
:100AE00089A39AA3ABA3BCA38FA14DEC5CEC6CE4EF
:100AF0007FE30E941705DC01CB018D8F9E8FAF8FA6
:100B0000B8A388A546E656E666EE7FE30E94170581
:100B1000DC01CB01898F9A8FAB8FBC8F89A543E312
:100B200053E363EB7FE30E941705DC01CB018D8B60
:100B30009E8BAF8BB88F6D8D7E8D8F8D98A1298DFB
:100B40003A8D4B8D5C8D0E941918DC01CB01BC01E4
:100B5000CD012D893E894F89588D0E941918DC01DD
:100B6000CB01898B9A8BAB8BBC8B1EA21DA21BC0A9
:100B70008DA19EA1FC01E45EFE4F8081882341F09F
:100B80008DA19EA1FC01E15EFE4F81E0808306C045
:100B90008DA19EA1FC01E15EFE4F10828DA19EA160
:100BA00001969EA38DA38DA19EA18330910504F390
:100BB0008091400390914103A0914203B09143037F
:100BC00020914403309145034091460350914703DF
:100BD000BC01CD010E941918DC01CB01BC01CD0183
:100BE00020E030E040E050E40E944019DC01CB01FD
:100BF000BC01CD0123E333E343E550E40E944019F7
:100C0000DC01CB01BC01CD0120E030E040EA50E442
:100C10000E944618DC01CB018D879E87AF87B88B79
:100C20006D857E858F85988929893A894B895C896C
:100C30000E941C1A88230CF480C06D857E858F85E8
:100C4000988929893A894B895C890E94E817DC01D7
:100C5000CB0189879A87AB87BC8769857A858B8525
:100C60009C8520E030E040E85FE30E941C1A882366
:100C700034F081E08093480310924903F8C01DA628
:100C800069857A858B859C8520E030E040E85FE3CC
:100C90000E944C1A882314F481E08DA781E09DA561
:100CA0008927882309F044C01CA669857A858B852D
:100CB0009C8520E030E040E050E00E94EC191816DE
:100CC00014F481E08CA781E09CA58927882381F515
:100CD00060E070E080E89FE329853A854B855C857C
:100CE0000E94E817DC01CB017C018D0160E070E01F
:100CF00080E291E429A13AA14BA15CA10E94401994
:100D0000DC01CB019C01AD01C801B7010E9446186E
:100D1000DC01CB018093300390933103A093320325
:100D2000B093330381E080934803109249039FC03E
:100D300010924803109249039AC069897A898B8975
:100D40009C892D853E854F8558890E94E817DC01D6
:100D5000CB018D839E83AF83B8871BA66D817E8177
:100D60008F81988520E030E040E050E00E94EC194F
:100D7000181614F481E08BA781E09BA589278823AE
:100D8000B9F51AA66D817E818F81988520E030E0CB
:100D900040E450E40E947C1A181614F081E08AA7FF
:100DA00081E09AA58927882319F560E070E080E248
:100DB00091E429A13AA14BA15CA10E944019DC0158
:100DC000CB01BC01CD012D813E814F8158850E9410
:100DD0004618DC01CB018093300390933103A0933C
:100DE0003203B093330310924803109249033FC07B
:100DF0006D817E818F81988520E030E040E450E471
:100E00000E94EC1918169CF56D817E818F81988562
:100E100020E030E040E85FE30E94E817DC01CB010E
:100E200089839A83AB83BC8360E070E080E291E4C5
:100E300029A13AA14BA15CA10E944019DC01CB0180
:100E4000BC01CD0129813A814B815C810E94461809
:100E5000DC01CB018093300390933103A0933203E4
:100E6000B09333031092480381E080934903AD9619
:100E70000FB6F894DEBF0FBECDBFCF91DF911F91AB
:100E80000F91FF90EF900895EF92FF920F931F93B1
:100E9000DF93CF93CDB7DEB766970FB6F894DEBF7A
:100EA0000FBECDBF9C878B877E876D87588B4F8702
:100EB000098B1A8B2B8B3C8BFE8AED8A84E195EA99
:100EC0009093F1018093F0018B859C859093ED01C7
:100ED0008093EC018D859E859093EF018093EE01C8
:100EE00089899A89AB89BC89BC01CD0144E050E075
:100EF00022E030E0FE0131968F010E94A51D8F8512
:100F000098890E940315CE0101960E9403158D89D0
:100F10009E890E9403158091EE019091EF01449605
:100F20009093EF018093EE0166960FB6F894DEBFC2
:100F30000FBECDBFCF91DF911F910F91FF90EF902A
:100F40000895DF93CF9300D00F92CDB7DEB789839A
:100F50008981882329F080EE97E09B838A8304C0EF
:100F600080E098EF9B838A838A819B810F900F900A
:100F70000F90CF91DF9108950F93DF93CF93CDB76B
:100F8000DEB728970FB6F894DEBF0FBECDBF9A83A9
:100F900089837C836B835E834D832F83088789815C
:100FA0009A819093ED018093EC018B819C819093C9
:100FB000EF018093EE018D819E810E9403158F8148
:100FC0000E94A1079093F1018093F00183E291E0E8
:100FD0000E94031588850E94A1079093F1018093D8
:100FE000F0018AE291E00E94031584E195EA909372
:100FF000F1018093F0018091EE019091EF01449610
:101000009093EF018093EE0128960FB6F894DEBF1F
:101010000FBECDBFCF91DF910F9108950F93DF9356
:10102000CF93CDB7DEB728970FB6F894DEBF0FBECB
:10103000CDBF9A8389837C836B835E834D832F83AB
:10104000088789819A819093ED018093EC018B81CF
:101050009C819093EF018093EE018D819E810E948F
:10106000031589819A819093ED018093EC01809121
:10107000EE019091EF010A969093EF018093EE01BB
:101080008F81882359F080EE97E09093F10180934F
:10109000F00183E391E00E94031512C08885882344
:1010A00059F080E098EF9093F1018093F0018FE385
:1010B00091E00E94031504C08BE491E00E940315A7
:1010C00084E195EA9093F1018093F00128960FB6A0
:1010D000F894DEBF0FBECDBFCF91DF910F91089581
:1010E000EF92FF920F931F93DF93CF93CDB7DEB7AD
:1010F0008AE090E09093ED018093EC018AE090E02B
:101100009093EF018093EE01809138039091390321
:10111000A0913A03B0913B03BC01CD0123E333E33B
:1011200043E550E40E944019DC01CB01BC01CD0134
:1011300020E030E048E453E40E944618DC01CB0193
:101140008C019D0147E551E0E9E6F1E08AE090E09D
:1011500062E870E07F010E9444078091EE01909167
:10116000EF017C0180913C0390913D03A0913E03EF
:10117000B0913F03BC01CD0123E333E343E550E4E9
:101180000E944019DC01CB01BC01CD0120E030E020
:1011900040EA50E40E944618DC01CB018C019D011D
:1011A0004DE651E0EFE7F1E08AE090E0B7017F0122
:1011B0000E9444078091EE019091EF017C018091A3
:1011C000400390914103A0914203B0914303BC01BD
:1011D000CD0123E333E343E550E40E944019DC01F1
:1011E000CB01BC01CD0120E030E040EA50E40E9498
:1011F0004618DC01CB018C019D0143E851E0EFE78B
:10120000F1E08AE090E0B7017F010E9444078091FD
:10121000EE019091EF017C01809144039091450390
:10122000A0914603B0914703BC01CD0123E333E312
:1012300043E550E40E944019DC01CB01BC01CD0123
:1012400020E030E040EA50E40E944618DC01CB0187
:101250008C019D0144E951E0EFE7F1E08AE090E084
:10126000B7017F010E9444078091EE019091EF0148
:101270007C018091400390914103A0914203B09181
:10128000430320914403309145034091460350911C
:101290004703BC01CD010E941918DC01CB01BC0140
:1012A000CD0123E333E343E550E40E944019DC0120
:1012B000CB01BC01CD0120E030E040EA50E40E94C7
:1012C0004618DC01CB018C019D0146EA51E0EFE7B5
:1012D000F1E08AE090E0B7017F010E944407E091CD
:1012E0001C01F0911F0129EB31E08FEA90E062E8E8
:1012F00070E0A9012E2F0F2F0E94BC078091EE01F4
:101300009091EF01AC01E0911D01F091200123ECDF
:1013100031E08FEA90E0BA01A9012E2F0F2F0E9431
:10132000BC078091EE019091EF01AC01E0911E01AC
:10133000F09121012DEC31E08FEA90E0BA01A90192
:101340002E2F0F2F0E94BC078091EE019091EF018C
:10135000AC01E0914803F091490327ED31E08FEAB9
:1013600090E0BA01A9012E2F0F2F0E940E08CF91F5
:10137000DF911F910F91FF90EF9008950F931F93AE
:10138000DF93CF9300D000D0CDB7DEB79A838983A7
:101390007C836B838091EE019091EF01E981FA816A
:1013A000958384838091EC019091ED01E981FA812C
:1013B00091838083E981FA81248135818B819C81AD
:1013C000820F931FE981FA8197838683E981FA81ED
:1013D000208131818B819C81820F931FE981FA8169
:1013E00093838283A0914E03B0914F03E981FA81E8
:1013F0002081318142815381648175818681978109
:101400008D010E9411130F900F900F900F90CF91AC
:10141000DF911F910F910895DF93CF93CDB7DEB782
:1014200060970FB6F894DEBF0FBECDBF18861F823F
:101430008AE090E09E838D838AE090E09C838B839A
:101440008DE090E09A8389838D819E819093EF0156
:101450008093EE018B819C819093ED018093EC0150
:10146000CE01099629813A81B9010E94BE091886E8
:101470001F8218C02091EC013091ED0189819A8181
:10148000820F931F9093ED018093EC01CE0109969A
:1014900029813A81B9010E94BE098F819885019600
:1014A00098878F838F819885823091051CF32091D6
:1014B000EC013091ED0189819A81A901481B590BFA
:1014C000CA019093ED018093EC0181E090E0988750
:1014D0008F8318C02091EE013091EF0189819A81AC
:1014E000820F931F9093EF018093EE01CE01099636
:1014F00029813A81B9010E94BE098F8198850196A0
:1015000098878F838F819885853091051CF32D8175
:101510003E8189819A81A901481B590BCA01909388
:10152000EF018093EE014091EC015091ED01298192
:101530003A81C901880F991F820F931F840F951F4D
:101540009093ED018093EC0118861F8218C02091C2
:10155000EE013091EF0189819A81820F931F909360
:10156000EF018093EE01CE01099629813A81B901FC
:101570000E94BE098F819885019698878F838F81FD
:101580009885853091051CF318861F8218C020911C
:10159000EC013091ED0189819A81820F931F909324
:1015A000ED018093EC01CE01099629813A81B901C0
:1015B0000E94BE098F819885019698878F838F81BD
:1015C0009885823091051CF32091EE013091EF0156
:1015D00089819A81880F991F909581959F4F820FDD
:1015E000931F9093EF018093EE012091EC013091D5
:1015F000ED0189819A81A901481B590BCA01909379
:10160000ED018093EC01CE01099629813A81B9015F
:101610000E94BE092091EE013091EF0189819A81EB
:10162000880F991F909581959F4F820F931F9093DC
:10163000EF018093EE01CE01099629813A81B9012B
:101640000E94BE0918861F8218C02091EC013091BB
:10165000ED0189819A81820F931F9093ED01809310
:10166000EC01CE01099629813A81B9010E94BE0997
:101670008F819885019698878F838F81988518161A
:1016800019061CF78D819E819093EF018093EE01E6
:101690002091EC013091ED0189819A81880F991F89
:1016A000820F931F9093ED018093EC0118861F82A7
:1016B00018C02091EE013091EF0189819A81820F4B
:1016C000931F9093EF018093EE01CE01099629813B
:1016D0003A81B9010E94BE098F8198850196988749
:1016E0008F838F819885843091051CF38D819E8135
:1016F0009093EF018093EE0118861F8218C020910D
:10170000EC013091ED0189819A81820F931F9093B2
:10171000ED018093EC01CE01099629813A81B9014E
:101720000E94BE098F819885019698878F838F814B
:101730009885823091051CF32091EE013091EF01E4
:1017400089819A81880F991F820F931F9093EF01CF
:101750008093EE012091EC013091ED0189819A8115
:10176000820F931F9093ED018093EC0118861F82E6
:101770001AC02091EC013091ED0189819A81A90173
:10178000481B590BCA019093ED018093EC01CE01E7
:10179000099629813A81B9010E94BE098F819885F5
:1017A000019698878F838F819885823091050CF3FD
:1017B0008D819E819093EF018093EE012091EC0149
:1017C0003091ED0189819A81880F991F820F931FB3
:1017D0009093ED018093EC0118861F8218C0209130
:1017E000EE013091EF0189819A81820F931F9093CE
:1017F000EF018093EE01CE01099629813A81B9016A
:101800000E94BE098F819885019698878F838F816A
:101810009885843091051CF32D813E8189819A81C0
:10182000A901481B590BCA019093EF018093EE0167
:101830002091EC013091ED0189819A81880F991FE7
:10184000820F931F9093ED018093EC0118861F8205
:1018500018C02091EE013091EF0189819A81820FA9
:10186000931F9093EF018093EE01CE010996298199
:101870003A81B9010E94BE098F81988501969887A7
:101880008F838F819885853091051CF34091EE01FF
:101890005091EF0129813A81C901880F991F820F68
:1018A000931F909581959F4F840F951F9093EF0103
:1018B0008093EE012091EC013091ED0189819A81B4
:1018C000820F931F9093ED018093EC01CE01099656
:1018D00029813A81B9010E94BE092091EE0130911F
:1018E000EF0189819A81820F931F9093EF0180937A
:1018F000EE012091EC013091ED0189819A81820FF6
:10190000931F9093ED018093EC01CE0109962981FC
:101910003A81B9010E94BE092091EE013091EF0198
:1019200089819A81A901481B590BCA019093EF0143
:101930008093EE012091EC013091ED0189819A8133
:10194000820F931F9093ED018093EC01CE010996D5
:1019500029813A81B9010E94BE092D813E81898188
:101960009A81A901481B590BCA019093EF018093FA
:10197000EE012091EC013091ED0189819A81820F75
:10198000931F9093ED018093EC0118861F8218C07D
:101990002091EE013091EF0189819A81820F931F8E
:1019A0009093EF018093EE01CE01099629813A814F
:1019B000B9010E94BE098F819885019698878F830F
:1019C0008F819885853091051CF32D813E81898119
:1019D0009A81A901481B590BCA019093EF0180938A
:1019E000EE012091EC013091ED0189819A81880FFF
:1019F000991F820F931F9093ED018093EC0118863D
:101A00001F8218C02091EE013091EF0189819A81E7
:101A1000820F931F9093EF018093EE01CE01099600
:101A200029813A81B9010E94BE098F81988501966A
:101A300098878F838F819885853091051CF3188650
:101A40001F8218C02091EC013091ED0189819A81AB
:101A5000820F931F9093ED018093EC01CE010996C4
:101A600029813A81B9010E94BE098F81988501962A
:101A700098878F838F819885823091051CF3209100
:101A8000EE013091EF0189819A81880F991F90951D
:101A900081959F4F820F931F9093EF018093EE01EA
:101AA0002091EC013091ED0189819A81820F931F81
:101AB0009093ED018093EC0118861F821AC020914B
:101AC000EC013091ED0189819A81A901481B590BE4
:101AD000CA019093ED018093EC01CE010996298112
:101AE0003A81B9010E94BE098F8198850196988735
:101AF0008F838F819885823091050CF32091EE01C0
:101B00003091EF0189819A81880F991F9095819575
:101B10009F4F820F931F9093EF018093EE012091CE
:101B2000EC013091ED0189819A81A901481B590B83
:101B3000CA019093ED018093EC0118861F8218C0B2
:101B40002091EC013091ED0189819A81820F931FE0
:101B50009093ED018093EC01CE01099629813A81A1
:101B6000B9010E94BE098F819885019698878F835D
:101B70008F819885823091051CF32091EC01309182
:101B8000ED0189819A81820F931F9093ED018093DB
:101B9000EC012091EE013091EF0189819A81A90138
:101BA000481B590BCA019093EF018093EE011886F0
:101BB0001F821AC02091EE013091EF0189819A8134
:101BC000880F991F820F931F9093EF018093EE016E
:101BD000CE01099629813A81B9010E94BE098F81FF
:101BE0009885019698878F838F819885823091059B
:101BF0000CF360960FB6F894DEBF0FBECDBFCF9149
:101C0000DF9108950F931F93DF93CF93CDB7DEB786
:101C10002E970FB6F894DEBF0FBECDBF98878F8387
:101C200049875A876B877C873E872D878FEF9FEF89
:101C30009E838D8380E090E0A0E0B0E089839A836A
:101C4000AB83BC838D859E859093EF018093EE01DD
:101C5000EF81F885208131814281538164817581D2
:101C60008681978100E010E00E94111369857A85D2
:101C70008B859C8523E333E343E550E40E944019C0
:101C8000DC01CB01BC01CD0120E030E04AE053E4AF
:101C90000E944618DC01CB0189839A83AB83BC8305
:101CA00069817A818B819C8120E030E040E451E4BD
:101CB0000E941918DC01CB01BC01CD010E947016F5
:101CC000DC01CB01EF81F885938382838D859E852E
:101CD000EF81F885958384838D859E850196EF81BC
:101CE000F8859783868369817A818B819C8120E046
:101CF00030E044E552E40E944C1A88232CF480E042
:101D000098EF9E838D8304C080EE97E09E838D8341
:101D10008091EE019091EF0144969093EF018093B2
:101D2000EE01AD81BE81EF81F88520813181428154
:101D3000538164817581868197818D010E94111381
:101D40002E960FB6F894DEBF0FBECDBFCF91DF91B8
:101D50001F910F910895AF92BF92CF92DF92EF92B1
:101D6000FF920F931F93DF93CF93CDB7DEB7A39767
:101D70000FB6F894DEBF0FBECDBF9A8B898B4B8B0D
:101D80005C8B6D8B7E8B8AE090E09A8789876B896C
:101D90007C898D899E8920E030E04AE053E40E94EE
:101DA0004618DC01CB01BC01CD0120E030E040E46D
:101DB00051E40E941918DC01CB01BC01CD010E9445
:101DC0007016DC01CB019C878B8789899A899E8755
:101DD0008D8789899A890196988B8F878091EE01EA
:101DE0009091EF0144969093EF018093EE01CE0124
:101DF0000196988F8F8BFE013996FA8FE98FF8E064
:101E0000FB8FE98DFA8D0080898D9A8D01969A8FCE
:101E1000898FEF89F88D00828F89988D0196988F30
:101E20008F8B9B8D91509B8FEB8DEE2351F770E044
:101E3000798180E08A8190E09B8120E02C8130E0F4
:101E40003D8140E04E8150E05F8160E068857C8F9D
:101E50008D8F9E8F2F8F38A349A35AA36BA3AC8C71
:101E6000BD8CCE8CDF8CE8A0F9A00AA11BA12A2D85
:101E70003B2D4C2D5D2D6E2D7F2D802F912FA39608
:101E80000FB6F894DEBF0FBECDBFCF91DF911F918B
:101E90000F91FF90EF90DF90CF90BF90AF9008959B
:101EA0000F931F93DF93CF93CDB7DEB728970FB66D
:101EB000F894DEBF0FBECDBF88E790E09E838D8390
:101EC0008D819E81019698878F8385E090E09A832B
:101ED00089838BE391E09C838B8329813A814B81B9
:101EE0005C816D817E818F81988504E115EA0E9475
:101EF000111389EE90E09E838D838D819E810296E1
:101F000098878F8385E090E09A8389838BE391E0C3
:101F10009C838B8329813A814B815C816D817E8199
:101F20008F81988504E115EA0E94111388E790E0FB
:101F30009E838D838BEE90E098878F8388EA90E074
:101F40009A83898389819A8102969C838B832981D4
:101F50003A814B815C816D817E818F81988504E11E
:101F600015EA0E94111388E790E09E838D838BEE23
:101F700090E098878F8385E090E09A8389838981B8
:101F80009A8102969C838B8329813A814B815C8163
:101F90006D817E818F81988504E115EA0E9411137D
:101FA00088E790E09E838D838BEE90E098878F8307
:101FB00089E391E09A83898389819A8102969C833F
:101FC0008B8329813A814B815C816D817E818F81F8
:101FD000988504E115EA0E94111328960FB6F8942B
:101FE000DEBF0FBECDBFCF91DF911F910F9108953E
:101FF000DF93CF9300D000D0CDB7DEB780914A03F6
:1020000090914B03A0914C03B0914D038C599F4F7D
:10201000AF4FBF4F89839A83AB83BC8320914A0320
:1020200030914B0340914C0350914D0389819A812B
:10203000AB81BC81281739074A075B0778F30F90FB
:102040000F900F900F90CF91DF910895DF93CF9372
:1020500000D000D0CDB7DEB780914A0390914B03FA
:10206000A0914C03B0914D038059984EAF4FBF4F94
:1020700089839A83AB83BC8320914A0330914B03BD
:1020800040914C0350914D0389819A81AB81BC8171
:10209000281739074A075B0778F30F900F900F90C6
:1020A0000F90CF91DF9108950F931F93DF93CF93FC
:1020B000CDB7DEB7CB54D0400FB6F894DEBF0FBE1D
:1020C000CDBF0E94B10278940E9426100E9416157E
:1020D0000E94070281E090E09A83898389819A8136
:1020E0000E948D120E94D9020E94E4020E94500FA9
:1020F000209138033091390340913A0350913B03CA
:102100008CE890E0BA01A9010E94AB0E2BA73CA776
:102110004DA75EA76FA778AB89AB9AABCE010396AC
:102120009CAB8BABFE01BB96FEABEDABF8E0FFAB1F
:10213000EDA9FEA900808DA99EA901969EAB8DAB4D
:10214000EBA9FCA900828BA99CA901969CAB8BAB47
:102150009FA991509FABEFA9EE2351F78091EE011B
:102160009091EF0120913C0330913D0340913E035B
:1021700050913F03BA01A9010E94AB0E2BA73CA7C7
:102180004DA75EA76FA778AB89AB9AABCE010B9634
:1021900099AF88AFFE01BB96FBAFEAAFF8E0FCAFAA
:1021A000EAADFBAD00808AAD9BAD01969BAF8AAFD7
:1021B000E8ADF9AD008288AD99AD019699AF88AFD1
:1021C0009CAD91509CAFECADEE2351F78091EE01A8
:1021D0009091EF01209140033091410340914203DF
:1021E00050914303BA01A9010E94AB0E2BA73CA753
:1021F0004DA75EA76FA778AB89AB9AABCE0143968C
:102200009EAF8DAFFE01BB962196FFAFEEAF21973B
:10221000F8E02296FFAF22972196EEADFFAD219711
:10222000008021968EAD9FAD2197019621969FAF9C
:102230008EAF2197EDADFEAD00828DAD9EAD0196C6
:102240009EAF8DAF22969FAD2297915022969FAF61
:1022500022972296EFAD2297EE23F1F68091EE01C0
:102260009091EF0120914403309145034091460342
:1022700050914703BA01A9010E94AB0E2BA73CA7BE
:102280004DA75EA76FA778AB89AB9AABCE014B96F3
:1022900024969FAF8EAF2497FE01BB962696FFAF84
:1022A000EEAF2697F8E02796FFAF27972696EEAD7C
:1022B000FFAD2697008026968EAD9FAD269701969E
:1022C00026969FAF8EAF26972496EEADFFAD24974E
:1022D000008224968EAD9FAD2497019624969FAFE1
:1022E0008EAF249727969FAD2797915027969FAF43
:1022F00027972796EFAD2797EE23C1F68091EE0141
:102300009091EF018C018091400390914103A09145
:102310004203B0914303209144033091450340911F
:10232000460350914703BC01CD010E941918DC01FE
:10233000CB01BC01CD0120E030E040E050E40E9440
:102340004019DC01CB019C01AD01C801BA01A90112
:102350000E94AB0E2BA73CA74DA75EA76FA778AB3B
:1023600089AB9AABCE01839629969FAF8EAF299702
:10237000FE01BB962B96FFAFEEAF2B97F8E02C96A5
:10238000FFAF2C972B96EEADFFAD2B9700802B96D1
:102390008EAD9FAD2B9701962B969FAF8EAF2B974F
:1023A0002996EEADFFAD2997008229968EAD9FAD9F
:1023B0002997019629969FAF8EAF29972C969FADAE
:1023C0002C9791502C969FAF2C972C96EFAD2C9775
:1023D000EE23C1F684E195EA9093F1018093F00138
:1023E0000E94CF0480911C0190911D0120911E013B
:1023F000692F422F0E9449050E940C050E94700817
:102400000E940C0A209138033091390340913A031D
:1024100050913B03CA01B9010E941918DC01CB019C
:102420009C01AD01CE010396BA01A9012CE830E070
:102430000E94020E20913C0330913D0340913E03E7
:1024400050913F03CA01B9010E941918DC01CB0168
:102450009C01AD018091EE019091EF01FC01CE0154
:102460000B96BA01A9019F010E94020E2091400320
:102470003091410340914203509143038091EE011A
:102480009091EF01FC01CE014396BA01A9019F0191
:102490000E94020E2091440330914503409146036F
:1024A000509147038091EE019091EF01FC01CE0124
:1024B0004B96BA01A9019F010E94020E8091400330
:1024C00090914103A0914203B091430320914403B2
:1024D000309145034091460350914703BC01CD0123
:1024E0000E941918DC01CB01BC01CD0120E030E0D5
:1024F00040E050E40E944019DC01CB019C01AD0199
:102500008091EE019091EF01FC01CE018396BA011A
:10251000A9019F010E94020E63CF9C019093EB01E1
:102520008093EA012C9886E388B92B982B9A2C9AF1
:102530002115310571F480EF90E09093E7018093CD
:10254000E60180E491E09093E9018093E80188E45A
:1025500032C02130310571F480E491E09093E701BD
:102560008093E60180EF90E09093E9018093E80189
:1025700088EE21C02230310571F480EF90E0909315
:10258000E7018093E60180E491E09093E901809374
:10259000E80188E810C02330310581F480E491E03F
:1025A0009093E7018093E60180EF90E09093E9013A
:1025B0008093E80188E288B92B982B9A2C988AE2BC
:1025C00088B92B982B9A2C9A18B82B982B9A18B854
:1025D0002B982B9A8091E6019091E701019798B989
:1025E00001962B982B9A815088B92B982B9A2C986E
:1025F0008BE288B92B982B9A2C9A18B82B982B9A87
:1026000018B82B982B9A8091E8019091E9010197D5
:1026100098B901962B982B9A815088B92B982B9AB0
:102620000895EF92FF920F931F93DF93CF93CDB74F
:10263000DEB728970FB6F894DEBF0FBECDBFF22FDE
:102640002983E32F3A834B835C83362F6D83272FB7
:102650007E838F8398877801AB81BC81062F172FEB
:102660006F8178852C988AE288B92B982B9A2C9ABE
:10267000E8B92B982B9AF8B92B982B9AB8B92B98C4
:102680002B9AA8B92B982B9A2C988BE288B92B9867
:102690002B9A2C9A28B92B982B9A38B92B982B9ACD
:1026A00078B92B982B9A68B92B982B9A2C988CE296
:1026B00088B92B982B9A2C9A2F2F3E2FC901AC0149
:1026C0000DC0F8B82B982B9AE8B82B982B9A2F5F4F
:1026D0003F4F62177307A8F74F5F5F4FA417B50707
:1026E00010F09801F6CF28960FB6F894DEBF0FBE13
:1026F000CDBFCF91DF911F910F91FF90EF90089583
:10270000EF92FF920F931F93DF93CF93CDB7DEB776
:1027100028970FB6F894DEBF0FBECDBFF22F2983E6
:10272000E32F3A834B835C83362F6D83272F7E8381
:102730008F839887D8010B811C81E62EF72E6F813D
:1027400078852C988AE288B92B982B9A2C9AE8B92C
:102750002B982B9AF8B92B982B9A18B92B982B9A5F
:1027600008B92B982B9A2C988BE288B92B982B9A26
:102770002C9A28B92B982B9A38B92B982B9A78B980
:102780002B982B9A68B92B982B9A2C988CE288B9A5
:102790002B982B9A2C9A2F2F3E2FC901AC0114C0D5
:1027A00011968C91119788B92B982B9A12968C912F
:1027B000129788B914962B982B9A2F5F3F4F621768
:1027C000730770F74F5F5F4F0417150710F09701FD
:1027D000F6CF28960FB6F894DEBF0FBECDBFCF91CF
:1027E000DF911F910F91FF90EF9008950F931F932A
:1027F000DF93CF93CDB7DEB728970FB6F894DEBF3F
:102800000FBECDBF1092ED011092EC011092EF01BE
:102810001092EE012091E6013091E7012150304005
:102820008091E8019091E90101971A821982422F63
:102830003C832B831E821D8298878F830091F20137
:102840001091F30129813A815C816D817E819885A7
:102850000E94111328960FB6F894DEBF0FBECDBFAD
:10286000CF91DF911F910F9108956F927F928F9278
:102870009F92AF92BF92CF92DF92EF92FF920F930F
:102880001F93CF93DF93982F0091EC011091ED01EE
:1028900024E0E22EF12CE00EF11E6090EE0170902B
:1028A000EF0180528F3508F09FC0E301279685E045
:1028B000989F90011124245230402C988BE288B9C3
:1028C0002B982B9A2C9A78B82B982B9A68B82B981F
:1028D0002B9AD8B92B982B9AC8B92B982B9AC090C1
:1028E000F001D090F101A090F201B090F301A801A5
:1028F0009AE2892E8CE2982E36C02C9888B82B98B4
:102900002B9A2C9A58B92B982B9A48B92B982B9A1A
:1029100058B92B982B9A48B92B982B9A2C9898B881
:102920002B982B9A2C9AF901B491B30191E014C021
:10293000A92FAB2311F48B2D01C08D2D88B92B98B5
:102940002B9AAA2311F48A2D01C08C2D88B92B98BB
:102950002B9A6F5F7F4F990FC617D70748F72F5FE6
:102960003F4F4F5F5F4FE416F50638F62C988AE22A
:1029700088B92B982B9A2C9A58B92B982B9A48B92E
:102980002B982B9A58B92B982B9A48B92B982B9A9D
:102990002C988CE288B92B982B9A2C9AC30107C0EB
:1029A000B8B82B982B9AA8B82B982B9A0196C817D1
:1029B000D907B0F798012A5F3F4F3093ED0120937C
:1029C000EC018091E6019091E7012817390760F04A
:1029D0001092ED011092EC0188E090E0680E791EF3
:1029E0007092EF016092EE01DF91CF911F910F91F4
:1029F000FF90EF90DF90CF90BF90AF909F908F901F
:102A00007F906F9008951F93CF93DF93EC0110E0B8
:102A100003C00E9435141F5FFE01E10FF11D80818C
:102A20008823B9F7DF91CF911F91089585B780680A
:102A300085BF85B7806885BF8FE784B98FEF87B979
:102A40000E94231508952A9888EE93E02CE231E045
:102A5000F9013197F1F70197D9F72A9A88EE93E0B7
:102A60002CE231E0F9013197F1F70197D9F72C9A6F
:102A70002B9A2D9A289829982E9A2C9888E288B912
:102A80002B982B9A2C9A2C9881E188B92B982B9A09
:102A90002C9A88E592E02CE231E0F9013197F1F7C8
:102AA0000197D9F72C988BEC88B92B982B9A2C9AF4
:102AB00081E088B92B982B9A2C9880EC88B92B98B8
:102AC0002B9A2C9A86E288B92B982B9A88E088B9A1
:102AD0002B982B9A2C9881EC88B92B982B9A2C9AAE
:102AE00080E188B92B982B9A2C9885EC88B92B9883
:102AF0002B9A2C9A85E388B92B982B9A8EE388B968
:102B00002B982B9A2C9886E388B92B982B9A2C9A81
:102B100088E488B92B982B9A2C9880EB88B92B984D
:102B20002B9A2C9A8AE488B92B982B9A2C9881EBB3
:102B300088B92B982B9A2C9A18B82B982B9A8BE142
:102B400088B92B982B9A2C9886EB88B92B982B9ABE
:102B50002C9AE2E2F2E0819188B92B982B9A42E01C
:102B6000E632F407C1F72C9887EC88B92B982B9A9A
:102B70002C9A85EB88B92B982B9A2C9886EF88B9DC
:102B80002B982B9A2C9AEEE1F2E0819188B92B9840
:102B90002B9A82E0E132F807C1F72C9882EF88B9CE
:102BA0002B982B9A2C9A18B82B982B9A2C9886E253
:102BB00088B92B982B9A2C9A81E088B92B982B9A5C
:102BC0002C988AE388B92B982B9A2C9A85E588B99A
:102BD0002B982B9A2C9880EE88B92B982B9A2C9AAC
:102BE000EEE0F2E0819188B92B982B9A42E0ED312A
:102BF000F407C1F72C9881EE88B92B982B9A2C9A60
:102C0000EEEFF1E0819188B92B982B9A82E0ED30BC
:102C1000F807C1F72C988AE288B92B982B9A2C9A3E
:102C2000E9EFF1E0819188B92B982B9A41E0ED3FD3
:102C3000F407C1F72C988BE288B92B982B9A2C9A21
:102C4000E4EFF1E0819188B92B982B9A81E0E83F7D
:102C5000F807C1F72C9884E388B92B982B9A2C9A03
:102C60002C9884EB88B92B982B9A2C9A18B82B980F
:102C70002B9A2C9887EB88B92B982B9A2C9A87E063
:102C800088B92B982B9A2C988CE288B92B982B9A80
:102C90002C9A20E030E010C018B82B982B9A18B866
:102CA0002B982B9A019641E080349407A9F72F5F67
:102CB0003F4F203F310519F080E090E0EDCF2C9898
:102CC00089E288B92B982B9A2C9A84EF91E02CE218
:102CD00031E0F9013197F1F70197D9F7299A089571
:102CE000EF92FF920F931F937B018C0120E030E065
:102CF00040E05FE40E941C1A88238CF0C801B701F1
:102D000020E030E040E05FE40E94E8170E94AC1A47
:102D10009B01AC01205030404040504806C0C801E3
:102D2000B7010E94AC1A9B01AC01B901CA011F9105
:102D30000F91FF90EF900895A0E0B0E0E2EAF6E195
:102D40000C946E1DDC012B01FA019C91923008F469
:102D500039C1EB018881823008F433C1943069F4C1
:102D6000843009F02FC111969C9111978981981791
:102D700009F428C1A7E2B2E025C1843009F421C1D9
:102D80008230A9F4923009F01DC19A01AD0188E0AA
:102D9000EA010990AE01E90109929E018150C1F753
:102DA000E201898111969C918923818308C1923027
:102DB00009F407C112962D903C901397EB018A817C
:102DC0009B811496AD90BD90CD90DC901797EC80D0
:102DD000FD800E811F819101281B390BB90137FF3E
:102DE00004C066277727621B730B603271050CF0F5
:102DF00061C0121613066CF537014801062E04C097
:102E000096948794779467940A94D2F721E030E0FF
:102E100040E050E004C0220F331F441F551F6A9545
:102E2000D2F721503040404050402E213F214023D6
:102E30005123211531054105510521F021E030E0F4
:102E400040E050E079018A01E628F728082919298D
:102E50003CC0232BD1F1260E371E35014601062E2C
:102E600004C096948794779467940A94D2F721E0EB
:102E700030E040E050E004C0220F331F441F551FD4
:102E80006A95D2F721503040404050402A213B21E2
:102E90004C215D21211531054105510521F021E02D
:102EA00030E040E050E059016A01A628B728C82860
:102EB000D9280BC0821593052CF01C01AA24BB2431
:102EC000650103C0EE24FF24870111969C91D20175
:102ED00011968C91981709F445C0992339F0A801EF
:102EE00097012A193B094C095D0906C0A601950105
:102EF0002E193F09400B510B57FD08C01182338238
:102F0000228224833583468357831DC081E08183D9
:102F10003382228288279927DC01821B930BA40B22
:102F2000B50B84839583A683B7830DC0220F331F0F
:102F3000441F551F248335834683578382819381A1
:102F40000197938382832481358146815781DA01F9
:102F5000C9010197A109B1098F5F9F4FAF4FBF43CF
:102F600028F30BC0918333822282EA0CFB1C0C1DD8
:102F70001D1DE482F5820683178383E0808324810C
:102F800035814681578157FF1AC0C901AA2797FD8D
:102F9000A095BA2F81709070A070B070569547952B
:102FA00037952795822B932BA42BB52B8483958360
:102FB000A683B78382819381019693838283DF0105
:102FC00001C0D201CD01CDB7DEB7E2E10C948A1D7C
:102FD000A0E2B0E0EEEEF7E10C947A1D69837A830B
:102FE0008B839C832D833E834F835887E9E0EE2EAD
:102FF000F12CEC0EFD1ECE010196B7010E949D1C26
:103000008E010F5E1F4FCE010596B8010E949D1CD8
:103010008A8991E089278A8BC701B801AE01475E92
:103020005F4F0E949C160E94C81BA096E6E00C947D
:10303000961DA0E2B0E0EFE1F8E10C947A1D6983FF
:103040007A838B839C832D833E834F835887F9E05B
:10305000EF2EF12CEC0EFD1ECE010196B7010E9461
:103060009D1C8E010F5E1F4FCE010596B8010E9478
:103070009D1CC701B801AE01475E5F4F0E949C16C0
:103080000E94C81BA096E6E00C94961DA0E2B0E05A
:10309000ECE4F8E10C946E1D69837A838B839C8346
:1030A0002D833E834F835887CE010196BE01675F13
:1030B0007F4F0E949D1CCE010596BE016F5E7F4F23
:1030C0000E949D1C9985923088F089898230C8F0D1
:1030D000943019F4823051F404C0843029F49230D1
:1030E00081F487E292E0C6C0923049F420E09A85EC
:1030F0008A89981321E02A87CE010996BBC08230C5
:1031000049F420E09A858A89981321E02A8BCE0120
:103110004196B0C02D843E844F8458886D887E8847
:103120008F88988CEE24FF248701AA24BB24650194
:1031300040E050E060E070E0E0E0F0E0C10181706C
:103140009070892BE9F0E60CF71C081D191D9A01F7
:10315000AB012A0D3B1D4C1D5D1D80E090E0A0E001
:10316000B0E0E614F7040805190520F481E090E0CA
:10317000A0E0B0E0BA01A901480F591F6A1F7B1FE8
:10318000AA0CBB1CCC1CDD1C97FE08C081E090E0A3
:10319000A0E0B0E0A82AB92ACA2ADB2A3196E03298
:1031A000F10549F0660C771C881C991C56944794CD
:1031B00037942794C3CFFA85EA892B893C898B857C
:1031C0009C85280F391F2E5F3F4F17C0CA018170A1
:1031D0009070892B61F016950795F794E79480E03D
:1031E00090E0A0E0B0E8E82AF92A0A2B1B2B76959C
:1031F0006795579547952F5F3F4F77FDE7CF0CC0F9
:10320000440F551F661F771F17FD4160EE0CFF1C12
:10321000001F111F21503040403090E0590790E0CE
:10322000690790E4790760F32B8F3C8FDB01CA01BB
:103230008F779070A070B07080349105A105B105B2
:1032400061F447FD0AC0E114F1040105110529F0FC
:10325000405C5F4F6F4F7F4F40781A8EFE1711F022
:1032600081E08A8F4D8F5E8F6F8F78A383E0898F87
:10327000CE0149960E94C81BA096E2E10C948A1DDB
:10328000A8E1B0E0E6E4F9E10C94761D69837A8365
:103290008B839C832D833E834F835887B9E0EB2E2D
:1032A000F12CEC0EFD1ECE010196B7010E949D1C73
:1032B0008E010F5E1F4FCE010596B8010E949D1C26
:1032C0002985223008F47EC03989323010F4B801E3
:1032D0007CC08A859A8989278A87243011F0223018
:1032E00031F4231709F06EC067E272E06EC034302B
:1032F00039F41D861E861F86188A1C861B8604C00C
:10330000323021F484E08987B7015FC02B853C858A
:103310008B899C89281B390B3C872B87ED84FE8485
:103320000F851889AD88BE88CF88D88CEA14FB0435
:103330000C051D0540F4EE0CFF1C001F111F215051
:1033400030403C872B8720E030E040E050E080E0D8
:1033500090E0A0E0B0E460E070E0EA14FB040C054B
:103360001D0540F0282B392B4A2B5B2BEA18FB0854
:103370000C091D09B695A79597958795EE0CFF1C2E
:10338000001F111F6F5F7F4F6F31710531F7DA0139
:10339000C9018F779070A070B07080349105A1053D
:1033A000B10561F427FD0AC0E114F104010511051E
:1033B00029F0205C3F4F4F4F5F4F20782D873E878D
:1033C0004F87588BBE01675F7F4FCB010E94C81BA0
:1033D0006896EAE00C94921DA8E1B0E0E2EFF9E112
:1033E0000C947A1D69837A838B839C832D833E831F
:1033F0004F83588789E0E82EF12CEC0EFD1ECE019C
:103400000196B7010E949D1C8E010F5E1F4FCE01D9
:103410000596B8010E949D1C8985823040F08989FB
:10342000823028F0C701B8010E94151D01C08FEF3E
:103430006896E6E00C94961DA8E1B0E0E2E2FAE1BD
:103440000C947A1D69837A838B839C832D833E83BE
:103450004F83588789E0E82EF12CEC0EFD1ECE013B
:103460000196B7010E949D1C8E010F5E1F4FCE0179
:103470000596B8010E949D1C8985823040F089899B
:10348000823028F0C701B8010E94151D01C08FEFDE
:103490006896E6E00C94961DA8E1B0E0E2E5FAE15A
:1034A0000C947A1D69837A838B839C832D833E835E
:1034B0004F83588789E0E82EF12CEC0EFD1ECE01DB
:1034C0000196B7010E949D1C8E010F5E1F4FCE0119
:1034D0000596B8010E949D1C8985823040F089893B
:1034E000823028F0C701B8010E94151D01C081E09B
:1034F0006896E6E00C94961DA8E1B0E0E2E8FAE1F7
:103500000C947A1D69837A838B839C832D833E83FD
:103510004F83588789E0E82EF12CEC0EFD1ECE017A
:103520000196B7010E949D1C8E010F5E1F4FCE01B8
:103530000596B8010E949D1C8985823040F08989DA
:10354000823028F0C701B8010E94151D01C081E03A
:103550006896E6E00C94961DACE0B0E0E2EBFAE190
:103560000C947E1D69837A838B839C83CE010196A4
:10357000BE016B5F7F4F0E949D1C8D81823061F187
:10358000823050F1843021F48E81882351F12EC095
:103590002F81388537FD20C06E812F3131051CF019
:1035A0006623F9F023C08EE190E0821B930B2985FE
:1035B0003A854B855C8504C0569547953795279588
:1035C0008A95D2F76623B1F05095409530952195B4
:1035D0003F4F4F4F5F4F0EC020E030E040E050E0E3
:1035E00009C02FEF3FEF4FEF5FE704C020E030E06E
:1035F00040E050E8B901CA012C96E2E00C949A1D13
:10360000A8E0B0E0E6E0FBE10C94761D7B018C01C4
:10361000611571058105910519F482E0898360C007
:1036200083E089838EE1C82ED12CDC82CB82ED82AF
:10363000FE820F831887C801B7010E94791BFC0125
:103640003197F7FF3BC0222733272E1B3F0B570133
:103650006801022E04C0D694C794B794A7940A9424
:10366000D2F740E050E060E070E081E090E0A0E060
:10367000B0E004C0880F991FAA1FBB1F2A95D2F77C
:103680000197A109B1098E219F21A023B1230097A1
:10369000A105B10521F041E050E060E070E04A2969
:1036A0005B296C297D294D835E836F8378878EE14A
:1036B00090E08E1B9F0B9C838B8312C0309781F010
:1036C0000E2E04C0EE0CFF1C001F111F0A94D2F72F
:1036D000ED82FE820F831887CE1ADF0ADC82CB824E
:1036E0001A82CE0101960E94C81B2896EAE00C942B
:1036F000921DEF92FF920F931F937B018C0180E04C
:10370000E81680E0F80681E0080780E0180788F4F2
:103710008FEFE816F1040105110531F028F088E07B
:1037200090E0A0E0B0E017C080E090E0A0E0B0E062
:1037300012C080E0E81680E0F80680E0080781E02B
:10374000180728F088E190E0A0E0B0E004C080E134
:1037500090E0A0E0B0E020E230E040E050E0281B44
:10376000390B4A0B5B0B04C016950795F794E79449
:103770008A95D2F7F701E15DFD4F8081281B310961
:1037800041095109C9011F910F91FF90EF900895D0
:10379000DF92EF92FF920F931F93FC01E480F5807C
:1037A00006811781D1808081823048F480E090E0EA
:1037B000A0E1B0E0E82AF92A0A2B1B2BA5C084302F
:1037C00009F49FC0823021F4EE24FF24870105C054
:1037D000E114F1040105110519F4E0E0F0E096C0F0
:1037E000628173819FEF623879070CF05BC022E839
:1037F0003FEF261B370B2A3131052CF020E030E05B
:1038000040E050E02AC0B801A701022E04C076951E
:103810006795579547950A94D2F781E090E0A0E02C
:10382000B0E004C0880F991FAA1FBB1F2A95D2F7CA
:103830000197A109B1098E219F21A023B1230097EF
:10384000A105B10521F081E090E0A0E0B0E09A018F
:10385000AB01282B392B4A2B5B2BDA01C9018F775F
:103860009070A070B07080349105A105B10539F455
:1038700027FF09C0205C3F4F4F4F5F4F04C0215CC2
:103880003F4F4F4F5F4FE0E0F0E02030A0E03A07BD
:10389000A0E04A07A0E45A0710F0E1E0F0E0790167
:1038A0008A0127C06038710564F5FB01E158FF4FBC
:1038B000D801C7018F779070A070B07080349105E7
:1038C000A105B10539F4E7FE0DC080E490E0A0E069
:1038D000B0E004C08FE390E0A0E0B0E0E80EF91E95
:1038E0000A1F1B1F17FF05C016950795F794E7944D
:1038F000319687E016950795F794E7948A95D1F766
:1039000005C0EE24FF248701EFEFF0E06E2F6795EE
:1039100066276795902F9F77D794DD24D7948E2FB5
:103920008695492F462B582F5D29B701CA011F9153
:103930000F91FF90EF90DF900895FC01DB01408133
:1039400051812281622F6F7770E0221F2227221F70
:103950009381892F880F822B282F30E0991F992778
:10396000991F11969C93119721153105A9F54115C1
:1039700051056105710511F482E037C082E89FEFBF
:1039800013969C938E9312979A01AB0167E0220FD6
:10399000331F441F551F6A95D1F783E08C930DC0E8
:1039A000220F331F441F551F12968D919C91139720
:1039B000019713969C938E931297203080E03807DE
:1039C00080E0480780E4580758F314962D933D9300
:1039D0004D935C93179708952F3F310579F4411566
:1039E00051056105710519F484E08C93089564FF15
:1039F00003C081E08C9312C01C9210C02F5730403E
:103A000013963C932E93129783E08C9387E0440F98
:103A1000551F661F771F8A95D1F7706414964D93D2
:103A20005D936D937C93179708951F93DC01FB01C1
:103A30009C91923008F447C08081823008F443C0E2
:103A4000943051F411961C91843099F58181682F3E
:103A500070E0611B71093FC0843021F0923031F475
:103A60008230B9F18181882389F12DC011961C9192
:103A700011978230F1F081811817D9F412962D91A7
:103A80003C911397828193818217930794F02817B2
:103A90003907BCF014968D919D910D90BC91A02D8D
:103AA0002481358146815781281739074A075B07EA
:103AB00018F4112341F00AC082179307A407B50731
:103AC00040F4112319F061E070E005C06FEF7FEF63
:103AD00002C060E070E0CB011F9108952F923F92E9
:103AE0004F925F926F927F928F929F92AF92BF920E
:103AF000CF92DF92EF92FF920F931F93CF93DF93BA
:103B0000CDB7DEB7CA1BDB0B0FB6F894DEBF0FBE16
:103B1000CDBF09942A88398848885F846E847D8463
:103B20008C849B84AA84B984C884DF80EE80FD8065
:103B30000C811B81AA81B981CE0FD11D0FB6F894DB
:103B4000DEBF0FBECDBFED010895EF92FF920F9340
:103B50001F93F22FF02E47FD02C0E4E001C0E4E124
:103B6000242F332727FD309537FF03C0309521954B
:103B70003F4F4F2D512F0F2FEE2E0E94C61D8F2D20
:103B8000912F1F910F91FF90EF900895A9E0B0E061
:103B9000ECECFDE10C94721D6A01122FA02EBE2CDC
:103BA0002BE3201718F42CE3922E02C0902E93944E
:103BB000AE014F5F5F4F27E0092D0E94281FBC0117
:103BC0008981E82EFF24C70189709070019711F454
:103BD000ADE209C0B1FE02C0ABE205C0B0FC02C05C
:103BE000A0E001C0A0E2E3FE3BC0AA2311F423E061
:103BF00001C024E0211710F020E002C0121B212F89
:103C0000EB2CB4FE02C0322F0AC0F601322F80E244
:103C100002C0819331503323E1F7C20ED11CAA2395
:103C200019F0F601A1936F01F6013196E2FE05C08D
:103C30009EE4D6019C9381E404C09EE6D6019C9349
:103C400081E611968C9391833296DF01832F90E267
:103C500002C09D9381508823E1F7E30FF11D40C01E
:103C6000E2FE42C0AA2311F423E001C024E02117A0
:103C700010F020E002C0121B212FEB2CB4FE02C07A
:103C8000922F0AC0F601922F80E202C081939150D8
:103C90009923E1F7C20ED11CAA2319F0F601A193D2
:103CA0006F01F6013196E2FE08C089E4D6018C93DB
:103CB0008EE411968C9386E407C089E6D6018C9336
:103CC0008EE611968C9386E681833296DF01892FEA
:103CD00020E202C02D9381508823E1F7E90FF11D06
:103CE00010822EEF3FEFAFC0161617061CF041E012
:103CF00050E003C0AB014F5F5F4FAA2019F480E092
:103D000090E003C08A2D90E0019620E030E0AA23E5
:103D100011F021E030E0240F351F280F391F812FCB
:103D200090E02817390714F020E002C0121B212F61
:103D30004B2D50E0CA0180719070B4FC0DC0B3FCF3
:103D40000BC0F601322F40E202C0419331503323C1
:103D5000E1F7C20ED11C01C0322FAA2319F0F601DF
:103D6000A1936F01892B11F0132F0AC0F601132FB5
:103D700080E302C0819311501123E1F7C30ED11CDF
:103D8000092D060FBA8090E1892E912C8E209F205C
:103D9000E4FE04C0F1E3BF1609F40150101614F05C
:103DA00001E003C0093008F008E09B0177FF02C082
:103DB00020E030E0CB010196821B930BFE0131968F
:103DC000E80FF91F8EE2F82E3B01601A71088A2D68
:103DD00090E044275527481B590B8FEF2F3F38079A
:103DE00019F4D601FD926D01621773072CF062166B
:103DF000730614F4808101C080E321503040319675
:103E00002417350724F0D6018D936D01E6CF2617D0
:103E1000370749F4B5E3BB1528F0BB1621F481142C
:103E2000910409F481E3F6018193D601812F90E298
:103E300002C09C93815011968823D9F7E10FF11DA0
:103E4000108220E030E0C9012996EEE00C948E1D2E
:103E5000283008F027E03327DA01990F311D87FD5C
:103E6000916000966105710539F432602E5F3D93D3
:103E700030E32A95E1F708959F3F30F080387105CF
:103E8000610509F03C5F3C5F3D93913008F080682C
:103E9000911DDF93CF931F930F93FF92EF92192FF2
:103EA000987F9695E92F96959695E90FFF27EF5401
:103EB000FD4F99273327EE24FF24A701E701059042
:103EC0000894079428F4360FE71EF81E491F511D69
:103ED000660F771F881F991F0694A1F70590079416
:103EE00028F4E70EF81E491F561FC11D770F881FC3
:103EF000991F661F0694A1F70590079428F4F80E01
:103F0000491F561FC71FD11D880F991F661F771F96
:103F10000694A1F70590079420F4490F561FC71F78
:103F2000D81F990F661F771F881F0694A9F78491E1
:103F30001095177041F0D695C79557954795F7940A
:103F4000E7941A95C1F7E7E5F2E0689415901591AA
:103F500035916591959105907FE27395E118F10A8D
:103F6000430B560BC90BD009C0F7E10CF11E431FE0
:103F7000561FC91FD01D7EF4703311F48A95E6CF09
:103F8000E894015030F0080F0AF40027021708F4F3
:103F9000202F2395022F7A3328F079E37D932A95F9
:103FA000E9F710C07D932A9589F606949795679551
:103FB000379517951794E118F10A430B560BC90B67
:103FC000D00998F023957E9173957A3308F070E3C9
:103FD0007C932013B8F77E9170617D9330F08395C8
:103FE00071E37D9370E32A95E1F71124EF90FF9040
:103FF0000F911F91CF91DF91992787FD909508959B
:04400000F894FFCF62
:1040040000000001000000000000F10100000000B9
:10401400000200000000C8010000000001010101CD
:104024000000012043414C4C200020535749544385
:10403400482000204348415247494E472020002051
:1040440044495343484152474520002049444C4584
:104054002020202020200042757362617220766F38
:104064006C74616765203D20002056200042757302
:104074006261722063757272656E74203D20002047
:1040840041200057696E64206361706163697479CB
:10409400203D2000536F6C6172206361706163691D
:1040A4007479203D2000546F74616C2052656E65F4
:1040B4007761626C65203D20004C6F616420312083
:1040C4003D20004C6F61642032203D20004C6F6124
:1040D400642033203D200042617474205374617461
:1040E4007573203A2000F000400100000000000039
:1040F400FFFF00000000013F00000000EF0000256A
:10410400270510093A784D05180D383A1F001F1A73
:10411400180A0F064587320A070207050000010046
:1041240000000A82270000000000000000000000D8
:104134000102020303030304040404040404040545
:10414400050505050505050505050505050505061A
:1041540006060606060606060606060606060606FB
:1041640006060606060606060606060606060607EA
:1041740007070707070707070707070707070707CB
:1041840007070707070707070707070707070707BB
:1041940007070707070707070707070707070707AB
:1041A400070707070707070707070707070707089A
:1041B400080808080808080808080808080808087B
:1041C400080808080808080808080808080808086B
:1041D400080808080808080808080808080808085B
:1041E400080808080808080808080808080808084B
:1041F400080808080808080808080808080808083B
:10420400080808080808080808080808080808082A
:10421400080808080808080808080808080808081A
:104224000808080808080808080808080808080012
:00000001FF
