:100000000C94A9010C94C6010C94C6010C94C60171
:100010000C94C6010C94C6010C94C6010C94C60144
:100020000C94C6010C94C6010C94C6010C94C60134
:100030000C94C6010C9410050C94C6010C94C601D6
:100040000C94C6010C94C6010C94C6010C94C60114
:100050000C94C6010C94C6010C94C6010C94C60104
:100060000C94C6010C94C6010C94C6010C94C601F4
:100070000C94C6010C94C6010C94C601000000004B
:100080000000005F00000003000300143E143E1453
:10009000242A7F2A124333086661364955225000CC
:1000A00005030000001C2241000041221C0014082E
:1000B0003E081408083E08080050300000080808F0
:1000C0000808006060000020100804023E51494505
:1000D0003E0004027F0042615149462241494936AF
:1000E0001814127F1027454545393E4949493201C8
:1000F000017109073649494936264949493E0036C2
:100100003600000056360000081422410014141472
:100110001414004122140802015109063E415955A8
:100120005E7E0909097E7F494949363E41414122A7
:100130007F4141413E7F494949417F090909013ECB
:100140004141493A7F0808087F00417F4100304023
:1001500040403F7F081422417F404040407F020CD6
:10016000027F7F0204087F3E4141413E7F09090929
:10017000061E2121215E7F09090976264949493257
:1001800001017F01013F4040403F1F2040201F7F71
:100190002010207F41221C2241070870080761516E
:1001A000494543007F41000002040810200000413F
:1001B0007F0004020102044040404040000102046C
:1001C0000020545454787F444444383844444444D0
:1001D000384444447F385454541804047E050508B8
:1001E0005454543C7F0804047800447D400020406F
:1001F000443D007F1028440000417F40007C04788B
:1002000004787C0804047838444444387C1414147A
:1002100008081414147C007C080404485454542026
:1002200004043F44443C4040207C1C2040201C3CB3
:100230004030403C44281028440C5050503C44640A
:10024000544C44000836414100007F0000414136D3
:100250000800020102040200407A10F35A00A07262
:100260004E18090010A5D4E80000E87648170000F1
:10027000E40B54020000CA9A3B000000E1F50500BF
:100280000080969800000040420F000000A0860108
:10029000000000102700000000E8030000000064D8
:1002A00000000000000A0000000000010000000043
:1002B000002C76D888DC674F0823DFC1DFAE59E118
:1002C000B1B796E5E3E453C63AE651997696E8E687
:1002D000C28426EB898C9B62ED407C6FFCEFBC9C5A
:1002E0009F40F2BAA56FA5F490055A2AF75C936B6C
:1002F0006CF9676DC11BFCE0E40D47FEF520E6B527
:1003000000D0ED902E0300943577050080841E0800
:100310000000204E0A000000C80C333333330F981E
:100320006E12831141EF8D2114893BE65516CFFEE5
:10033000E6DB18D1844B381BF77C1D901DA4BBE471
:1003400024203284725E228100C9F124ECA1E53DB3
:10035000270011241FBECFEFD0E1DEBFCDBF13E0D9
:10036000A0E0B1E0ECE7F3E402C005900D92A03606
:10037000B107D9F713E0A0E6B3E001C01D92AE3893
:10038000B107E1F70E942F020C94BC210C940000ED
:10039000DF93CF9300D00F92CDB7DEB789837B83F5
:1003A0006A8389818A3031F42A813B818DE0B901E9
:1003B0000E94C801E0ECF0E08081882F90E080721C
:1003C00090700097B9F3E6ECF0E089818083898131
:1003D000992787FD90950F900F900F90CF91DF9107
:1003E0000895DF93CF9300D0CDB7DEB79A8389838A
:1003F000E0ECF0E080818823DCF7E6ECF0E080813F
:10040000882F90E00F900F90CF91DF910895DF93A8
:10041000CF93CDB7DEB7E5ECF0E01082E4ECF0E08E
:100420008DE48083E1ECF0E088E18083E2ECF0E0B1
:1004300086E080838EE091E090938B0380938A0323
:100440008EE091E090938D0380938C0380E091E0A7
:100450009093890380938803CF91DF9108950F9340
:100460001F93DF93CF93CDB7DEB7C855D0400FB6FB
:10047000F894DEBF0FBECDBF0E9480160E94070217
:1004800083E090E09A83898389819A810E94F7139F
:100490000E9460150E9463050E946E050E943B0544
:1004A0000E94910578940E9421130E94DD0D2091F5
:1004B000640330916503409166035091670388E7B8
:1004C00090E0BA01A9010E947C122BAB3CAB4DAB72
:1004D0005EAB6FAB78AF89AF9AAFCE0103969CAF9E
:1004E0008BAFFE01F396FEAFEDAFF8E0FFAFEDADE1
:1004F000FEAD00808DAD9EAD01969EAF8DAFEBAD94
:10050000FCAD00828BAD9CAD01969CAF8BAF9FADD7
:1005100091509FAFEFADEE2351F780911E02909165
:100520001F02209168033091690340916A03509142
:100530006B03BA01A9010E947C122BAB3CAB4DAB03
:100540005EAB6FAB78AF89AF9AAFCE010B962296B8
:100550009FAF8EAF2297FE01F3962496FFAFEEAFCA
:100560002497F8E02596FFAF25972496EEADFFADD2
:100570002497008024968EAD9FAD249701962496F3
:100580009FAF8EAF24972296EEADFFAD22970082EB
:1005900022968EAD9FAD2297019622969FAF8EAF89
:1005A000229725969FAD2597915025969FAF259729
:1005B0002596EFAD2597EE23C1F680911E0290910E
:1005C0001F0220916C0330916D0340916E03509196
:1005D0006F03BA01A9010E947C122BAB3CAB4DAB5F
:1005E0005EAB6FAB78AF89AF9AAFCE0143962796DB
:1005F0009FAF8EAF2797FE01F3962996FFAFEEAF20
:100600002997F8E02A96FFAF2A972996EEADFFAD1D
:100610002997008029968EAD9FAD2997019629963E
:100620009FAF8EAF29972796EEADFFAD279700823B
:1006300027968EAD9FAD2797019627969FAF8EAFD9
:1006400027972A969FAD2A9791502A969FAF2A976F
:100650002A96EFAD2A97EE23C1F680911E02909163
:100660001F022091700330917103409172035091E9
:100670007303BA01A9010E947C122BAB3CAB4DABBA
:100680005EAB6FAB78AF89AF9AAFCE014B962C962D
:100690009FAF8EAF2C97FE01F3962E96FFAFEEAF75
:1006A0002E97F8E02F96FFAF2F972E96EEADFFAD69
:1006B0002E9700802E968EAD9FAD2E9701962E968A
:1006C0009FAF8EAF2E972C96EEADFFAD2C9700828C
:1006D0002C968EAD9FAD2C9701962C969FAF8EAF2A
:1006E0002C972F969FAD2F9791502F969FAF2F97B6
:1006F0002F96EFAD2F97EE23C1F680911E029091B9
:100700001F028C0180916C0390916D03A0916E0388
:10071000B0916F0320917003309171034091720387
:1007200050917303BC01CD010E948319DC01CB0100
:10073000BC01CD0120E030E040E050E40E94AA1A64
:10074000DC01CB019C01AD01C801BA01A9010E94E5
:100750007C122BAB3CAB4DAB5EAB6FAB78AF89AFD4
:100760009AAFCE01839661969FAF8EAF6197FE01DF
:10077000F3966396FFAFEEAF6397F8E06496FFAF32
:1007800064976396EEADFFAD6397008063968EAD80
:100790009FAD6397019663969FAF8EAF6397619607
:1007A000EEADFFAD6197008261968EAD9FAD619712
:1007B000019661969FAF8EAF619764969FAD6497E7
:1007C000915064969FAF64976496EFAD6497EE2363
:1007D000C1F680911E0290911F022091600330911A
:1007E00061034091620350916303BA01A9010E9421
:1007F0007C122BAB3CAB4DAB5EAB6FAB78AF89AF34
:100800009AAFCE018B9666969FAF8EAF6697FE012C
:10081000F3966896FFAFEEAF6897F8E06996FFAF82
:1008200069976896EEADFFAD6897008068968EADCB
:100830009FAD6897019668969FAF8EAF6897669652
:10084000EEADFFAD6697008266968EAD9FAD669762
:10085000019666969FAF8EAF669769969FAD699732
:10086000915069969FAF69976996EFAD6997EE23AE
:10087000C1F68FEF9FEF9093210280932002109298
:100880002302109222020E945007809174039091DB
:10089000750320917603692F422F0E94CA070E9498
:1008A0008D070E94AB0B8091640390916503A0912A
:1008B0006603B0916703BC01CD0123EF34E045EB43
:1008C0005FE30E94B019DC01CB019C01AD01CE01B8
:1008D0000396BA01A90128E730E00E94D311809164
:1008E000680390916903A0916A03B0916B03BC0106
:1008F000CD0123EF34E045EB5FE30E94B019DC014A
:10090000CB019C01AD0180911E0290911F02FC0160
:10091000CE010B96BA01A9019F010E94D31120912B
:100920006C0330916D0340916E0350916F03809181
:100930001E0290911F02FC01CE014396BA01A9014B
:100940009F010E94D3112091700330917103409157
:1009500072035091730380911E0290911F02FC015B
:10096000CE014B96BA01A9019F010E94D31180913B
:100970006C0390916D03A0916E03B0916F03209171
:100980007003309171034091720350917303BC0165
:10099000CD010E948319DC01CB01BC01CD0120E017
:1009A00030E040E050E40E94AA1ADC01CB019C0137
:1009B000AD0180911E0290911F02FC01CE01839631
:1009C000BA01A9019F010E94D31180916003909107
:1009D0006103A0916203B0916303BC01CD0120E0EB
:1009E00030E040E050E40E94AA1ADC01CB01BC01D7
:1009F000CD0123E333E343E550E40E94B019DC0169
:100A0000CB019C01AD0180911E0290911F02FC015F
:100A1000CE018B96BA01A9019F010E94D31133CF59
:100A20001F920F920FB60F9211248F939F93AF9343
:100A3000BF93DF93CF93CDB7DEB7809180039091C2
:100A40008103A0918203B09183030196A11DB11D82
:100A50008093800390938103A0938203B0938303D8
:100A6000CF91DF91BF91AF919F918F910F900FBE6A
:100A70000F901F901895DF93CF93CDB7DEB7A0E806
:100A8000B0E0E0E8F0E080818C93A1E8B0E0E1E83C
:100A9000F0E0808188608C93A1E8B0E0E1E8F0E0CC
:100AA000808182608C93E8E8F0E08CED95E09183A2
:100AB0008083AFE6B0E0EFE6F0E0808182608C9367
:100AC000CF91DF910895DF93CF93CDB7DEB7EAE7FB
:100AD000F0E086E88083CF91DF910895DF93CF9394
:100AE000CDB7DEB7A1E2B0E0E1E2F0E080818F783F
:100AF0008C93A2E2B0E0E2E2F0E080818F788C9308
:100B0000AAE2B0E0EAE2F0E0808180678C93ABE299
:100B1000B0E0EBE2F0E080818F788C93CF91DF91B1
:100B20000895DF93CF93CDB7DEB7AAE2B0E0EAE253
:100B3000F0E0808180688C93E0EBF0E083E88083D4
:100B4000E1EBF0E081E08083CF91DF910895DF93C6
:100B5000CF9300D000D00F92CDB7DEB78D8380E069
:100B600090E0A0E0B0E089839A83AB83BC83ECE79C
:100B7000F0E08D818083AAE7B0E0EAE7F0E08081D1
:100B800080648C93EAE7F0E08081882F90E08074A5
:100B900090700097B9F7E8E7F0E080819181CC018F
:100BA000A0E0B0E0BC01CD010E949A1CDC01CB01A9
:100BB000BC01CD0123E333E343E550E40E94B019C7
:100BC000DC01CB01BC01CD0120E030EC4FE754E467
:100BD0000E94AA1ADC01CB0189839A83AB83BC8370
:100BE00089819A81AB81BC81BC01CD010F900F90AE
:100BF0000F900F900F90CF91DF910895DF93CF93D7
:100C0000CDB7DEB72D970FB6F894DEBF0FBECDBFC0
:100C10008D878091800390918103A0918203B09190
:100C200083034496A11DB11D89879A87AB87BC8732
:100C300080E090E0A0E0B0E08D839E83AF83B88732
:100C400080E090E0A0E0B0E089839A83AB83BC832E
:100C50001DC08D850E94A705DC01CB018D839E837D
:100C6000AF83B8876D817E818F81988529813A8194
:100C70004B815C810E94861B181644F48D819E81F5
:100C8000AF81B88589839A83AB83BC83209180032D
:100C900030918103409182035091830389859A8525
:100CA000AB85BC85281739074A075B0790F2698135
:100CB0007A818B819C8123EF34E045EB5FE30E94D6
:100CC000AA1ADC01CB0189839A83AB83BC83898117
:100CD0009A81AB81BC81BC01CD012D960FB6F894F1
:100CE000DEBF0FBECDBFCF91DF910895DF93CF93CD
:100CF00000D0CDB7DEB7E0E2F0E08081882F90E051
:100D0000807190709A83898389819A81009721F0FC
:100D100081E08093740302C010927403E0E2F0E07B
:100D20008081882F90E0807290709A838983898176
:100D30009A81009721F081E08093750302C01092A0
:100D40007503E0E2F0E08081882F90E0807490707D
:100D50009A83898389819A81009721F081E0809329
:100D6000760302C0109276030F900F90CF91DF911F
:100D700008950F931F93DF93CF93CDB7DEB703EBA7
:100D800010E08091600390916103A0916203B091A3
:100D90006303BC01CD0123E333E343E550E40E9448
:100DA000AA1ADC01CB01BC01CD0120E030E04FE705
:100DB00053E40E94B019DC01CB01BC01CD010E94BB
:100DC000DA17DC01CB01F8018083CF91DF911F910D
:100DD0000F910895DF93CF93CDB7DEB7809177035E
:100DE000882341F0ABE2B0E0EBE2F0E0808180618B
:100DF0008C9307C0ABE2B0E0EBE2F0E080818F7E45
:100E00008C9380917803882341F0ABE2B0E0EBE271
:100E1000F0E0808180628C9307C0ABE2B0E0EBE24F
:100E2000F0E080818F7D8C9380917903882341F05D
:100E3000ABE2B0E0EBE2F0E0808180648C9307C02D
:100E4000ABE2B0E0EBE2F0E080818F7B8C938091AD
:100E50007A03882341F0ABE2B0E0EBE2F0E080817E
:100E600084608C9307C0ABE2B0E0EBE2F0E08081FD
:100E70008B7F8C9380917B03882341F0ABE2B0E0C1
:100E8000EBE2F0E0808188608C9307C0ABE2B0E0D9
:100E9000EBE2F0E08081877F8C93CF91DF91089522
:100EA000DF93CF93CDB7DEB780E00E94A705DC01CA
:100EB000CB0180936C0390936D03A0936E03B0936A
:100EC0006F0381E00E94A705DC01CB0180937003D2
:100ED00090937103A0937203B093730382E00E9416
:100EE000FE05DC01CB018093640390936503A0931E
:100EF0006603B093670383E00E94FE05DC01CB012B
:100F00008093680390936903A0936A03B0936B0383
:100F10000E947606CF91DF910895DF93CF93CDB7EE
:100F2000DEB70E94B9060E94EA06CF91DF910895CC
:100F3000DF93CF93CDB7DEB729970FB6F894DEBF16
:100F40000FBECDBF89834A835B836C837D83898198
:100F5000882349F08A819B81AC81BD818E839F83E8
:100F6000A887B98708C080E090E0A0E0B0E08E8359
:100F70009F83A887B9878E819F81A885B985BC0189
:100F8000CD0129960FB6F894DEBF0FBECDBFCF912D
:100F9000DF910895DF93CF93CDB7DEB7AA970FB651
:100FA000F894DEBF0FBECDBF8EA36FA348A780E02D
:100FB00090E0A0E0B0E08093600390936103A09381
:100FC0006203B093630310927A0310927B031DA215
:100FD0001CA280E090E0A0E0B0E48D8F9E8FAF8FE8
:100FE000B8A38EA14AE959E969E97FE30E9498070D
:100FF000DC01CB01898F9A8FAB8FBC8F8FA140E032
:1010000050E060E070E40E949807DC01CB018D8B1A
:101010009E8BAF8BB88F88A54DEC5CEC6CE47FE3C6
:101020000E949807DC01CB01898B9A8BAB8BBC8B20
:10103000698D7A8D8B8D9C8D2D893E894F89588D38
:101040000E948319DC01CB01BC01CD0129893A89B9
:101050004B895C890E948319DC01CB018D879E87B7
:10106000AF87B88B80916C0390916D03A0916E0354
:10107000B0916F032091700330917103409172031E
:1010800050917303BC01CD010E948319DC01CB0197
:1010900089879A87AB87BC8769857A858B859C858C
:1010A0002D853E854F8558890E94B61B88230CF4F8
:1010B0007BC069857A858B859C852D853E854F858E
:1010C00058890E945219DC01CB018D839E83AF8326
:1010D000B8876D817E818F81988520E030E040E87F
:1010E0005FE30E94B61B882364F081E080937A035B
:1010F00010927B0381E08BA381E08AA381E089A326
:101100008EC11AA66D817E818F81988520E030E0A6
:1011100040E85FE30E94E61B882314F481E08AA77D
:1011200081E09AA589278823A1F519A66D817E8182
:101130008F81988520E030E040E050E00E94861BDF
:10114000181614F481E089A781E099A589278823DE
:1011500001F560E070E080E89FE32D813E814F81E2
:1011600058850E945219DC01CB0180936003909353
:101170006103A0936203B093630381E080937A03D9
:1011800010927B0381E08BA381E08AA381E089A395
:1011900046C110927A0310927B0381E08BA381E019
:1011A0008AA381E089A33BC16D857E858F8598895F
:1011B00029853A854B855C850E945219DC01CB015B
:1011C00089839A83AB83BC836D8D7E8D8F8D98A12F
:1011D00020E030E040E85FE30E945219DC01CB01DF
:1011E000BC01CD0129813A814B815C810E94B61BF3
:1011F000882304F169817A818B819C8120E030E031
:1012000040E85FE30E948319DC01CB018093600317
:1012100090936103A0936203B093630381E0809392
:101220007A0310927B0381E08BA381E08AA381E0A3
:1012300089A3F5C069817A818B819C812D8D3E8D3A
:101240004F8D58A10E94161C1816BCF089819A81F6
:10125000AB81BC818093600390936103A093620390
:10126000B093630310927A0310927B0381E08BA307
:1012700081E08AA381E089A3D2C06D8D7E8D8F8DA0
:1012800098A120E030E040E85FE30E948319DC0190
:10129000CB01BC01CD0129813A814B815C810E9447
:1012A000B61B882304F169817A818B819C8120E0BF
:1012B00030E040E85FE30E945219DC01CB018093EB
:1012C000600390936103A0936203B0936303109251
:1012D0007A0381E080937B0381E08BA381E08AA382
:1012E00081E089A39CC069897A898B899C8920E0E7
:1012F00030E040E050E00E94561B882309F462C0B1
:1013000069857A858B859C852DEC3CEC4CE45EE30D
:101310000E94B61B88233CF18D8D9E8DAF8DB8A1A8
:101320008093600390936103A0936203B09363037F
:1013300081E080937B0310927A0381E08BA381E0AC
:101340008AA319A26D857E858F8598892DEC3CEC4A
:101350004CE45FE30E945219DC01CB018D879E872C
:10136000AF87B88B5CC060E070E080E090E42985D6
:101370003A854B855C850E945219DC01CB01809334
:10138000600390936103A0936203B093630381E0D1
:1013900080937B0310927A0381E08BA31AA281E0F1
:1013A00089A36D857E858F85988920E030E040E0B7
:1013B00050E40E945219DC01CB018D879E87AF87D4
:1013C000B88B2DC06D897E898F89988D29853A8546
:1013D0004B855C850E945219DC01CB018093600330
:1013E00090936103A0936203B093630310927A0316
:1013F00010927B0381E08BA31AA281E089A36D8503
:101400007E858F85988920E030E040E050E40E949E
:101410005219DC01CB018D879E87AF87B88B8BA1DA
:1014200091E08927882351F48091740391E0892702
:10143000882321F481E08093770302C01092770320
:101440008AA191E08927882351F48091750391E066
:101450008927882321F481E08093780302C01092C9
:10146000780389A191E08927882351F4809176033C
:1014700091E08927882321F481E08093790302C0D9
:10148000109279038091640390916503A0916603A3
:10149000B0916703BC01CD012BE93CE642EF52E479
:1014A0000E94B019DC01CB01BC01CD012D853E8528
:1014B0004F8558890E94B019DC01CB01BC01CD01D8
:1014C00020E030E04AE754E40E94AA1ADC01CB0194
:1014D00080937C0390937D03A0937E03B0937F035E
:1014E000AA960FB6F894DEBF0FBECDBFCF91DF91A5
:1014F0000895CF92DF92EF92FF920F931F93DF93A5
:10150000CF93CDB7DEB768970FB6F894DEBF0FBEA6
:10151000CDBF9C878B877E876D87588B4F87098BC4
:101520001A8B2B8B3C8BFE8AED8AD88ECF8A8FEF5D
:101530009FEF90932102809320028B859C8590934E
:101540001D0280931C028D859E8590931F028093BF
:101550001E0289899A89AB89BC892F89388DBC0183
:10156000CD0144E050E0FE0131968F010E94611FE1
:101570008F8598890E946D16CE0101960E946D1686
:101580008D899E890E946D1680911E0290911F0286
:10159000449690931F0280931E0268960FB6F894AB
:1015A000DEBF0FBECDBFCF91DF911F910F91FF9096
:1015B000EF90DF90CF900895DF93CF9300D00F92FC
:1015C000CDB7DEB789838981882329F080EE97E043
:1015D0009B838A8304C080E098EF9B838A838A81FF
:1015E0009B810F900F900F90CF91DF9108950F93F3
:1015F000DF93CF93CDB7DEB728970FB6F894DEBF51
:101600000FBECDBF9A8389837C836B835E834D83BA
:101610002F83088789819A8190931D0280931C02F1
:101620008B819C8190931F0280931E028D819E81ED
:101630000E946D168F810E94DC0A90932102809394
:1016400020028EE191E00E946D1688850E94DC0ADE
:10165000909321028093200285E291E00E946D1612
:101660008FEF9FEF909321028093200280911E02C2
:1016700090911F02449690931F0280931E02289619
:101680000FB6F894DEBF0FBECDBFCF91DF910F91A3
:1016900008950F93DF93CF93CDB7DEB728970FB69A
:1016A000F894DEBF0FBECDBF9A8389837C836B83A2
:1016B0005E834D832F83088789819A8190931D02D1
:1016C00080931C028B819C8190931F0280931E0249
:1016D0008D819E810E946D1689819A8190931D0251
:1016E00080931C0280911E0290911F020A96909393
:1016F0001F0280931E028F81882359F080EE97E0AD
:1017000090932102809320028EE291E00E946D1658
:1017100012C08885882359F080E098EF90932102C9
:10172000809320028AE391E00E946D1604C086E453
:1017300091E00E946D168FEF9FEF909321028093AE
:10174000200228960FB6F894DEBF0FBECDBFCF9112
:10175000DF910F910895CF92DF92EF92FF920F9356
:101760001F93DF93CF93CDB7DEB78AE090E09093DD
:101770001D0280931C028AE090E090931F028093E8
:101780001E028091800390918103A0918203B09109
:10179000830320E63AEE40E050E0BC01CD010E9418
:1017A000081FDA01C901BC01CD010E949A1C8B01FE
:1017B0009C0142E551E0EDE5F1E086E990E065E06D
:1017C00070E07F01CC24DD240E94790A80911C0204
:1017D00090911D027C018091800390918103A091E2
:1017E0008203B091830328EE33E040E050E0BC0177
:1017F000CD010E94081FDA01C9012CE330E040E06E
:1018000050E0BC01CD010E94081FDC01CB01BC01EE
:10181000CD010E949A1C8B019C0141E651E0E2E659
:10182000F1E0C70165E070E07F01CC24DD240E9477
:10183000790A8091640390916503A0916603B09149
:101840006703BC01CD012BE93CE642EF52E40E9464
:10185000B019DC01CB018C019D0148E651E0EAE7BB
:10186000F1E08AE090E06EE670E07F01CC24DD24B8
:101870006894C1F80E94790A80911E0290911F021B
:101880007C018091680390916903A0916A03B091F3
:101890006B03BC01CD012CE730EF41E450E40E9422
:1018A000B019DC01CB018C019D014EE751E0E0E96C
:1018B000F1E08AE090E0B7017F01CC24DD24689458
:1018C000C1F80E94790A80911E0290911F027C014A
:1018D00080916C0390916D03A0916E03B0916F03A2
:1018E000BC01CD0123E333E343E550E40E94AA1A8F
:1018F000DC01CB01BC01CD0120E030E040EA50E446
:101900000E94B019DC01CB018C019D0144E951E03A
:10191000E0E9F1E08AE090E0B7017F01CC24DD242A
:101920006894C1F80E94790A80911E0290911F026A
:101930007C018091700390917103A0917203B0912A
:101940007303BC01CD0123E333E343E550E40E947C
:10195000AA1ADC01CB01BC01CD0120E030E040EA55
:1019600050E40E94B019DC01CB018C019D0145EAD5
:1019700051E0E0E9F1E08AE090E0B7017F01CC249A
:10198000DD246894C1F80E94790A80911E0290912A
:101990001F027C0180916C0390916D03A0916E03F6
:1019A000B0916F03209170033091710340917203E5
:1019B00050917303BC01CD010E948319DC01CB015E
:1019C000BC01CD0123E333E343E550E40E94AA1AAE
:1019D000DC01CB01BC01CD0120E030E040EA50E465
:1019E0000E94B019DC01CB018C019D0147EB51E055
:1019F000E0E9F1E08AE090E0B7017F01CC24DD244A
:101A00006894C1F80E94790A80911E0290911F0289
:101A1000BC01009160031091610320916203309139
:101A200063034AEC51E0E0E9F1E08AE090E07F01F5
:101A3000CC24DD246894C1F80E94790AE0917403F3
:101A4000F09177032AED31E08FEA90E06EE670E0E6
:101A5000A9012E2F0F2F0E94F70A80911E0290914C
:101A60001F02AC01E0917503F091780324EE31E0A0
:101A70008FEA90E0BA01A9012E2F0F2F0E94F70ADA
:101A800080911E0290911F02AC01E0917603F091CB
:101A900079032EEE31E08FEA90E0BA01A9012E2FF2
:101AA0000F2F0E94F70A80911E0290911F02AC0135
:101AB000E0917A03F0917B0328EF31E08FEA90E028
:101AC000BA01A9012E2F0F2F0E94490B80911E02EF
:101AD00090911F02449690931F0280931E02809162
:101AE0001E0290911F02BC0100917C0310917D03A6
:101AF00020917E0330917F0347E052E0E0E1F2E085
:101B00008FEA90E07F01CC24DD246894C1F80E9424
:101B1000790ACF91DF911F910F91FF90EF90DF90A5
:101B2000CF9008950F931F93DF93CF9300D000D0F1
:101B3000CDB7DEB79A8389837C836B8380911E0245
:101B400090911F02E981FA819583848380911C0220
:101B500090911D02E981FA8191838083E981FA8164
:101B6000248135818B819C81820F931FE981FA81C9
:101B700097838683E981FA81208131818B819C81E1
:101B8000820F931FE981FA8193838283E981FA812D
:101B90002081318142815381648175818681978161
:101BA0000FEF1FEF0E947B140F900F900F900F907C
:101BB000CF91DF911F910F910895DF93CF93CDB710
:101BC000DEB760970FB6F894DEBF0FBECDBF1886A4
:101BD0001F828AE090E09E838D838AE090E09C8360
:101BE0008B8385E090E09A8389838D819E81909399
:101BF0001F0280931E028B819C8190931D02809313
:101C00001C02CE01099629813A81B9010E94920DE8
:101C100018861F8218C020911C0230911D028981F4
:101C20009A81820F931F90931D0280931C02CE0114
:101C3000099629813A81B9010E94920D8F81988578
:101C4000019698878F838F819885823091051CF348
:101C500020911C0230911D0289819A81A901481BA3
:101C6000590BCA0190931D0280931C0281E090E001
:101C700098878F8318C020911E0230911F0289819E
:101C80009A81820F931F90931F0280931E02CE01B0
:101C9000099629813A81B9010E94920D8F81988518
:101CA000019698878F838F819885853091051CF3E5
:101CB0002D813E8189819A81A901481B590BCA0156
:101CC00090931F0280931E0240911C0250911D02AE
:101CD00029813A81C901880F991F820F931F840FB0
:101CE000951F90931D0280931C0218861F8218C0B6
:101CF00020911E0230911F0289819A81820F931FC9
:101D000090931F0280931E02CE01099629813A8189
:101D1000B9010E94920D8F819885019698878F83D3
:101D20008F819885853091051CF318861F8218C015
:101D300020911C0230911D0289819A81820F931F8C
:101D400090931D0280931C02CE01099629813A814D
:101D5000B9010E94920D8F819885019698878F8393
:101D60008F819885823091051CF320911E0230915D
:101D70001F0289819A81880F991F909581959F4FA5
:101D8000820F931F90931F0280931E0220911C02CA
:101D900030911D0289819A81A901481B590BCA0102
:101DA00090931D0280931C02CE01099629813A81ED
:101DB000B9010E94920D20911E0230911F0289816B
:101DC0009A81880F991F909581959F4F820F931F3D
:101DD00090931F0280931E02CE01099629813A81B9
:101DE000B9010E94920D18861F8218C020911C0212
:101DF00030911D0289819A81820F931F90931D0259
:101E000080931C02CE01099629813A81B9010E9472
:101E1000920D8F819885019698878F838F81988501
:101E2000181619061CF78D819E8190931F028093CE
:101E30001E0220911C0230911D0289819A81880F17
:101E4000991F820F931F90931D0280931C02188686
:101E50001F8218C020911E0230911F0289819A8131
:101E6000820F931F90931F0280931E02CE0109964A
:101E700029813A81B9010E94920D8F81988501963E
:101E800098878F838F819885843091051CF38D818D
:101E90009E8190931F0280931E0218861F8218C095
:101EA00020911C0230911D0289819A81820F931F1B
:101EB00090931D0280931C02CE01099629813A81DC
:101EC000B9010E94920D8F819885019698878F8322
:101ED0008F819885823091051CF320911E023091EC
:101EE0001F0289819A81880F991F820F931F9093F7
:101EF0001F0280931E0220911C0230911D028981D5
:101F00009A81820F931F90931D0280931C02188662
:101F10001F821AC020911C0230911D0289819A8172
:101F2000A901481B590BCA0190931D0280931C0202
:101F3000CE01099629813A81B9010E94920D8F81C3
:101F40009885019698878F838F8198858230910537
:101F50000CF38D819E8190931F0280931E0220912D
:101F60001C0230911D0289819A81880F991F820F6E
:101F7000931F90931D0280931C0218861F8218C025
:101F800020911E0230911F0289819A81820F931F36
:101F900090931F0280931E02CE01099629813A81F7
:101FA000B9010E94920D8F819885019698878F8341
:101FB0008F819885843091051CF32D813E81898124
:101FC0009A81A901481B590BCA0190931F02809363
:101FD0001E0220911C0230911D0289819A81880F76
:101FE000991F820F931F90931D0280931C021886E5
:101FF0001F8218C020911E0230911F0289819A8190
:10200000820F931F90931F0280931E02CE010996A8
:1020100029813A81B9010E94920D8F81988501969C
:1020200098878F838F819885853091051CF3409127
:102030001E0250911F0229813A81C901880F991F00
:10204000820F931F909581959F4F840F951F9093BA
:102050001F0280931E0220911C0230911D02898173
:102060009A81820F931F90931D0280931C02CE01D0
:10207000099629813A81B9010E94920D20911E0290
:1020800030911F0289819A81820F931F90931F02C2
:1020900080931E0220911C0230911D0289819A8139
:1020A000820F931F90931D0280931C02CE0109960C
:1020B00029813A81B9010E94920D20911E0230912E
:1020C0001F0289819A81A901481B590BCA0190936B
:1020D0001F0280931E0220911C0230911D028981F3
:1020E0009A81820F931F90931D0280931C02CE0150
:1020F000099629813A81B9010E94920D2D813E8174
:1021000089819A81A901481B590BCA0190931F022A
:1021100080931E0220911C0230911D0289819A81B8
:10212000820F931F90931D0280931C0218861F82BA
:1021300018C020911E0230911F0289819A81820F5E
:10214000931F90931F0280931E02CE01099629814E
:102150003A81B9010E94920D8F81988501969887E6
:102160008F838F819885853091051CF32D813E8169
:1021700089819A81A901481B590BCA0190931F02BA
:1021800080931E0220911C0230911D0289819A8148
:10219000880F991F820F931F90931D0280931C023A
:1021A00018861F8218C020911E0230911F0289815B
:1021B0009A81820F931F90931F0280931E02CE017B
:1021C000099629813A81B9010E94920D8F819885E3
:1021D000019698878F838F819885853091051CF3B0
:1021E00018861F8218C020911C0230911D0289811F
:1021F0009A81820F931F90931D0280931C02CE013F
:10220000099629813A81B9010E94920D8F819885A2
:10221000019698878F838F819885823091051CF372
:1022200020911E0230911F0289819A81880F991F87
:10223000909581959F4F820F931F90931F028093DB
:102240001E0220911C0230911D0289819A81820F09
:10225000931F90931D0280931C0218861F821AC040
:1022600020911C0230911D0289819A81A901481B8D
:10227000590BCA0190931D0280931C02CE0109964E
:1022800029813A81B9010E94920D8F81988501962A
:1022900098878F838F819885823091050CF32091E8
:1022A0001E0230911F0289819A81880F991F909593
:1022B00081959F4F820F931F90931F0280931E0260
:1022C00020911C0230911D0289819A81A901481B2D
:1022D000590BCA0190931D0280931C0218861F821D
:1022E00018C020911C0230911D0289819A81820FB1
:1022F000931F90931D0280931C02CE0109962981A1
:102300003A81B9010E94920D8F8198850196988734
:102310008F838F819885823091051CF320911C0258
:1023200030911D0289819A81820F931F90931D0223
:1023300080931C0220911E0230911F0289819A8194
:10234000A901481B590BCA0190931F0280931E02DA
:1023500018861F821AC020911E0230911F028981A7
:102360009A81880F991F820F931F90931F02809369
:102370001E02CE01099629813A81B9010E94920D6F
:102380008F819885019698878F838F819885823079
:1023900091050CF360960FB6F894DEBF0FBECDBF6B
:1023A000CF91DF9108950F931F93DF93CF93CDB714
:1023B000DEB72E970FB6F894DEBF0FBECDBF98875D
:1023C0008F8349875A876B877C873E872D878FEF5E
:1023D0009FEF9E838D8380E090E0A0E0B0E0898352
:1023E0009A83AB83BC838D859E8590931F028093D7
:1023F0001E02EF81F8852081318142815381648101
:1024000075818681978100E010E00E947B146985C8
:102410007A858B859C8523E333E343E550E40E9472
:10242000AA1ADC01CB01BC01CD0120E030E04AE07A
:1024300053E40E94B019DC01CB0189839A83AB83FA
:10244000BC8369817A818B819C8120E030E040E40B
:1024500051E40E948319DC01CB01BC01CD010E9433
:10246000DA17DC01CB01EF81F885938382838D85B8
:102470009E85EF81F885958384838D859E85019661
:10248000EF81F8859783868369817A818B819C812E
:1024900020E030E044E552E40E94E61B88232CF45F
:1024A00080E098EF9E838D8304C080EE97E09E834A
:1024B0008D8380911E0290911F02449690931F027B
:1024C00080931E02AD81BE81EF81F885208131812C
:1024D0004281538164817581868197818D010E943B
:1024E0007B142E960FB6F894DEBF0FBECDBFCF91F2
:1024F000DF911F910F910895AF92BF92CF92DF921B
:10250000EF92FF920F931F93DF93CF93CDB7DEB778
:10251000A3970FB6F894DEBF0FBECDBF9A8B898B01
:102520004B8B5C8B6D8B7E8B8AE090E09A878987E2
:102530006B897C898D899E8920E030E04AE053E4F4
:102540000E94B019DC01CB01BC01CD0120E030E0DC
:1025500040E451E40E948319DC01CB01BC01CD01B0
:102560000E94DA17DC01CB019C878B8789899A89C5
:102570009E878D8789899A890196988B8F8780910C
:102580001E0290911F02449690931F0280931E0298
:10259000CE010196988F8F8BFE013996FA8FE98FC5
:1025A000F8E0FB8FE98DFA8D0080898D9A8D019678
:1025B0009A8F898FEF89F88D00828F89988D019687
:1025C000988F8F8B9B8D91509B8FEB8DEE2351F7C6
:1025D00070E0798180E08A8190E09B8120E02C810D
:1025E00030E03D8140E04E8150E05F8160E06885F1
:1025F0007C8F8D8F9E8F2F8F38A349A35AA36BA3F7
:10260000AC8CBD8CCE8CDF8CE8A0F9A00AA11BA1FC
:102610002A2D3B2D4C2D5D2D6E2D7F2D802F912F42
:10262000A3960FB6F894DEBF0FBECDBFCF91DF915A
:102630001F910F91FF90EF90DF90CF90BF90AF90E0
:1026400008950F931F93DF93CF93CDB7DEB72897ED
:102650000FB6F894DEBF0FBECDBF84E690E09E8338
:102660008D838D819E81019698878F8385E090E090
:102670009A8389838BE391E09C838B8329813A81C0
:102680004B815C816D817E818F81988504E115EAA3
:102690000E947B1489EE90E09E838D838D819E81C4
:1026A000029698878F8385E090E09A8389838BE3F5
:1026B00091E09C838B8329813A814B815C816D8180
:1026C0007E818F81988504E115EA0E947B1484E65F
:1026D00090E09E838D838BEE90E098878F8388EACD
:1026E00090E09A83898389819A8102969C838B8367
:1026F00029813A814B815C816D817E818F819885B2
:1027000004E115EA0E947B1484E690E09E838D83A9
:102710008BEE90E098878F8385E090E09A838983A1
:1027200089819A8102969C838B8329813A814B818E
:102730005C816D817E818F81988504E115EA0E941C
:102740007B1484E690E09E838D838BEE90E09887E7
:102750008F8389E391E09A83898389819A810296A4
:102760009C838B8329813A814B815C816D817E8141
:102770008F81988504E115EA0E947B1428960FB694
:10278000F894DEBF0FBECDBFCF91DF911F910F91A7
:102790000895DF93CF9300D000D0CDB7DEB78091FE
:1027A000800390918103A0918203B09183038C50A8
:1027B0009E4FAF4FBF4F89839A83AB83BC832091D9
:1027C000800330918103409182035091830389817A
:1027D0009A81AB81BC8182179307A407B50779F76B
:1027E0000F900F900F900F90CF91DF9108959C0163
:1027F00090931B0280931A022C9886E388B92B9839
:102800002B9A2C9A2115310571F480EF90E090936A
:1028100017028093160280E491E09093190280934E
:10282000180288E432C02130310571F480E491E06F
:10283000909317028093160280EF90E09093190214
:102840008093180288EE21C02230310571F480EFA8
:1028500090E0909317028093160280E491E09093A9
:1028600019028093180288E810C02330310581F4E2
:1028700080E491E0909317028093160280EF90E03D
:10288000909319028093180288E288B92B982B9AAA
:102890002C988AE288B92B982B9A2C9A18B82B98E6
:1028A0002B9A18B82B982B9A8091160290911702A8
:1028B000019798B901962B982B9A815088B92B983B
:1028C0002B9A2C988BE288B92B982B9A2C9A18B8B3
:1028D0002B982B9A18B82B982B9A809118029091CC
:1028E0001902019798B901962B982B9A815088B9B3
:1028F0002B982B9A0895EF92FF920F931F93DF93DB
:10290000CF93CDB7DEB728970FB6F894DEBF0FBED2
:10291000CDBFF22F2983E32F3A834B835C83362F7D
:102920006D83272F7E838F8398877801AB81BC814D
:10293000062F172F6F8178852C988AE288B92B98FB
:102940002B9A2C9AE8B92B982B9AF8B92B982B9A9A
:10295000B8B92B982B9AA8B92B982B9A2C988BE264
:1029600088B92B982B9A2C9A28B92B982B9A38B97E
:102970002B982B9A78B92B982B9A68B92B982B9A6D
:102980002C988CE288B92B982B9A2C9A2F2F3E2FBB
:10299000C901AC010DC0F8B82B982B9AE8B82B9858
:1029A0002B9A2F5F3F4F62177307A8F74F5F5F4F58
:1029B000A417B50710F09801F6CF28960FB6F89433
:1029C000DEBF0FBECDBFCF91DF911F910F91FF9062
:1029D000EF900895EF92FF920F931F93DF93CF93A1
:1029E000CDB7DEB728970FB6F894DEBF0FBECDBFC8
:1029F000F22F2983E32F3A834B835C83362F6D8339
:102A0000272F7E838F839887D8010B811C81E62E28
:102A1000F72E6F8178852C988AE288B92B982B9AAB
:102A20002C9AE8B92B982B9AF8B92B982B9A18B9AD
:102A30002B982B9A08B92B982B9A2C988BE288B953
:102A40002B982B9A2C9A28B92B982B9A38B92B981B
:102A50002B9A78B92B982B9A68B92B982B9A2C988B
:102A60008CE288B92B982B9A2C9A2F2F3E2FC901D4
:102A7000AC0114C011968C91119788B92B982B9AA0
:102A800012968C91129788B914962B982B9A2F5FD7
:102A90003F4F6217730770F74F5F5F4F04171507BB
:102AA00010F09701F6CF28960FB6F894DEBF0FBE50
:102AB000CDBFCF91DF911F910F91FF90EF900895BF
:102AC0000F931F93DF93CF93CDB7DEB728970FB641
:102AD000F894DEBF0FBECDBF10921D0210921C02F3
:102AE00010921F0210921E022091160230911702BE
:102AF00021503040809118029091190201971A825A
:102B00001982422F3C832B831E821D8298878F83DC
:102B1000009122021091230229813A815C816D810A
:102B20007E8198850E947B1428960FB6F894DEBFAC
:102B30000FBECDBFCF91DF911F910F9108956F927E
:102B40007F928F929F92AF92BF92CF92DF92EF923D
:102B5000FF920F931F93CF93DF93982F00911C0246
:102B600010911D0224E0E22EF12CE00EF11E609087
:102B70001E0270901F0280528F3508F09FC0E30143
:102B8000279685E0989F90011124245230402C987C
:102B90008BE288B92B982B9A2C9A78B82B982B9A81
:102BA00068B82B982B9AD8B92B982B9AC8B92B9820
:102BB0002B9AC0902002D0902102A0902202B090C7
:102BC0002302A8019AE2892E8CE2982E36C02C9816
:102BD00088B82B982B9A2C9A58B92B982B9A48B9CD
:102BE0002B982B9A58B92B982B9A48B92B982B9A3B
:102BF0002C9898B82B982B9A2C9AF901B491B30180
:102C000091E014C0A92FAB2311F48B2D01C08D2DA1
:102C100088B92B982B9AAA2311F48A2D01C08C2DE8
:102C200088B92B982B9A6F5F7F4F990FC617D707DC
:102C300048F72F5F3F4F4F5F5F4FE416F50638F6BA
:102C40002C988AE288B92B982B9A2C9A58B92B98F1
:102C50002B9A48B92B982B9A58B92B982B9A48B98C
:102C60002B982B9A2C988CE288B92B982B9A2C9A1B
:102C7000C30107C0B8B82B982B9AA8B82B982B9AE9
:102C80000196C817D907B0F798012A5F3F4F3093D4
:102C90001D0220931C0280911602909117022817A2
:102CA000390760F010921D0210921C0288E090E03B
:102CB000680E791E70921F0260921E02DF91CF9102
:102CC0001F910F91FF90EF90DF90CF90BF90AF904A
:102CD0009F908F907F906F9008951F93CF93DF9375
:102CE000EC0110E003C00E949F151F5FFE01E10F81
:102CF000F11D80818823B9F7DF91CF911F9108954D
:102D000085B7806885BF85B7806885BF8FE784B940
:102D10008FEF87B90E948D1608952A9888EE93E068
:102D20002CE231E0F9013197F1F70197D9F72A9AAE
:102D300088EE93E02CE231E0F9013197F1F7019749
:102D4000D9F72C9A2B9A2D9A289829982E9A2C9854
:102D500088E288B92B982B9A2C9A2C9881E188B913
:102D60002B982B9A2C9A88E592E02CE231E0F9011D
:102D70003197F1F70197D9F72C988BEC88B92B98FC
:102D80002B9A2C9A81E088B92B982B9A2C9880EC5E
:102D900088B92B982B9A2C9A86E288B92B982B9A73
:102DA00088E088B92B982B9A2C9881EC88B92B98BD
:102DB0002B9A2C9A80E188B92B982B9A2C9885EC29
:102DC00088B92B982B9A2C9A85E388B92B982B9A43
:102DD0008EE388B92B982B9A2C9886E388B92B9888
:102DE0002B9A2C9A88E488B92B982B9A2C9880EBF4
:102DF00088B92B982B9A2C9A8AE488B92B982B9A0D
:102E00002C9881EB88B92B982B9A2C9A18B82B9870
:102E10002B9A8BE188B92B982B9A2C9886EB88B942
:102E20002B982B9A2C9AE2E5F2E0819188B92B98A5
:102E30002B9A42E0E635F407C1F72C9887EC88B965
:102E40002B982B9A2C9A85EB88B92B982B9A2C9837
:102E500086EF88B92B982B9A2C9AEEE4F2E08191B8
:102E600088B92B982B9A82E0E135F807C1F72C98A6
:102E700082EF88B92B982B9A2C9A18B82B982B9AFA
:102E80002C9886E288B92B982B9A2C9A81E088B9E5
:102E90002B982B9A2C988AE388B92B982B9A2C9AEA
:102EA00085E588B92B982B9A2C9880EE88B92B98B9
:102EB0002B9A2C9AEEE3F2E0819188B92B982B9A09
:102EC00042E0ED34F407C1F72C9881EE88B92B98D5
:102ED0002B9A2C9AEEE2F2E0819188B92B982B9AEA
:102EE00082E0ED33F807C1F72C988AE288B92B9875
:102EF0002B9A2C9AE9E2F2E0819188B92B982B9ACF
:102F000042E0ED32F407C1F72C988BE288B92B9898
:102F10002B9A2C9AE4E2F2E0819188B92B982B9AB3
:102F200082E0E832F807C1F72C9884E388B92B983F
:102F30002B9A2C9A2C9884EB88B92B982B9A2C9A44
:102F400018B82B982B9A2C9887EB88B92B982B9A2A
:102F50002C9A87E088B92B982B9A2C988CE288B908
:102F60002B982B9A2C9A20E030E010C018B82B98A0
:102F70002B9A18B82B982B9A019641E0803494072D
:102F8000A9F72F5F3F4F203F310519F080E090E017
:102F9000EDCF2C9889E288B92B982B9A2C9A84EF44
:102FA00091E02CE231E0F9013197F1F70197D9F77F
:102FB000299A0895EF92FF920F931F937B018C0142
:102FC00020E030E040E05FE40E94B61B88238CF0F4
:102FD000C801B70120E030E040E05FE40E945219F0
:102FE0000E94461C9B01AC0120503040404050489C
:102FF00006C0C801B7010E94461C9B01AC01B90183
:10300000CA011F910F91FF90EF900895A0E0B0E0EA
:10301000ECE0F8E10C942A1FDC012B01FA019C91F1
:10302000923008F439C1EB018881823008F433C151
:10303000943069F4843009F02FC111969C91119756
:103040008981981709F428C1A7E5B2E025C1843029
:1030500009F421C18230A9F4923009F01DC19A010E
:10306000AD0188E0EA010990AE01E90109929E01F3
:103070008150C1F7E201898111969C918923818356
:1030800008C1923009F407C112962D903C90139715
:10309000EB018A819B811496AD90BD90CD90DC9020
:1030A0001797EC80FD800E811F819101281B390B41
:1030B000B90137FF04C066277727621B730B6032A4
:1030C00071050CF061C0121613066CF5370148014A
:1030D000062E04C096948794779467940A94D2F746
:1030E00021E030E040E050E004C0220F331F441FD5
:1030F000551F6A95D2F721503040404050402E2154
:103100003F2140235123211531054105510521F06F
:1031100021E030E040E050E079018A01E628F7281C
:10312000082919293CC0232BD1F1260E371E350161
:103130004601062E04C096948794779467940A9467
:10314000D2F721E030E040E050E004C0220F331F0E
:10315000441F551F6A95D2F72150304040405040DF
:103160002A213B214C215D212115310541055105C5
:1031700021F021E030E040E050E059016A01A6284A
:10318000B728C828D9280BC0821593052CF01C013C
:10319000AA24BB24650103C0EE24FF2487011196F5
:1031A0009C91D20111968C91981709F445C09923EE
:1031B00039F0A80197012A193B094C095D0906C09D
:1031C000A60195012E193F09400B510B57FD08C070
:1031D00011823382228224833583468357831DC024
:1031E00081E081833382228288279927DC01821B38
:1031F000930BA40BB50B84839583A683B7830DC073
:10320000220F331F441F551F248335834683578362
:1032100082819381019793838283248135814681C2
:103220005781DA01C9010197A109B1098F5F9F4F49
:10323000AF4FBF4328F30BC0918333822282EA0C45
:10324000FB1C0C1D1D1DE482F5820683178383E0A1
:103250008083248135814681578157FF1AC0C90177
:10326000AA2797FDA095BA2F81709070A070B070BA
:103270005695479537952795822B932BA42BB52BE5
:1032800084839583A683B7838281938101969383F8
:103290008283DF0101C0D201CD01CDB7DEB7E2E10B
:1032A0000C94461FA0E2B0E0E8E5F9E10C94361F6B
:1032B00069837A838B839C832D833E834F835887D6
:1032C000E9E0EE2EF12CEC0EFD1ECE010196B701C9
:1032D0000E94371E8E010F5E1F4FCE010596B8016A
:1032E0000E94371E8A8991E089278A8BC701B8011D
:1032F000AE01475E5F4F0E9406180E94621DA096B5
:10330000E6E00C94521FA0E2B0E0E9E8F9E10C9489
:10331000361F69837A838B839C832D833E834F83FF
:103320005887F9E0EF2EF12CEC0EFD1ECE01019630
:10333000B7010E94371E8E010F5E1F4FCE0105960A
:10334000B8010E94371EC701B801AE01475E5F4F4A
:103350000E9406180E94621DA096E6E00C94521F7F
:10336000A0E2B0E0E6EBF9E10C942A1F69837A83CE
:103370008B839C832D833E834F835887CE01019698
:10338000BE01675F7F4F0E94371ECE010596BE01CA
:103390006F5E7F4F0E94371E9985923088F0898931
:1033A0008230C8F0943019F4823051F404C0843073
:1033B00029F4923081F487E592E0C6C0923049F456
:1033C00020E09A858A89981321E02A87CE01099600
:1033D000BBC0823049F420E09A858A89981321E0A5
:1033E0002A8BCE014196B0C02D843E844F845888EC
:1033F0006D887E888F88988CEE24FF248701AA240C
:10340000BB24650140E050E060E070E0E0E0F0E007
:10341000C10181709070892BE9F0E60CF71C081D42
:10342000191D9A01AB012A0D3B1D4C1D5D1D80E04D
:1034300090E0A0E0B0E0E614F7040805190520F4D8
:1034400081E090E0A0E0B0E0BA01A901480F591F67
:103450006A1F7B1FAA0CBB1CCC1CDD1C97FE08C07E
:1034600081E090E0A0E0B0E0A82AB92ACA2ADB2ACD
:103470003196E032F10549F0660C771C881C991CE6
:103480005694479437942794C3CFFA85EA892B89B9
:103490003C898B859C85280F391F2E5F3F4F17C0B5
:1034A000CA0181709070892B61F016950795F79489
:1034B000E79480E090E0A0E0B0E8E82AF92A0A2B3F
:1034C0001B2B76956795579547952F5F3F4F77FD57
:1034D000E7CF0CC0440F551F661F771F17FD4160D3
:1034E000EE0CFF1C001F111F21503040403090E0B7
:1034F000590790E0690790E4790760F32B8F3C8FC0
:10350000DB01CA018F779070A070B0708034910594
:10351000A105B10561F447FD0AC0E114F1040105FC
:10352000110529F0405C5F4F6F4F7F4F40781A8E36
:10353000FE1711F081E08A8F4D8F5E8F6F8F78A319
:1035400083E0898FCE0149960E94621DA096E2E138
:103550000C94461FA8E1B0E0E0EBFAE10C94321FB6
:1035600069837A838B839C832D833E834F83588723
:10357000B9E0EB2EF12CEC0EFD1ECE010196B70149
:103580000E94371E8E010F5E1F4FCE010596B801B7
:103590000E94371E2985223008F47EC039893230D6
:1035A00010F4B8017CC08A859A8989278A872430DB
:1035B00011F0223031F4231709F06EC067E572E094
:1035C0006EC0343039F41D861E861F86188A1C860C
:1035D0001B8604C0323021F484E08987B7015FC0C4
:1035E0002B853C858B899C89281B390B3C872B8735
:1035F000ED84FE840F851889AD88BE88CF88D88C6D
:10360000EA14FB040C051D0540F4EE0CFF1C001F22
:10361000111F215030403C872B8720E030E040E0F4
:1036200050E080E090E0A0E0B0E460E070E0EA14F8
:10363000FB040C051D0540F0282B392B4A2B5B2B76
:10364000EA18FB080C091D09B695A795979587956B
:10365000EE0CFF1C001F111F6F5F7F4F6F31710554
:1036600031F7DA01C9018F779070A070B0708034A3
:103670009105A105B10561F427FD0AC0E114F1042B
:103680000105110529F0205C3F4F4F4F5F4F207817
:103690002D873E874F87588BBE01675F7F4FCB01D9
:1036A0000E94621D6896EAE00C944E1FA8E1B0E00B
:1036B000ECE5FBE10C94361F69837A838B839C8352
:1036C0002D833E834F83588789E0E82EF12CEC0E42
:1036D000FD1ECE010196B7010E94371E8E010F5EBE
:1036E0001F4FCE010596B8010E94371E8985823092
:1036F00040F08989823028F0C701B8010E94AF1ECE
:1037000001C081E06896E6E00C94521FA8E1B0E0A9
:10371000ECE8FBE10C94361F69837A838B839C83EE
:103720002D833E834F83588789E0E82EF12CEC0EE1
:10373000FD1ECE010196B7010E94371E8E010F5E5D
:103740001F4FCE010596B8010E94371E8985823031
:1037500040F08989823028F0C701B8010E94AF1E6D
:1037600001C08FEF6896E6E00C94521FA8E1B0E02C
:10377000ECEBFBE10C94361F69837A838B839C838B
:103780002D833E834F83588789E0E82EF12CEC0E81
:10379000FD1ECE010196B7010E94371E8E010F5EFD
:1037A0001F4FCE010596B8010E94371E89858230D1
:1037B00040F08989823028F0C701B8010E94AF1E0D
:1037C00001C08FEF6896E6E00C94521FA8E1B0E0CC
:1037D000ECEEFBE10C94361F69837A838B839C8328
:1037E0002D833E834F83588789E0E82EF12CEC0E21
:1037F000FD1ECE010196B7010E94371E8E010F5E9D
:103800001F4FCE010596B8010E94371E8985823070
:1038100040F08989823028F0C701B8010E94AF1EAC
:1038200001C081E06896E6E00C94521FA8E1B0E088
:10383000ECE1FCE10C94361F69837A838B839C83D3
:103840002D833E834F83588789E0E82EF12CEC0EC0
:10385000FD1ECE010196B7010E94371E8E010F5E3C
:103860001F4FCE010596B8010E94371E8985823010
:1038700040F08989823028F0C701B8010E94AF1E4C
:1038800001C081E06896E6E00C94521FACE0B0E025
:10389000ECE4FCE10C943A1F69837A838B839C836C
:1038A000CE010196BE016B5F7F4F0E94371E8D8156
:1038B000823061F1823050F1843021F48E8188238E
:1038C00051F12EC02F81388537FD20C06E812F31F8
:1038D00031051CF06623F9F023C08EE190E0821BD5
:1038E000930B29853A854B855C8504C05695479591
:1038F000379527958A95D2F76623B1F05095409574
:10390000309521953F4F4F4F5F4F0EC020E030E084
:1039100040E050E009C02FEF3FEF4FEF5FE704C0FA
:1039200020E030E040E050E8B901CA012C96E2E026
:103930000C94561FA8E0B0E0E0EAFCE10C94321FC2
:103940007B018C01611571058105910519F482E0F7
:10395000898360C083E089838EE1C82ED12CDC820C
:10396000CB82ED82FE820F831887C801B7010E94C7
:10397000131DFC013197F7FF3BC0222733272E1B75
:103980003F0B57016801022E04C0D694C794B79428
:10399000A7940A94D2F740E050E060E070E081E044
:1039A00090E0A0E0B0E004C0880F991FAA1FBB1FE1
:1039B0002A95D2F70197A109B1098E219F21A02351
:1039C000B1230097A105B10521F041E050E060E08E
:1039D00070E04A295B296C297D294D835E836F83C2
:1039E00078878EE190E08E1B9F0B9C838B8312C0A7
:1039F000309781F00E2E04C0EE0CFF1C001F111F2B
:103A00000A94D2F7ED82FE820F831887CE1ADF0A5E
:103A1000DC82CB821A82CE0101960E94621D28961A
:103A2000EAE00C944E1FEF92FF920F931F937B01DD
:103A30008C0180E0E81680E0F80681E0080780E06D
:103A4000180788F48FEFE816F1040105110531F02D
:103A500028F088E090E0A0E0B0E017C080E090E0BF
:103A6000A0E0B0E012C080E0E81680E0F80680E058
:103A7000080781E0180728F088E190E0A0E0B0E0B6
:103A800004C080E190E0A0E0B0E020E230E040E05F
:103A900050E0281B390B4A0B5B0B04C016950795A9
:103AA000F794E7948A95D2F7F701E15AFD4F8081A8
:103AB000281B310941095109C9011F910F91FF903C
:103AC000EF900895DF92EF92FF920F931F93FC0106
:103AD000E480F58006811781D1808081823048F4AE
:103AE00080E090E0A0E1B0E0E82AF92A0A2B1B2B45
:103AF000A5C0843009F49FC0823021F4EE24FF2455
:103B0000870105C0E114F1040105110519F4E0E095
:103B1000F0E096C0628173819FEF623879070CF004
:103B20005BC022E83FEF261B370B2A3131052CF012
:103B300020E030E040E050E02AC0B801A701022EAA
:103B400004C076956795579547950A94D2F781E01A
:103B500090E0A0E0B0E004C0880F991FAA1FBB1F2F
:103B60002A95D2F70197A109B1098E219F21A0239F
:103B7000B1230097A105B10521F081E090E0A0E01C
:103B8000B0E09A01AB01282B392B4A2B5B2BDA01D1
:103B9000C9018F779070A070B07080349105A10535
:103BA000B10539F427FF09C0205C3F4F4F4F5F4FED
:103BB00004C0215C3F4F4F4F5F4FE0E0F0E020300A
:103BC000A0E03A07A0E04A07A0E45A0710F0E1E0BD
:103BD000F0E079018A0127C06038710564F5FB01C6
:103BE000E158FF4FD801C7018F779070A070B07077
:103BF00080349105A105B10539F4E7FE0DC080E4DC
:103C000090E0A0E0B0E004C08FE390E0A0E0B0E07E
:103C1000E80EF91E0A1F1B1F17FF05C01695079512
:103C2000F794E794319687E016950795F794E79413
:103C30008A95D1F705C0EE24FF248701EFEFF0E06D
:103C40006E2F679566276795902F9F77D794DD2411
:103C5000D7948E2F8695492F462B582F5D29B70173
:103C6000CA011F910F91FF90EF90DF900895FC0122
:103C7000DB01408151812281622F6F7770E0221F2A
:103C80002227221F9381892F880F822B282F30E033
:103C9000991F9927991F11969C931197211531050A
:103CA000A9F5411551056105710511F482E037C090
:103CB00082E89FEF13969C938E9312979A01AB0123
:103CC00067E0220F331F441F551F6A95D1F783E029
:103CD0008C930DC0220F331F441F551F12968D91D8
:103CE0009C911397019713969C938E931297203073
:103CF00080E0380780E0480780E4580758F31496BE
:103D00002D933D934D935C93179708952F3F310565
:103D100079F4411551056105710519F484E08C931E
:103D2000089564FF03C081E08C9312C01C9210C000
:103D30002F57304013963C932E93129783E08C9329
:103D400087E0440F551F661F771F8A95D1F770646F
:103D500014964D935D936D937C93179708951F93DD
:103D6000DC01FB019C91923008F447C080818230D5
:103D700008F443C0943051F411961C91843099F5A5
:103D80008181682F70E0611B71093FC0843021F090
:103D9000923031F48230B9F18181882389F12DC0CC
:103DA00011961C9111978230F1F081811817D9F486
:103DB00012962D913C9113978281938182179307DC
:103DC00094F028173907BCF014968D919D910D90B1
:103DD000BC91A02D24813581468157812817390750
:103DE0004A075B0718F4112341F00AC082179307B2
:103DF000A407B50740F4112319F061E070E005C095
:103E00006FEF7FEF02C060E070E0CB011F9108957B
:103E1000A1E21A2EAA1BBB1BFD010DC0AA1FBB1FCE
:103E2000EE1FFF1FA217B307E407F50720F0A21B40
:103E3000B30BE40BF50B661F771F881F991F1A94AD
:103E400069F760957095809590959B01AC01BD01D7
:103E5000CF0108952F923F924F925F926F927F927F
:103E60008F929F92AF92BF92CF92DF92EF92FF928A
:103E70000F931F93CF93DF93CDB7DEB7CA1BDB0B36
:103E80000FB6F894DEBF0FBECDBF09942A883988DB
:103E900048885F846E847D848C849B84AA84B984E2
:103EA000C884DF80EE80FD800C811B81AA81B981EE
:103EB000CE0FD11D0FB6F894DEBF0FBECDBFED0102
:103EC0000895EF92FF920F931F93F22FF02E47FD6C
:103ED00002C0E4E001C0E4E1242F332727FD309540
:103EE00037FF03C0309521953F4F4F2D512F0F2F96
:103EF000EE2E0E94821F8F2D912F1F910F91FF9008
:103F0000EF900895A9E0B0E0E8E8FFE10C942E1FDF
:103F10006A01122FA02EBE2C2BE3201718F42CE3DD
:103F2000922E02C0902E9394AE014F5F5F4F27E018
:103F3000092D0E94E420BC018981E82EFF24C701DD
:103F400089709070019711F4ADE209C0B1FE02C012
:103F5000ABE205C0B0FC02C0A0E001C0A0E2E3FEFD
:103F60003BC0AA2311F423E001C024E0211710F084
:103F700020E002C0121B212FEB2CB4FE02C0322F16
:103F80000AC0F601322F80E202C081933150332300
:103F9000E1F7C20ED11CAA2319F0F601A1936F011B
:103FA000F6013196E2FE05C09EE4D6019C9381E4C1
:103FB00004C09EE6D6019C9381E611968C93918372
:103FC0003296DF01832F90E202C09D9381508823B7
:103FD000E1F7E30FF11D40C0E2FE42C0AA2311F455
:103FE00023E001C024E0211710F020E002C0121BE2
:103FF000212FEB2CB4FE02C0922F0AC0F601922FA3
:1040000080E202C0819391509923E1F7C20ED11C46
:10401000AA2319F0F601A1936F01F6013196E2FE91
:1040200008C089E4D6018C938EE411968C9386E4C3
:1040300007C089E6D6018C938EE611968C9386E6AE
:1040400081833296DF01892F20E202C02D938150B7
:104050008823E1F7E90FF11D10822EEF3FEFAFC08B
:10406000161617061CF041E050E003C0AB014F5F8D
:104070005F4FAA2019F480E090E003C08A2D90E001
:10408000019620E030E0AA2311F021E030E0240F77
:10409000351F280F391F812F90E02817390714F09A
:1040A00020E002C0121B212F4B2D50E0CA0180716D
:1040B0009070B4FC0DC0B3FC0BC0F601322F40E28F
:1040C00002C0419331503323E1F7C20ED11C01C02D
:1040D000322FAA2319F0F601A1936F01892B11F059
:1040E000132F0AC0F601132F80E302C081931150F1
:1040F0001123E1F7C30ED11C092D060FBA8090E100
:10410000892E912C8E209F20E4FE04C0F1E3BF167F
:1041100009F40150101614F001E003C0093008F052
:1041200008E09B0177FF02C020E030E0CB01019660
:10413000821B930BFE013196E80FF91F8EE2F82ED9
:104140003B01601A71088A2D90E044275527481BCF
:10415000590B8FEF2F3F380719F4D601FD926D01EF
:10416000621773072CF06216730614F4808101C085
:1041700080E32150304031962417350724F0D601D2
:104180008D936D01E6CF2617370749F4B5E3BB15CC
:1041900028F0BB1621F48114910409F481E3F6019F
:1041A0008193D601812F90E202C09C938150119699
:1041B0008823D9F7E10FF11D108220E030E0C9011A
:1041C0002996EEE00C944A1F283008F027E03327A8
:1041D000DA01990F311D87FD916000966105710527
:1041E00039F432602E5F3D9330E32A95E1F708956C
:1041F0009F3F30F080387105610509F03C5F3C5FFE
:104200003D93913008F08068911DDF93CF931F9309
:104210000F93FF92EF92192F987F9695E92F96951D
:104220009695E90FFF27EF54FD4F99273327EE248A
:10423000FF24A701E70105900894079428F4360F9E
:10424000E71EF81E491F511D660F771F881F991F13
:104250000694A1F70590079428F4E70EF81E491F6D
:10426000561FC11D770F881F991F661F0694A1F75F
:104270000590079428F4F80E491F561FC71FD11D3B
:10428000880F991F661F771F0694A1F70590079462
:1042900020F4490F561FC71FD81F990F661F771F9D
:1042A000881F0694A9F784911095177041F0D69550
:1042B000C79557954795F794E7941A95C1F7E7E5A1
:1042C000F2E068941590159135916591959105905E
:1042D0007FE27395E118F10A430B560BC90BD00925
:1042E000C0F7E10CF11E431F561FC91FD01D7EF4FD
:1042F000703311F48A95E6CFE894015030F0080F3E
:104300000AF40027021708F4202F2395022F7A338E
:1043100028F079E37D932A95E9F710C07D932A95DB
:1043200089F6069497956795379517951794E11830
:10433000F10A430B560BC90BD00998F023957E91D7
:1043400073957A3308F070E37C932013B8F77E916D
:1043500070617D9330F0839571E37D9370E32A95CE
:10436000E1F71124EF90FF900F911F91CF91DF9112
:0C437000992787FD90950895F894FFCFE1
:10437C0000000001000000000000F101000000003E
:10438C00000200000000C8010000000001002043F2
:10439C00414C4C20002053574954434820002043A3
:1043AC0048415247494E4720200020444953434836
:1043BC004152474520002049444C452020202020D4
:1043CC002000456C6170736564203D2000206D20D9
:1043DC000000207365632000427573626172205681
:1043EC006F6C74616765203D20002056200042757B
:1043FC00736261722043757272656E74203D200089
:10440C002041200057696E642043617061636974B8
:10441C0079203D2000536F6C6172204361706163A1
:10442C00697479203D2000546F74616C2052656E64
:10443C00657761626C65203D20004D61696E20528C
:10444C00657175657374203D20004C6F616420317B
:10445C00203D20004C6F61642032203D20004C6FC9
:10446C0061642033203D20004261747420537461D8
:10447C00747573203A2000506F776572203D2000D0
:10448C006B572F682000F000400100000000000076
:10449C00FFFF00000000013F00000000EF000025BE
:1044AC00270510093A784D05180D383A1F001F1AC8
:1044BC00180A0F064587320A07020705000001009B
:1044CC0000000A822700000000000000000000002D
:1044DC00010202030303030404040404040404059A
:1044EC00050505050505050505050505050505066F
:1044FC000606060606060606060606060606060650
:10450C00060606060606060606060606060606073E
:10451C00070707070707070707070707070707071F
:10452C00070707070707070707070707070707070F
:10453C0007070707070707070707070707070707FF
:10454C0007070707070707070707070707070708EE
:10455C0008080808080808080808080808080808CF
:10456C0008080808080808080808080808080808BF
:10457C0008080808080808080808080808080808AF
:10458C00080808080808080808080808080808089F
:10459C00080808080808080808080808080808088F
:1045AC00080808080808080808080808080808087F
:1045BC00080808080808080808080808080808086F
:1045CC000808080808080808080808080808080067
:00000001FF
