:100000000C94A9010C94C6010C94C6010C94C60171
:100010000C94C6010C94C6010C94C6010C94C60144
:100020000C94C6010C94C6010C94C6010C94C60134
:100030000C94C6010C9412050C94C6010C94C601D4
:100040000C94C6010C94C6010C94C6010C94C60114
:100050000C94C6010C94C6010C94C6010C94C60104
:100060000C94C6010C94C6010C94C6010C94C601F4
:100070000C94C6010C94C6010C94C601000000004B
:100080000000005F00000003000300143E143E1453
:10009000242A7F2A124333086661364955225000CC
:1000A00005030000001C2241000041221C0014082E
:1000B0003E081408083E08080050300000080808F0
:1000C0000808006060000020100804023E51494505
:1000D0003E0004027F0042615149462241494936AF
:1000E0001814127F1027454545393E4949493201C8
:1000F000017109073649494936264949493E0036C2
:100100003600000056360000081422410014141472
:100110001414004122140802015109063E415955A8
:100120005E7E0909097E7F494949363E41414122A7
:100130007F4141413E7F494949417F090909013ECB
:100140004141493A7F0808087F00417F4100304023
:1001500040403F7F081422417F404040407F020CD6
:10016000027F7F0204087F3E4141413E7F09090929
:10017000061E2121215E7F09090976264949493257
:1001800001017F01013F4040403F1F2040201F7F71
:100190002010207F41221C2241070870080761516E
:1001A000494543007F41000002040810200000413F
:1001B0007F0004020102044040404040000102046C
:1001C0000020545454787F444444383844444444D0
:1001D000384444447F385454541804047E050508B8
:1001E0005454543C7F0804047800447D400020406F
:1001F000443D007F1028440000417F40007C04788B
:1002000004787C0804047838444444387C1414147A
:1002100008081414147C007C080404485454542026
:1002200004043F44443C4040207C1C2040201C3CB3
:100230004030403C44281028440C5050503C44640A
:10024000544C44000836414100007F0000414136D3
:100250000800020102040200407A10F35A00A07262
:100260004E18090010A5D4E80000E87648170000F1
:10027000E40B54020000CA9A3B000000E1F50500BF
:100280000080969800000040420F000000A0860108
:10029000000000102700000000E8030000000064D8
:1002A00000000000000A0000000000010000000043
:1002B000002C76D888DC674F0823DFC1DFAE59E118
:1002C000B1B796E5E3E453C63AE651997696E8E687
:1002D000C28426EB898C9B62ED407C6FFCEFBC9C5A
:1002E0009F40F2BAA56FA5F490055A2AF75C936B6C
:1002F0006CF9676DC11BFCE0E40D47FEF520E6B527
:1003000000D0ED902E0300943577050080841E0800
:100310000000204E0A000000C80C333333330F981E
:100320006E12831141EF8D2114893BE65516CFFEE5
:10033000E6DB18D1844B381BF77C1D901DA4BBE471
:1003400024203284725E228100C9F124ECA1E53DB3
:10035000270011241FBECFEFD0E1DEBFCDBF13E0D9
:10036000A0E0B1E0E4ECF6E602C005900D92A23602
:10037000B107D9F713E0A2E6B3E001C01D92A0399E
:10038000B107E1F70E942F020C9460330C94000037
:10039000DF93CF9300D00F92CDB7DEB789837B83F5
:1003A0006A8389818A3031F42A813B818DE0B901E9
:1003B0000E94C801E0ECF0E08081882F90E080721C
:1003C00090700097B9F3E6ECF0E089818083898131
:1003D000992787FD90950F900F900F90CF91DF9107
:1003E0000895DF93CF9300D0CDB7DEB79A8389838A
:1003F000E0ECF0E080818823DCF7E6ECF0E080813F
:10040000882F90E00F900F90CF91DF910895DF93A8
:10041000CF93CDB7DEB7E5ECF0E01082E4ECF0E08E
:100420008DE48083E1ECF0E088E18083E2ECF0E0B1
:1004300086E080838EE091E090938D0380938C031F
:100440008EE091E090938F0380938E0380E091E0A3
:1004500090938B0380938A03CF91DF9108950F933C
:100460001F93DF93CF93CDB7DEB7C855D0400FB6FB
:10047000F894DEBF0FBECDBF0E9497190E940702FD
:1004800083E090E09A83898389819A810E940E1784
:100490000E9477180E94A2060E94AD060E947A066A
:1004A0000E94D00678940E94E8150E947D10209149
:1004B000660330916703409168035091690388E7B0
:1004C00090E0BA01A9010E9443152BAB3CAB4DABA8
:1004D0005EAB6FAB78AF89AF9AAFCE0103969CAF9E
:1004E0008BAFFE01F396FEAFEDAFF8E0FFAFEDADE1
:1004F000FEAD00808DAD9EAD01969EAF8DAFEBAD94
:10050000FCAD00828BAD9CAD01969CAF8BAF9FADD7
:1005100091509FAFEFADEE2351F780912102909162
:10052000220220916A0330916B0340916C03509139
:100530006D03BA01A9010E9443152BAB3CAB4DAB37
:100540005EAB6FAB78AF89AF9AAFCE010B962296B8
:100550009FAF8EAF2297FE01F3962496FFAFEEAFCA
:100560002497F8E02596FFAF25972496EEADFFADD2
:100570002497008024968EAD9FAD249701962496F3
:100580009FAF8EAF24972296EEADFFAD22970082EB
:1005900022968EAD9FAD2297019622969FAF8EAF89
:1005A000229725969FAD2597915025969FAF259729
:1005B0002596EFAD2597EE23C1F68091210290910B
:1005C000220220916E0330916F034091700350918D
:1005D0007103BA01A9010E9443152BAB3CAB4DAB93
:1005E0005EAB6FAB78AF89AF9AAFCE0143962796DB
:1005F0009FAF8EAF2797FE01F3962996FFAFEEAF20
:100600002997F8E02A96FFAF2A972996EEADFFAD1D
:100610002997008029968EAD9FAD2997019629963E
:100620009FAF8EAF29972796EEADFFAD279700823B
:1006300027968EAD9FAD2797019627969FAF8EAFD9
:1006400027972A969FAD2A9791502A969FAF2A976F
:100650002A96EFAD2A97EE23C1F680912102909160
:1006600022022091720330917303409174035091E0
:100670007503BA01A9010E9443152BAB3CAB4DABEE
:100680005EAB6FAB78AF89AF9AAFCE014B962C962D
:100690009FAF8EAF2C97FE01F3962E96FFAFEEAF75
:1006A0002E97F8E02F96FFAF2F972E96EEADFFAD69
:1006B0002E9700802E968EAD9FAD2E9701962E968A
:1006C0009FAF8EAF2E972C96EEADFFAD2C9700828C
:1006D0002C968EAD9FAD2C9701962C969FAF8EAF2A
:1006E0002C972F969FAD2F9791502F969FAF2F97B6
:1006F0002F96EFAD2F97EE23C1F6809121029091B6
:1007000022028C0180916E0390916F03A09170037F
:10071000B09171032091720330917303409174037F
:1007200050917503BC01CD010E945B2ADC01CB0115
:10073000BC01CD0120E030E040E050E40E94822B7B
:10074000DC01CB019C01AD01C801BA01A9010E94E5
:1007500043152BAB3CAB4DAB5EAB6FAB78AF89AF0A
:100760009AAFCE01839661969FAF8EAF6197FE01DF
:10077000F3966396FFAFEEAF6397F8E06496FFAF32
:1007800064976396EEADFFAD6397008063968EAD80
:100790009FAD6397019663969FAF8EAF6397619607
:1007A000EEADFFAD6197008261968EAD9FAD619712
:1007B000019661969FAF8EAF619764969FAD6497E7
:1007C000915064969FAF64976496EFAD6497EE2363
:1007D000C1F6809121029091220220916203309112
:1007E00063034091640350916503BA01A9010E941B
:1007F00043152BAB3CAB4DAB5EAB6FAB78AF89AF6A
:100800009AAFCE018B9666969FAF8EAF6697FE012C
:10081000F3966896FFAFEEAF6897F8E06996FFAF82
:1008200069976896EEADFFAD6897008068968EADCB
:100830009FAD6897019668969FAF8EAF6897669652
:10084000EEADFFAD6697008266968EAD9FAD669762
:10085000019666969FAF8EAF669769969FAD699732
:10086000915069969FAF69976996EFAD6997EE23AE
:10087000C1F68FEF9FEF9093240280932302109292
:100880002602109225020E94FA0880917603909128
:10089000770320917803692F422F0E9474090E94E8
:1008A00037090E949A0D0E941C1580916603909151
:1008B0006703A0916803B0916903BC01CD0123EFE8
:1008C00034E045EB5FE30E94882ADC01CB019C0108
:1008D000AD01CE010396BA01A90128E730E00E94DC
:1008E000731480916A0390916B03A0916C03B09193
:1008F0006D03BC01CD0123EF34E045EB5FE30E94C3
:10090000882ADC01CB019C01AD01809121029091EC
:100910002202FC01CE010B96BA01A9019F010E949F
:10092000731420916E0330916F03409170035091C6
:1009300071038091210290912202FC01CE01439625
:10094000BA01A9019F010E94731420917203309192
:10095000730340917403509175038091210290912B
:100960002202FC01CE014B96BA01A9019F010E940F
:10097000731480916E0390916F03A0917003B091F6
:10098000710320917203309173034091740350916D
:100990007503BC01CD010E945B2ADC01CB01BC01C7
:1009A000CD0120E030E040E050E40E94822BDC01E9
:1009B000CB019C01AD018091210290912202FC01AA
:1009C000CE018396BA01A9019F010E947314809100
:1009D000620390916303A0916403B0916503BC012D
:1009E000CD0120E030E040E050E40E94822BDC01A9
:1009F000CB01BC01CD0123E333E343E550E40E9486
:100A0000882ADC01CB019C01AD01809121029091EB
:100A10002202FC01CE018B96BA01A9019F010E941E
:100A2000731431CF1F920F920FB60F9211242F9390
:100A30003F934F935F936F937F938F939F93AF9366
:100A4000BF93DF93CF93CDB7DEB7AB97DEBFCDBFFC
:100A5000209182032983809183038A839091840368
:100A60009B83209185032C83809186038D839091B5
:100A700087039E83209188032F8380918903888731
:100A800091E099871A861B861C861D861E861F8606
:100A9000188A29818985280F298B91E0998F2989C6
:100AA0008981281708F0198E9A812A85920F9A8BCE
:100AB00081E08A8F9A892A81921708F01A8E898D8F
:100AC0009A89890F8B8F21E02C8F8B8D9A898917BA
:100AD00008F01C8E2A8D8C8D282B2A8F9B8D9A8B4B
:100AE0002B818B85280F2B8B91E09D8F2B898B8100
:100AF000281708F01D8E9A8D2B89920F9E8F81E00A
:100B00008F8F9E8D2B89921708F01F8E8D8D9F8D54
:100B1000892B8D8F2E8D2B8B8C819C85890F8C8BB7
:100B200021E028A38C899C81891708F018A22D8DBB
:100B30008C89280F29A391E09AA329A18C892817D1
:100B400008F01AA298A12AA1922B98A389A18C8BB4
:100B50009D812D85920F9D8B81E08BA39D892D8199
:100B6000921708F01BA288A19D89890F8CA321E010
:100B70002DA38CA19D89891708F01DA22BA18DA101
:100B8000282B2BA39CA19D8B2E818E85280F2E8B2D
:100B900091E09EA32E898E81281708F01EA29BA1AA
:100BA0002E89920F9FA381E088A79FA12E8992177B
:100BB00008F018A68EA198A5892B8EA32FA12E8BA5
:100BC0008F819F85890F8F8B21E029A78F899F8136
:100BD000891708F019A62EA18F89280F2AA791E05E
:100BE0009BA72AA58F89281708F01BA699A52BA5D6
:100BF000922B99A78AA58F8B98852889920F988F19
:100C000089A5988D890F888F29893A894B895C89B4
:100C10006D897E898F89988D209382033093830319
:100C200040938403509385036093860370938703F6
:100C3000809388039093890380917C03882319F122
:100C400080911C0190911D01A0911E01B0911F0186
:100C500080342DE0920723E0A20720E0B20798F449
:100C600080911C0190911D01A0911E01B0911F0166
:100C70000196A11DB11D80931C0190931D01A093AD
:100C80001E01B0931F0180917D038823F9F08091AC
:100C90001C0190911D01A0911E01B0911F010097B0
:100CA000A105B10599F080911C0190911D01A091C1
:100CB0001E01B0911F010197A109B10980931C0188
:100CC00090931D01A0931E01B0931F01AB96DEBF50
:100CD000CDBFCF91DF91BF91AF919F918F917F91C8
:100CE0006F915F914F913F912F910F900FBE0F9099
:100CF0001F901895DF93CF93CDB7DEB7A0E8B0E093
:100D0000E0E8F0E080818C93A1E8B0E0E1E8F0E079
:100D1000808188608C93A1E8B0E0E1E8F0E0808118
:100D200082608C93E8E8F0E08CED95E0918380831D
:100D3000AFE6B0E0EFE6F0E0808182608C93CF9187
:100D4000DF910895DF93CF93CDB7DEB7EAE7F0E008
:100D500086E88083CF91DF910895DF93CF93CDB75D
:100D6000DEB7A1E2B0E0E1E2F0E080818F788C9321
:100D7000A2E2B0E0E2E2F0E080818F788C93AAE218
:100D8000B0E0EAE2F0E0808180678C93ABE2B0E013
:100D9000EBE2F0E080818F788C93CF91DF91089522
:100DA000DF93CF93CDB7DEB7AAE2B0E0EAE2F0E09E
:100DB000808180688C93E0EBF0E083E88083E1EB56
:100DC000F0E081E08083CF91DF910895DF93CF93AE
:100DD00000D000D00F92CDB7DEB78D8380E090E0D9
:100DE000A0E0B0E089839A83AB83BC83ECE7F0E0BA
:100DF0008D818083AAE7B0E0EAE7F0E0808180643B
:100E00008C93EAE7F0E08081882F90E08074907006
:100E10000097B9F7E8E7F0E080819181CC01A0E08C
:100E2000B0E0BC01CD010E94A02DDC01CB01BC01D2
:100E3000CD0123E333E343E550E40E94882ADC013B
:100E4000CB01BC01CD0120E030EC4FE754E40E941F
:100E5000822BDC01CB0189839A83AB83BC8389819C
:100E60009A81AB81BC81BC01CD010F900F900F9096
:100E70000F900F90CF91DF9108950F931F93DF9301
:100E8000CF93CDB7DEB76D970FB6F894DEBF0FBE28
:100E9000CDBF8D87209182033091830340918403DD
:100EA0005091850360918603709187038091880338
:100EB00090918903DA01C9014496A11DB11D89876A
:100EC0009A87AB87BC8780E090E0A0E0B0E08D839C
:100ED0009E83AF83B88780E090E0A0E0B0E0898394
:100EE0009A83AB83BC831DC08D850E94E606DC011E
:100EF000CB018D839E83AF83B8876D817E818F8187
:100F0000988529813A814B815C810E942E2C18168C
:100F100044F48D819E81AF81B88589839A83AB83A8
:100F2000BC8389859A85AB85BC858C019D0140E099
:100F300050E060E070E00E8B1F8B288F398F4A8F56
:100F40005B8F6C8F7D8F109182031E8720918303AE
:100F50002F8730918403388B40918503498B5091C2
:100F600086035A8B609187036B8B709188037C8B0F
:100F7000809189038D8B9D8D0D89091708F4B4CF5D
:100F80001D8D2D891217D9F53C8D4C89431708F416
:100F9000ABCF5C8D6C89561791F57B8D8B8987174C
:100FA00008F4A2CF9B8D0B89901749F51A8D2A89D9
:100FB000211708F499CF3A8D4A89341701F5598DD4
:100FC0006989651708F490CF798D89897817B9F404
:100FD000988D0889091708F487CF188D288912176A
:100FE00071F43F894F85431708F47ECF5F896F8581
:100FF000561729F47E898E85871708F475CF698185
:101000007A818B819C8123EF34E045EB5FE30E9482
:10101000822BDC01CB0189839A83AB83BC838981DA
:101020009A81AB81BC81BC01CD016D960FB6F8945D
:10103000DEBF0FBECDBFCF91DF911F910F910895FD
:10104000DF93CF9300D0CDB7DEB7E0E2F0E0808150
:10105000882F90E0807190709A83898389819A812A
:10106000009721F081E08093760302C0109276030E
:10107000E0E2F0E08081882F90E0807290709A83A7
:10108000898389819A81009721F081E08093770399
:1010900002C010927703E0E2F0E08081882F90E0B8
:1010A000807490709A83898389819A81009721F056
:1010B00081E08093780302C0109278030F900F9024
:1010C000CF91DF9108950F931F93DF93CF93CDB707
:1010D000DEB703EB10E08091620390916303A0916F
:1010E0006403B0916503BC01CD0123E333E343E521
:1010F00050E40E94822BDC01CB01BC01CD0120E039
:1011000030E04FE753E40E94882ADC01CB01BC01A8
:10111000CD010E94F11ADC01CB01F8018083CF914F
:10112000DF911F910F910895DF93CF93CDB7DEB775
:1011300080917903882341F0ABE2B0E0EBE2F0E08C
:10114000808180618C9307C0ABE2B0E0EBE2F0E01D
:1011500080818F7E8C9380917A03882341F0ABE26B
:10116000B0E0EBE2F0E0808180628C9307C0ABE2FC
:10117000B0E0EBE2F0E080818F7D8C9380917B0387
:10118000882341F0ABE2B0E0EBE2F0E080818064E4
:101190008C9307C0ABE2B0E0EBE2F0E080818F7BA4
:1011A0008C9380917C03882341F0ABE2B0E0EBE2CA
:1011B000F0E0808184608C9307C0ABE2B0E0EBE2AA
:1011C000F0E080818B7F8C9380917D03882341F0B8
:1011D000ABE2B0E0EBE2F0E0808188608C9307C086
:1011E000ABE2B0E0EBE2F0E08081877F8C93CF91BF
:1011F000DF910895DF93CF93CDB7DEB780E00E94F3
:10120000E606DC01CB0180936E0390936F03A093FD
:101210007003B093710381E00E94E606DC01CB010C
:101220008093720390937303A0937403B093750338
:1012300082E00E943D07DC01CB018093660390931E
:101240006703A0936803B093690383E00E943D079E
:10125000DC01CB0180936A0390936B03A0936C0332
:10126000B0936D030E942008CF91DF910895DF9322
:10127000CF93CDB7DEB70E9463080E949408CF9148
:10128000DF910895DF93CF93CDB7DEB729970FB6DF
:10129000F894DEBF0FBECDBF89834A835B836C8326
:1012A0007D838981882349F08A819B81AC81BD81BE
:1012B0008E839F83A887B98708C080E090E0A0E074
:1012C000B0E08E839F83A887B9878E819F81A88590
:1012D000B985BC01CD0129960FB6F894DEBF0FBECB
:1012E000CDBFCF91DF910895DF93CF93CDB7DEB718
:1012F000A8970FB6F894DEBF0FBECDBF8EA36FA325
:1013000048A71DA21CA280E090E0A0E0B0E48D8F71
:101310009E8FAF8FB8A38EA14AE959E969E97FE3AF
:101320000E944209DC01CB01898F9A8FAB8FBC8F61
:101330008FA140E050E060E070E40E944209DC01CF
:10134000CB018D8B9E8BAF8BB88F88A54DEC5CEC61
:101350006CE47FE30E944209DC01CB01898B9A8B0C
:10136000AB8BBC8B698D7A8D8B8D9C8D2D893E8945
:101370004F89588D0E945B2ADC01CB01BC01CD0155
:1013800029893A894B895C890E945B2ADC01CB015F
:101390008D879E87AF87B88B80916E0390916F0386
:1013A000A0917003B0917103209172033091730387
:1013B0004091740350917503BC01CD010E945B2ADA
:1013C000DC01CB0189879A87AB87BC8769857A85E1
:1013D0008B859C852D853E854F8558890E945E2C86
:1013E00088230CF472C069857A858B859C852D8550
:1013F0003E854F8558890E942A2ADC01CB018D83C6
:101400009E83AF83B8876D817E818F81988520E030
:1014100030E040E85FE30E945E2C8823C4F080E067
:1014200090E0A0E0B0E08093620390936303A09308
:101430006403B093650381E08BA381E08AA381E01C
:1014400089A381E080937C0310927D039AC18091EF
:101450002001909121018233910504F560E070E054
:1014600080E89FE32D813E814F8158850E942A2A82
:10147000DC01CB018093620390936303A093640328
:10148000B093650381E08BA381E08AA381E089A307
:1014900081E080937C0310927D0373C180E090E033
:1014A000A0E0B0E08093620390936303A093640391
:1014B000B093650381E08BA381E08AA381E089A3D7
:1014C00010927C0310927D035CC16D857E858F85B3
:1014D000988929853A854B855C850E942A2ADC01FA
:1014E000CB0189839A83AB83BC8369817A818B81A9
:1014F0009C8120E030E040E85FE30E94BE2C18169B
:101500000CF45DC0809120019091210182339105FE
:1015100004F569817A818B819C8120E030E040E88C
:101520005FE30E945B2ADC01CB018093620390930E
:101530006303A0936403B093650381E08BA381E010
:101540008AA381E089A381E080937C0310927D03CC
:1015500018C1809120019091210183339105C4F03D
:1015600080E090E0A0E0B0E080936203909363039A
:10157000A0936403B093650381E08BA381E08AA309
:1015800081E089A310927C0381E080937D03F9C000
:1015900089819A81AB81BC818093620390936303BC
:1015A000A0936403B093650381E08BA381E08AA3D9
:1015B00081E089A310927C0310927D03E2C06981CF
:1015C0007A818B819C8120E030E040E050E40E94F1
:1015D000BE2C18160CF43EC0809120019091210180
:1015E00083339105BCF489819A81AB81BC8180935E
:1015F000620390936303A0936403B093650381E057
:101600008BA381E08AA381E089A310927C031092CE
:101610007D03B7C069817A818B819C8120E030E0B5
:1016200040E85FE30E942A2ADC01CB018093620339
:1016300090936303A0936403B093650381E08BA34D
:1016400081E08AA381E089A310927C0381E08093EA
:101650007D0397C069817A818B819C8120E030E095
:1016600040E450E40E94BE2C18160CF445C0809152
:101670002001909121011816190604F569817A81DB
:101680008B819C8120E030E040E85FE30E942A2AC1
:10169000DC01CB018093620390936303A093640306
:1016A000B093650381E08BA381E08AA381E089A3E5
:1016B00010927C0381E080937D0363C06D8D7E8DED
:1016C0008F8D98A129893A894B895C890E942A2AA1
:1016D000DC01CB018093620390936303A0936403C6
:1016E000B093650381E08BA381E08AA319A21092D5
:1016F0007C0310927D0345C08091200190912101CF
:10170000181619064CF56D857E858F85988920E021
:1017100030E040E85FE30E942A2ADC01CB01BC01F3
:10172000CD012D893E894F89588D0E942A2ADC01DE
:10173000CB018093620390936303A0936403B093FF
:10174000650381E08BA31AA281E089A310927C0338
:1017500081E080937D0315C08D8D9E8DAF8DB8A1E6
:101760008093620390936303A0936403B093650333
:1017700081E08BA31AA281E089A310927C031092CE
:101780007D038BA191E08927882351F48091760312
:1017900091E08927882321F481E08093790302C0B6
:1017A000109279038AA191E08927882351F48091CE
:1017B000770391E08927882321F481E080937A03DD
:1017C00002C010927A0389A191E08927882351F4FD
:1017D0008091780391E08927882321F481E0809328
:1017E0007B0302C010927B03809166039091670394
:1017F000A0916803B0916903BC01CD012BE93CE6DF
:1018000042EF52E40E94882ADC01CB01BC01CD01E9
:101810002D853E854F8558890E94882ADC01CB01A1
:10182000BC01CD0120E030E04AE754E40E94822B65
:10183000DC01CB0180937E0390937F03A093800310
:10184000B0938103A8960FB6F894DEBF0FBECDBF4C
:10185000CF91DF910895AF92BF92CF92DF92EF9236
:10186000FF920F931F93DF93CF93CDB7DEB76A97A5
:101870000FB6F894DEBF0FBECDBF9C878B877E87E7
:101880006D87588B4F87098B1A8B2B8B3C8BFE8A6D
:10189000ED8AD88ECF8ABA8EA98E8FEF9FEF909364
:1018A0002402809323028B859C8590932002809351
:1018B0001F028D859E859093220280932102898943
:1018C0009A89AB89BC892F89388DE98DFA8DBC0145
:1018D000CD01A9019F01FE0131968F010E940531C2
:1018E0008F8598890E948419CE0101960E948419DF
:1018F0008D899E890E9484198091210290912202F3
:10190000449690932202809321026A960FB6F8942F
:10191000DEBF0FBECDBFCF91DF911F910F91FF9022
:10192000EF90DF90CF90BF90AF900895DF93CF936B
:1019300000D00F92CDB7DEB789838981882329F043
:1019400080EE97E09B838A8304C080E098EF9B83BE
:101950008A838A819B810F900F900F90CF91DF91A6
:1019600008950F93DF93CF93CDB7DEB728970FB6C7
:10197000F894DEBF0FBECDBF9A8389837C836B83CF
:101980005E834D832F83088789819A8190932002FB
:1019900080931F028B819C8190932202809321026D
:1019A0008D819E810E9484198F810E94960C909354
:1019B00024028093230282E291E00E9484198885A8
:1019C0000E94960C909324028093230289E291E076
:1019D0000E9484198FEF9FEF90932402809323023B
:1019E000809121029091220244969093220280934A
:1019F000210228960FB6F894DEBF0FBECDBFCF915F
:101A0000DF910F910895AF92BF92CF92DF92EF9244
:101A1000FF920F931F93DF93CF93CDB7DEB7289735
:101A20000FB6F894DEBF0FBECDBF9A8389837C8347
:101A30006B835E834D832F83088789819A8190937E
:101A4000200280931F028B819C81909322028093BD
:101A500021028D819E810E94841980911F029091A4
:101A600020027C0180912102909122026C018091E0
:101A7000200190912101AA2797FDA095BA2FBC01C2
:101A8000CD010E94EE2C8B019C0142E351E0E3E387
:101A9000F1E0C701B6017F01CC24DD246894C1F8D0
:101AA000AA24BB240E942B0C89819A819093200246
:101AB00080931F0280912102909122020A979093B5
:101AC0002202809321028F81882359F080EE97E0D3
:101AD000909324028093230286E391E00E9484196C
:101AE00012C08885882359F080E098EF90932402F3
:101AF0008093230282E491E00E94841904C08EE462
:101B000091E00E9484198FEF9FEF909324028093BD
:101B1000230228960FB6F894DEBF0FBECDBFCF913B
:101B2000DF911F910F91FF90EF90DF90CF90BF90CA
:101B3000AF9008952F923F924F925F926F927F9253
:101B40008F929F92AF92BF92CF92DF92EF92FF92CD
:101B50000F931F93DF93CF9300D0CDB7DEB78AE00A
:101B600090E09093200280931F028AE090E090938F
:101B7000220280932102A0908203B0908303C09040
:101B80008403D0908503E0908603F0908703009152
:101B90008803109189032A2D3B2D4C2D5D2D6E2D30
:101BA0007F2D802F912F0F2EF0E6AF2EF02D0F2ED0
:101BB000FAEEBF2EF02DCC24DD24EE24FF2400E02D
:101BC00010E00E94F91B222E332E442E552E662E35
:101BD000772E882E992EA22CB32CC42CD52CE62C33
:101BE000F72C082D192D2A2D3B2D4C2D5D2D6E2DFA
:101BF0007F2D802F912F0E941D1B8B019C014AE598
:101C000051E0E5E6F1E08DEC90E06AE570E07F01FF
:101C1000CC24DD246894C1F8AA24BB240E942B0C98
:101C200080911F02909120029A838983A090820361
:101C3000B0908303C0908403D0908503E090860326
:101C4000F090870300918803109189032A2D3B2D82
:101C50004C2D5D2D6E2D7F2D802F912F0F2EF8EEA8
:101C6000AF2EF02D0F2EF3E0BF2EF02DCC24DD246F
:101C7000EE24FF2400E010E00E94F91B222E332EF8
:101C8000442E552E662E772E882E992EA22CB32CFC
:101C9000C42CD52CE62CF72C082D192D2A2D3B2DE4
:101CA0004C2D5D2D6E2D7F2D802F912F0F2EFCE35F
:101CB000AF2EF02DBB24CC24DD24EE24FF2400E045
:101CC00010E00E946E22222E332E442E552E662EB8
:101CD000772E882E992EA22CB32CC42CD52CE62C32
:101CE000F72C082D192D2A2D3B2D4C2D5D2D6E2DF9
:101CF0007F2D802F912F0E941D1B8B019C0142E3A1
:101D000051E0E8E6F1E089819A816AE570E07F01BF
:101D1000CC24DD246894C1F8AA24BB240E942B0C97
:101D20008091660390916703A0916803B091690365
:101D3000BC01CD012BE93CE642EF52E40E94882A27
:101D4000DC01CB018C019D014BE651E0EDE7F1E0B8
:101D50008AE090E06EE670E07F01CC24DD24689498
:101D6000C2F8AA24BB246894A1F80E942B0C80918D
:101D70002102909122027C0180916A0390916B0371
:101D8000A0916C03B0916D03BC01CD012CE730EF45
:101D900041E450E40E94882ADC01CB018C019D01C2
:101DA00041E851E0E3E9F1E08AE090E0B7017F012A
:101DB000CC24DD246894C2F8AA24BB246894A1F83A
:101DC0000E942B0C80912102909122027C01809133
:101DD0006E0390916F03A0917003B0917103BC01E9
:101DE000CD0123E333E343E550E40E94822BDC0181
:101DF000CB01BC01CD0120E030E040EA50E40E947C
:101E0000882ADC01CB018C019D0147E951E0E3E91F
:101E1000F1E08AE090E0B7017F01CC24DD246894F2
:101E2000C2F8AA24BB246894A1F80E942B0C8091CC
:101E30002102909122027C018091720390917303A0
:101E4000A0917403B0917503BC01CD0123E333E38A
:101E500043E550E40E94822BDC01CB01BC01CD01A3
:101E600020E030E040EA50E40E94882ADC01CB0107
:101E70008C019D0148EA51E0E3E9F1E08AE090E05D
:101E8000B7017F01CC24DD246894C2F8AA24BB24C6
:101E90006894A1F80E942B0C80912102909122025B
:101EA0007C0180916E0390916F03A0917003B091BB
:101EB0007103209172033091730340917403509128
:101EC0007503BC01CD010E945B2ADC01CB01BC0182
:101ED000CD0123E333E343E550E40E94822BDC0190
:101EE000CB01BC01CD0120E030E040EA50E40E948B
:101EF000882ADC01CB018C019D014AEB51E0E3E92A
:101F0000F1E08AE090E0B7017F01CC24DD24689401
:101F1000C2F8AA24BB246894A1F80E942B0C8091DB
:101F2000210290912202BC0100916203109163038F
:101F300020916403309165034DEC51E0E3E9F1E059
:101F40008AE090E07F01CC24DD246894C2F8AA24C2
:101F5000BB246894A1F80E942B0CE0917603F091C9
:101F600079032DED31E08FEA90E06EE670E0A90193
:101F70002E2F0F2F0E94B10C8091210290912202EE
:101F8000AC01E0917703F0917A0327EE31E08FEA1C
:101F900090E0BA01A9012E2F0F2F0E94B10C809161
:101FA000210290912202AC01E0917803F0917B0331
:101FB00021EF31E08FEA90E0BA01A9012E2F0F2F17
:101FC0000E94B10C8091210290912202AC01E0911B
:101FD0007C03F0917D032BEF31E08FEA90E0BA01B2
:101FE000A9012E2F0F2F0E94030D809121029091A5
:101FF0002202449690932202809321028091210232
:1020000090912202BC0100917E0310917F032091E8
:102010008003309181034AE052E0E3E1F2E08FEA8D
:1020200090E07F010F2EF3E0CF2EDD24F02DAA24C7
:10203000BB246894A1F80E942B0C0F900F90CF91B5
:10204000DF911F910F91FF90EF90DF90CF90BF90A5
:10205000AF909F908F907F906F905F904F903F9048
:102060002F9008950F931F93DF93CF9300D000D04C
:10207000CDB7DEB79A8389837C836B8380912102FD
:1020800090912202E981FA819583848380911F02D5
:1020900090912002E981FA8191838083E981FA811C
:1020A000248135818B819C81820F931FE981FA8184
:1020B00097838683E981FA81208131818B819C819C
:1020C000820F931FE981FA8193838283E981FA81E8
:1020D000208131814281538164817581868197811C
:1020E0000FEF1FEF0E9492170F900F900F900F901D
:1020F000CF91DF911F910F910895DF93CF93CDB7CB
:10210000DEB760970FB6F894DEBF0FBECDBF18865E
:102110001F828AE090E09E838D838AE090E09C831A
:102120008B838AE090E09A8389838D819E8190934E
:102130002202809321028B819C81909320028093C4
:102140001F02CE01099629813A81B9010E943210FD
:1021500018861F8218C020911F02309120028981A9
:102160009A81820F931F9093200280931F02CE01C9
:10217000099629813A81B9010E9432108F81988590
:10218000019698878F838F819885823091051CF303
:1021900020911F023091200289819A81A901481B58
:1021A000590BCA019093200280931F0281E090E0B6
:1021B00098878F8318C02091210230912202898153
:1021C0009A81820F931F9093220280932102CE0165
:1021D000099629813A81B9010E9432108F81988530
:1021E000019698878F838F819885853091051CF3A0
:1021F0002D813E8189819A81A901481B590BCA0111
:10220000909322028093210240911F02509120025C
:1022100029813A81C901880F991F820F931F840F6A
:10222000951F9093200280931F0218861F8218C06A
:10223000209121023091220289819A81820F931F7D
:102240009093220280932102CE01099629813A813E
:10225000B9010E9432108F819885019698878F83EB
:102260008F819885853091051CF318861F8218C0D0
:1022700020911F023091200289819A81820F931F41
:102280009093200280931F02CE01099629813A8102
:10229000B9010E9432108F819885019698878F83AB
:1022A0008F819885823091051CF320912102309115
:1022B000220289819A81880F991F909581959F4F5D
:1022C000820F931F909322028093210220911F027C
:1022D0003091200289819A81A901481B590BCA01BA
:1022E0009093200280931F02CE01099629813A81A2
:1022F000B9010E943210209121023091220289817D
:102300009A81880F991F909581959F4F820F931FF7
:102310009093220280932102CE01099629813A816D
:10232000B9010E94321018861F8218C020911F0226
:102330003091200289819A81820F931F909320020D
:1023400080931F02CE01099629813A81B9010E942A
:1023500032108F819885019698878F838F81988519
:10236000181619061CF78D819E8190932202809386
:10237000210220911F023091200289819A81880FC9
:10238000991F820F931F9093200280931F0218863B
:102390001F8218C0209121023091220289819A81E6
:1023A000820F931F9093220280932102CE010996FF
:1023B00029813A81B9010E9432108F819885019656
:1023C00098878F838F819885843091051CF38D8148
:1023D0009E81909322028093210218861F8218C04A
:1023E00020911F023091200289819A81820F931FD0
:1023F0009093200280931F02CE01099629813A8191
:10240000B9010E9432108F819885019698878F8339
:102410008F819885823091051CF3209121023091A3
:10242000220289819A81880F991F820F931F9093AE
:1024300022028093210220911F0230912002898183
:102440009A81820F931F9093200280931F02188617
:102450001F821AC020911F023091200289819A8127
:10246000A901481B590BCA019093200280931F02B7
:10247000CE01099629813A81B9010E9432108F81DB
:102480009885019698878F838F81988582309105F2
:102490000CF38D819E8190932202809321022091E2
:1024A0001F023091200289819A81880F991F820F23
:1024B000931F9093200280931F0218861F8218C0DA
:1024C000209121023091220289819A81820F931FEB
:1024D0009093220280932102CE01099629813A81AC
:1024E000B9010E9432108F819885019698878F8359
:1024F0008F819885843091051CF32D813E818981DF
:102500009A81A901481B590BCA019093220280931A
:10251000210220911F023091200289819A81880F27
:10252000991F820F931F9093200280931F02188699
:102530001F8218C0209121023091220289819A8144
:10254000820F931F9093220280932102CE0109965D
:1025500029813A81B9010E9432108F8198850196B4
:1025600098878F838F819885853091051CF34091E2
:1025700021025091220229813A81C901880F991FB5
:10258000820F931F909581959F4F840F951F909375
:1025900022028093210220911F0230912002898122
:1025A0009A81820F931F9093200280931F02CE0185
:1025B000099629813A81B9010E94321020912102A5
:1025C0003091220289819A81820F931F9093220277
:1025D0008093210220911F023091200289819A81EB
:1025E000820F931F9093200280931F02CE010996C1
:1025F00029813A81B9010E94321020912102309143
:10260000220289819A81A901481B590BCA01909322
:1026100022028093210220911F02309120028981A1
:102620009A81820F931F9093200280931F02CE0104
:10263000099629813A81B9010E9432102D813E818B
:1026400089819A81A901481B590BCA0190932202E2
:102650008093210220911F023091200289819A816A
:10266000820F931F9093200280931F0218861F826F
:1026700018C0209121023091220289819A81820F13
:10268000931F9093220280932102CE010996298103
:102690003A81B9010E9432108F81988501969887FE
:1026A0008F838F819885853091051CF32D813E8124
:1026B00089819A81A901481B590BCA019093220272
:1026C0008093210220911F023091200289819A81FA
:1026D000880F991F820F931F9093200280931F02EF
:1026E00018861F8218C02091210230912202898110
:1026F0009A81820F931F9093220280932102CE0130
:10270000099629813A81B9010E9432108F819885FA
:10271000019698878F838F819885853091051CF36A
:1027200018861F8218C020911F02309120028981D3
:102730009A81820F931F9093200280931F02CE01F3
:10274000099629813A81B9010E9432108F819885BA
:10275000019698878F838F819885823091051CF32D
:10276000209121023091220289819A81880F991F3C
:10277000909581959F4F820F931F90932202809393
:10278000210220911F023091200289819A81820FBB
:10279000931F9093200280931F0218861F821AC0F5
:1027A00020911F023091200289819A81A901481B42
:1027B000590BCA019093200280931F02CE01099603
:1027C00029813A81B9010E9432108F819885019642
:1027D00098878F838F819885823091050CF32091A3
:1027E00021023091220289819A81880F991F909548
:1027F00081959F4F820F931F909322028093210215
:1028000020911F023091200289819A81A901481BE1
:10281000590BCA019093200280931F0218861F82D1
:1028200018C020911F023091200289819A81820F65
:10283000931F9093200280931F02CE010996298155
:102840003A81B9010E9432108F819885019698874C
:102850008F838F819885823091051CF320911F0210
:102860003091200289819A81820F931F90932002D8
:1028700080931F02209121023091220289819A8146
:10288000A901481B590BCA0190932202809321028F
:1028900018861F821AC0209121023091220289815C
:1028A0009A81880F991F820F931F90932202809321
:1028B0002102CE01099629813A81B9010E94321084
:1028C0008F819885019698878F838F819885823034
:1028D00091050CF360960FB6F894DEBF0FBECDBF26
:1028E000CF91DF9108950F931F93DF93CF93CDB7CF
:1028F000DEB72E970FB6F894DEBF0FBECDBF988718
:102900008F8349875A876B877C873E872D878FEF18
:102910009FEF9E838D8380E090E0A0E0B0E089830C
:102920009A83AB83BC838D859E859093220280938E
:102930002102EF81F88520813181428153816481B8
:1029400075818681978100E010E00E949217698569
:102950007A858B859C8523E333E343E550E40E942D
:10296000822BDC01CB01BC01CD0120E030E04AE04C
:1029700053E40E94882ADC01CB0189839A83AB83CC
:10298000BC8369817A818B819C8120E030E040E4C6
:1029900051E40E945B2ADC01CB01BC01CD010E9405
:1029A000F11ADC01CB01EF81F885938382838D8559
:1029B0009E85EF81F885958384838D859E8501961C
:1029C000EF81F8859783868369817A818B819C81E9
:1029D00020E030E044E552E40E948E2C88232CF461
:1029E00080E098EF9E838D8304C080EE97E09E8305
:1029F0008D8380912102909122024496909322022D
:102A000080932102AD81BE81EF81F88520813181E3
:102A10004281538164817581868197818D010E94F5
:102A200092172E960FB6F894DEBF0FBECDBFCF9192
:102A3000DF911F910F910895DF93CF93CDB7DEB74C
:102A400080911C0190911D01A0911E01B0911F0168
:102A500020ED37E040E050E0BC01CD010E948D3018
:102A6000DA01C90125E630E040E050E0BC01CD01CB
:102A70000E948D30DC01CB019093210180932001D5
:102A8000CF91DF910895AF92BF92CF92DF92EF92F4
:102A9000FF920F931F93DF93CF93CDB7DEB7A3972A
:102AA0000FB6F894DEBF0FBECDBF9A8B898B4B8BD0
:102AB0005C8B6D8B7E8B8AE090E09A8789876B892F
:102AC0007C898D899E8920E030E04AE053E40E94B1
:102AD000882ADC01CB01BC01CD0120E030E040E4DC
:102AE00051E40E945B2ADC01CB01BC01CD010E94B4
:102AF000F11ADC01CB019C878B8789899A899E8793
:102B00008D8789899A890196988B8F878091210278
:102B10009091220244969093220280932102CE014A
:102B20000196988F8F8BFE013996FA8FE98FF8E026
:102B3000FB8FE98DFA8D0080898D9A8D01969A8F91
:102B4000898FEF89F88D00828F89988D0196988FF3
:102B50008F8B9B8D91509B8FEB8DEE2351F770E007
:102B6000798180E08A8190E09B8120E02C8130E0B7
:102B70003D8140E04E8150E05F8160E068857C8F60
:102B80008D8F9E8F2F8F38A349A35AA36BA3AC8C34
:102B9000BD8CCE8CDF8CE8A0F9A00AA11BA12A2D48
:102BA0003B2D4C2D5D2D6E2D7F2D802F912FA396CB
:102BB0000FB6F894DEBF0FBECDBFCF91DF911F914E
:102BC0000F91FF90EF90DF90CF90BF90AF9008955E
:102BD0000F931F93DF93CF93CDB7DEB728970FB630
:102BE000F894DEBF0FBECDBF84E690E09E838D8358
:102BF0008D819E81019698878F8385E090E09A83EE
:102C000089838BE391E09C838B8329813A814B817B
:102C10005C816D817E818F81988504E115EA0E9437
:102C2000921789EE90E09E838D838D819E8102961E
:102C300098878F8385E090E09A8389838BE391E086
:102C40009C838B8329813A814B815C816D817E815C
:102C50008F81988504E115EA0E94921784E690E03E
:102C60009E838D838BEE90E098878F8388EA90E037
:102C70009A83898389819A8102969C838B83298197
:102C80003A814B815C816D817E818F81988504E1E1
:102C900015EA0E94921784E690E09E838D838BEE66
:102CA00090E098878F8385E090E09A83898389817B
:102CB0009A8102969C838B8329813A814B815C8126
:102CC0006D817E818F81988504E115EA0E949217BB
:102CD00084E690E09E838D838BEE90E098878F83CF
:102CE00089E391E09A83898389819A8102969C8302
:102CF0008B8329813A814B815C816D817E818F81BB
:102D0000988504E115EA0E94921728960FB6F89468
:102D1000DEBF0FBECDBFCF91DF911F910F91089500
:102D20000F931F93DF93CF93CDB7DEB764970FB6A2
:102D3000F894DEBF0FBECDBF209182033091830394
:102D400040918403509185036091860370918703BD
:102D50008091880390918903DA01C9018C509E4FBC
:102D6000AF4FBF4F89839A83AB83BC8389819A819C
:102D7000AB81BC818C019D0140E050E060E070E0DF
:102D80000D871E872F87388B498B5A8B6B8B7C8BDB
:102D9000109182031D83209183032E83309184033D
:102DA0003F834091850348875091860359876091FE
:102DB00087036A87709188037B87809189038C875A
:102DC0009D850D81901791F61E852E81121771F643
:102DD0003F854F81341751F658896885561731F66B
:102DE00079898985781711F69A890A85901709F0EB
:102DF000BDCF1B892B85121709F0B8CF3C894C85B4
:102E0000341709F0B3CF64960FB6F894DEBF0FBE47
:102E1000CDBFCF91DF911F910F9108959C019093A9
:102E20001E0280931D022C9886E388B92B982B9A5A
:102E30002C9A2115310571F480EF90E090931A02DD
:102E40008093190280E491E090931C0280931B020E
:102E500088E432C02130310571F480E491E0909330
:102E60001A028093190280EF90E090931C028093E5
:102E70001B0288EE21C02230310571F480EF90E012
:102E800090931A028093190280E491E090931C02BF
:102E900080931B0288E810C02330310581F480E460
:102EA00091E090931A028093190280EF90E0909342
:102EB0001C0280931B0288E288B92B982B9A2C98CD
:102EC0008AE288B92B982B9A2C9A18B82B982B9AAF
:102ED00018B82B982B9A8091190290911A02019799
:102EE00098B901962B982B9A815088B92B982B9AD8
:102EF0002C988BE288B92B982B9A2C9A18B82B987F
:102F00002B9A18B82B982B9A80911B0290911C0237
:102F1000019798B901962B982B9A815088B92B98D4
:102F20002B9A0895EF92FF920F931F93DF93CF9305
:102F3000CDB7DEB728970FB6F894DEBF0FBECDBF72
:102F4000F22F2983E32F3A834B835C83362F6D83E3
:102F5000272F7E838F8398877801AB81BC81062FD2
:102F6000172F6F8178852C988AE288B92B982B9A35
:102F70002C9AE8B92B982B9AF8B92B982B9AB8B9B8
:102F80002B982B9AA8B92B982B9A2C988BE288B95E
:102F90002B982B9A2C9A28B92B982B9A38B92B98C6
:102FA0002B9A78B92B982B9A68B92B982B9A2C9836
:102FB0008CE288B92B982B9A2C9A2F2F3E2FC9017F
:102FC000AC010DC0F8B82B982B9AE8B82B982B9A27
:102FD0002F5F3F4F62177307A8F74F5F5F4FA4172C
:102FE000B50710F09801F6CF28960FB6F894DEBF1B
:102FF0000FBECDBFCF91DF911F910F91FF90EF904A
:103000000895EF92FF920F931F93DF93CF93CDB765
:10301000DEB728970FB6F894DEBF0FBECDBFF22FF4
:103020002983E32F3A834B835C83362F6D83272FCD
:103030007E838F839887D8010B811C81E62EF72E23
:103040006F8178852C988AE288B92B982B9A2C9AD4
:10305000E8B92B982B9AF8B92B982B9A18B92B987A
:103060002B9A08B92B982B9A2C988BE288B92B981D
:103070002B9A2C9A28B92B982B9A38B92B982B9AE3
:1030800078B92B982B9A68B92B982B9A2C988CE2AC
:1030900088B92B982B9A2C9A2F2F3E2FC901AC015F
:1030A00014C011968C91119788B92B982B9A12966F
:1030B0008C91129788B914962B982B9A2F5F3F4FBB
:1030C0006217730770F74F5F5F4F0417150710F013
:1030D0009701F6CF28960FB6F894DEBF0FBECDBF8E
:1030E000CF91DF911F910F91FF90EF9008950F9373
:1030F0001F93DF93CF93CDB7DEB728970FB6F89421
:10310000DEBF0FBECDBF1092200210921F021092A0
:103110002202109221022091190230911A022150AC
:10312000304080911B0290911C0201971A821982F3
:10313000422F3C832B831E821D8298878F830091B0
:1031400025021091260229813A815C816D817E8160
:1031500098850E94921728960FB6F894DEBF0FBE8E
:10316000CDBFCF91DF911F910F9108956F927F9204
:103170008F929F92AF92BF92CF92DF92EF92FF9287
:103180000F931F93CF93DF93982F00911F021091FD
:10319000200224E0E22EF12CE00EF11E60902102CC
:1031A0007090220280528F3508F09FC0E30127966D
:1031B00085E0989F90011124245230402C988BE296
:1031C00088B92B982B9A2C9A78B82B982B9A68B898
:1031D0002B982B9AD8B92B982B9AC8B92B982B9A45
:1031E000C0902302D0902402A0902502B090260225
:1031F000A8019AE2892E8CE2982E36C02C9888B8C5
:103200002B982B9A2C9A58B92B982B9A48B92B9813
:103210002B9A58B92B982B9A48B92B982B9A2C9803
:1032200098B82B982B9A2C9AF901B491B30191E09C
:1032300014C0A92FAB2311F48B2D01C08D2D88B99B
:103240002B982B9AAA2311F48A2D01C08C2D88B9B2
:103250002B982B9A6F5F7F4F990FC617D70748F7A8
:103260002F5F3F4F4F5F5F4FE416F50638F62C98FF
:103270008AE288B92B982B9A2C9A58B92B982B9ABA
:1032800048B92B982B9A58B92B982B9A48B92B9858
:103290002B9A2C988CE288B92B982B9A2C9AC301E4
:1032A00007C0B8B82B982B9AA8B82B982B9A0196E0
:1032B000C817D907B0F798012A5F3F4F3093200213
:1032C00020931F028091190290911A022817390742
:1032D00060F01092200210921F0288E090E0680EC9
:1032E000791E7092220260922102DF91CF911F918C
:1032F0000F91FF90EF90DF90CF90BF90AF909F9095
:103300008F907F906F9008951F93CF93DF93EC0180
:1033100010E003C00E94B6181F5FFE01E10FF11D0F
:1033200080818823B9F7DF91CF911F91089585B7E8
:10333000806885BF85B7806885BF8FE784B98FEFC8
:1033400087B90E94A41908952A9888EE93E02CE288
:1033500031E0F9013197F1F70197D9F72A9A88EE10
:1033600093E02CE231E0F9013197F1F70197D9F7B9
:103370002C9A2B9A2D9A289829982E9A2C9888E284
:1033800088B92B982B9A2C9A2C9881E188B92B9884
:103390002B9A2C9A88E592E02CE231E0F9013197E2
:1033A000F1F70197D9F72C988BEC88B92B982B9AC9
:1033B0002C9A81E088B92B982B9A2C9880EC88B9AC
:1033C0002B982B9A2C9A86E288B92B982B9A88E016
:1033D00088B92B982B9A2C9881EC88B92B982B9A2A
:1033E0002C9A80E188B92B982B9A2C9885EC88B977
:1033F0002B982B9A2C9A85E388B92B982B9A8EE3DD
:1034000088B92B982B9A2C9886E388B92B982B9AFD
:103410002C9A88E488B92B982B9A2C9880EB88B941
:103420002B982B9A2C9A8AE488B92B982B9A2C9853
:1034300081EB88B92B982B9A2C9A18B82B982B9A39
:103440008BE188B92B982B9A2C9886EB88B92B980E
:103450002B9A2C9AE5E5F2E0819188B92B982B9A6A
:1034600042E0E935F407C1F72C9887EC88B92B982E
:103470002B9A2C9A85EB88B92B982B9A2C9886EF4F
:1034800088B92B982B9A2C9AE1E5F2E0819188B9C2
:103490002B982B9A82E0E435F807C1F72C9882EF3D
:1034A00088B92B982B9A2C9A18B82B982B9A2C9871
:1034B00086E288B92B982B9A2C9A81E088B92B98B0
:1034C0002B9A2C988AE388B92B982B9A2C9A85E50D
:1034D00088B92B982B9A2C9880EE88B92B982B9A28
:1034E0002C9AE1E4F2E0819188B92B982B9A42E082
:1034F000E035F407C1F72C9881EE88B92B982B9A08
:103500002C9AE1E3F2E0819188B92B982B9A82E022
:10351000E034F807C1F72C988AE288B92B982B9AE7
:103520002C9AECE2F2E0819188B92B982B9A42E038
:10353000E033F407C1F72C988BE288B92B982B9ACB
:103540002C9AE7E2F2E0819188B92B982B9A82E0DD
:10355000EB32F807C1F72C9884E388B92B982B9AA3
:103560002C9A2C9884EB88B92B982B9A2C9A18B803
:103570002B982B9A2C9887EB88B92B982B9A2C9AFE
:1035800087E088B92B982B9A2C988CE288B92B98D5
:103590002B9A2C9A20E030E010C018B82B982B9A68
:1035A00018B82B982B9A019641E080349407A9F71C
:1035B0002F5F3F4F203F310519F080E090E0EDCFC5
:1035C0002C9889E288B92B982B9A2C9A84EF91E059
:1035D0002CE231E0F9013197F1F70197D9F7299AF7
:1035E0000895EF92FF920F931F937B018C0120E0CF
:1035F00030E040E05FE40E945E2C88238CF0C8013C
:10360000B70120E030E040E05FE40E942A2A0E94F7
:103610004C2D9B01AC01205030404040504806C02A
:10362000C801B7010E944C2D9B01AC01B901CA0130
:103630001F910F91FF90EF900895A2E0B0E0E3E2B8
:10364000FBE10C94CE30122FB32EA42E952E862E95
:10365000372E282E9A83C22ED32EE42EF52EA701C4
:10366000960160E070E080E090E02117A1F43B1546
:1036700091F44A1581F4591571F4681561F47315C4
:1036800051F4821541F4AA819A1729F4C701B601B1
:103690000E94A02DAAC0212F3B2D4A2D592D682D07
:1036A000732D822D9A8100E20E94192EC901DA0140
:1036B0008030E0E09E07E1E0AE07E0E0BE0780F486
:1036C0008F3F9105A105B10531F028F028E030E0E9
:1036D00040E050E016C020E030E040E050E011C093
:1036E0008030F0E09F07F0E0AF07F1E0BF0728F07F
:1036F00028E130E040E050E004C020E130E040E06C
:1037000050E0022E04C0B695A795979587950A9428
:10371000D2F7FC01EE59FD4F808129013A01480E94
:10372000511C611C711C4982212F3B2D4A2D592DA2
:10373000682D732D822D9A81042D0E94192EC901A6
:10374000DA014C015D0180E290E08419950904C022
:10375000CC0CDD1CEE1CFF1C8A95D2F7C114D104E1
:10376000E104F10441F081E090E0A0E0B0E0882ABB
:10377000992AAA2ABB2A90E24916510461047104CD
:1037800059F40F2EF0E0EF2EF0E0FF2EF0E80F2FAF
:10379000FFE41F2FF02D21C0AFE14A165104610450
:1037A000710459F40F2EF0E0EF2EF0E0FF2EF0E060
:1037B0000F2FFFE41F2FF02D10C061E070E080E0BC
:1037C00090E0098004C0660F771F881F991F0A9434
:1037D000D2F70E94EE2C7B018C01C501B4010E943E
:1037E000A02DA80197010E94882A2296E2E10C945C
:1037F000EA30AEE5B0E0EFEFFBE10C94CE30A8E0AC
:103800004E010894811C911CF4016A2E11926A9455
:10381000E9F729833A834B835C836D837E838F83AF
:103820009887CE010996FC011192AA95E9F7A9861D
:10383000BA86CB86DC86ED86FE860F87188B2984B8
:103840003A844B845C84ED84FE840F8518896980FA
:103850007A808B809C806DA67EA68FA698AA6D80AC
:103860007E808F809884E114F1040105110509F030
:10387000B3C3621473048404950408F03DC100E0EE
:10388000201600E0300601E0400600E0500688F413
:103890001FEF211631044104510439F030F048E0A3
:1038A000E42EF12C012D112D18C0EE24FF248701E8
:1038B00014C020E0221620E0320620E0420621E07B
:1038C000520630F038E1E32EF12C012D112D05C008
:1038D00020E1E22EF12C012D112DD201C1010E2C7F
:1038E00004C0B695A795979587950A94D2F78E59F7
:1038F0009D4FDC012C9180E290E0A0E0B0E08E19B9
:103900009F09A00BB10B7C018D01E21AF10801099E
:103910001109E114F10401051105A1F10E2C04C0F7
:10392000220C331C441C551C0A94D2F7A4019301A9
:103930000E2C04C0220F331F441F551F0A94D2F7C8
:1039400080E290E08E199F096DA47EA48FA498A8B0
:1039500004C096948794779467948A95D2F7622AE4
:10396000732A842A952AADA4BEA4CFA4D8A804C0E3
:10397000AA0CBB1CCC1CDD1CEA94D2F7ADA6BEA6DB
:10398000CFA6D8AA6201EE24FF24CDAADEAAEFAA10
:10399000F8AE920181012070307009AF1AAF2BAFE1
:1039A0003CAFC401B301A70196010E948D307B0199
:1039B0008C01C401B3012DA93EA94FA958AD0E94A5
:1039C0008D30C901DA013C014D01C401B30129ADBB
:1039D0003AAD4BAD5CAD0E94AF309B01AC018701AD
:1039E000FF24EE24ADA4BEA4CFA4D8A8C601AA2764
:1039F000BB2757016801A82AB92ACA2ADB2AA216BE
:103A0000B306C406D506E0F408946108710881087D
:103A10009108A20CB31CC41CD51CA214B304C4048A
:103A2000D50470F0A216B306C406D50648F408946F
:103A30006108710881089108A20CB31CC41CD51C34
:103A4000A21AB30AC40AD50AC601B5012DA93EA916
:103A50004FA958AD0E948D307B018C01C601B50184
:103A60002DA93EA94FA958AD0E948D30C901DA0198
:103A70005C016D01C601B50129AD3AAD4BAD5CAD40
:103A80000E94AF309B01AC018701FF24EE248DA57D
:103A90009EA5AFA5B8A9A070B070E82AF92A0A2B94
:103AA0001B2BE216F30604071507C0F40894A108BF
:103AB000B108C108D108E20CF31C041D151DE21465
:103AC000F3040405150550F0E216F3060407150784
:103AD00028F40894A108B108C108D108D301992796
:103AE000882786017501E82AF92A0A2B1B2BE9AAE7
:103AF000FAAA0BAB1CABCFC421143104410451040E
:103B000071F461E070E080E090E020E030E040E0BF
:103B100050E00E948D30C901DA011C012D0100E046
:103B2000201600E0300601E0400600E0500688F470
:103B30001FEF211631044104510431F028F048E010
:103B400050E060E070E017C040E050E060E070E0FE
:103B500012C020E0221620E0320620E0420621E0DA
:103B6000520628F048E150E060E070E004C040E117
:103B700050E060E070E0D201C101042E04C0B695AF
:103B8000A795979587950A94D2F78E599D4FDC019A
:103B90002C91E0E2EE2EF12C012D112DD801C70160
:103BA000841B950BA60BB70B821B9109A109B109C8
:103BB0000097A105B10561F464015301A218B3088F
:103BC000C408D50831E0632E712C812C912C1EC1C4
:103BD0006F968FAF6F97082E04C0220C331C441CC5
:103BE000551C0A94D2F7EE2DE81B640153010E2EEA
:103BF00004C0D694C794B794A7940A94D2F7A401AA
:103C000093016F960FAC6F9704C0220F331F441FB0
:103C1000551F0A94D2F76DA47EA48FA498A80E2EE7
:103C200004C096948794779467940A94D2F7840199
:103C30007301E22AF32A042B152BE9A6FAA60BA797
:103C40001CA73201882499249201810120703070D0
:103C500021960CAF1DAF2EAF3FAF2197C601B50126
:103C6000A40193010E948D307B018C01C601B50136
:103C7000A40193010E948D30C901DA0125968CAF11
:103C80009DAFAEAFBFAF2597BC01CD0121962CAD46
:103C90003DAD4EAD5FAD21970E94AF309B01AC01B1
:103CA0008701FF24EE24A9A4BAA4CBA4DCA4C601F6
:103CB000AA27BB275C016D01AE28BF28C02AD12AE4
:103CC000A216B306C406D50660F525966CAD7DAD8B
:103CD0008EAD9FAD259761507040804090402596F5
:103CE0006CAF7DAF8EAF9FAF2597A20CB31CC41CE9
:103CF000D51CA214B304C404D50498F0A216B306CC
:103D0000C406D50670F461507040804090402596FE
:103D10006CAF7DAF8EAF9FAF2597A20CB31CC41CB8
:103D2000D51CA21AB30AC40AD50AC601B501A4015A
:103D300093010E948D307B018C01C601B501A40165
:103D400093010E948D30C901DA013C014D01C4018B
:103D5000B30121962CAD3DAD4EAD5FAD21970E94D4
:103D6000AF309B01AC018701FF24EE2489A59AA501
:103D7000ABA5BCA5A070B07057016801A82AB92AEC
:103D8000CA2ADB2AA216B306C406D506E0F40894B4
:103D90006108710881089108A20CB31CC41CD51CD1
:103DA000A214B304C404D50470F0A216B306C4066A
:103DB000D50648F408946108710881089108A20C9E
:103DC000B31CC41CD51C8DA59EA5AFA5B8A96F9624
:103DD0000FAC6F9704C0880F991FAA1FBB1F0A94CE
:103DE000D2F78DA79EA7AFA7B8ABA21AB30AC40A91
:103DF000D50A2596ECACFDAC0EAD1FAD2597D701CD
:103E000099278827682A792A8A2A9B2A82012227C9
:103E1000332729960CAF1DAF2EAF3FAF2997A201D4
:103E20009101407050702D962CAF3DAF4EAF5FAFFB
:103E30002D97C601B50129962CAD3DAD4EAD5FADB8
:103E400029970E948D307B018C01C601B50129960E
:103E50002CAD3DAD4EAD5FAD29970E948D30C901AF
:103E6000DA0161968CAF9DAFAEAFBFAF6197BC0179
:103E7000CD012D962CAD3DAD4EAD5FAD2D970E9481
:103E8000AF309B01AC018701FF24EE24ADA4BEA49A
:103E9000CFA4D8A8C601AA27BB2757016801A82A22
:103EA000B92ACA2ADB2AA216B306C406D50660F5CB
:103EB00061966CAD7DAD8EAD9FAD619761507040E8
:103EC0008040904061966CAF7DAF8EAF9FAF6197A1
:103ED000A20CB31CC41CD51CA214B304C404D50486
:103EE00098F0A216B306C406D50670F4615070406F
:103EF0008040904061966CAF7DAF8EAF9FAF619771
:103F0000A20CB31CC41CD51CA21AB30AC40AD50A3D
:103F1000C601B50129962CAD3DAD4EAD5FAD2997DB
:103F20000E948D307B018C01C601B50129962CAD14
:103F30003DAD4EAD5FAD29970E948D30C901DA01CC
:103F40005C016D01C601B5012D962CAD3DAD4EADA8
:103F50005FAD2D970E94AF309B01AC018701FF241C
:103F6000EE248DA59EA5AFA5B8A9A070B070E82AD3
:103F7000F92A0A2B1B2BE216F30604071507C0F4D7
:103F80000894A108B108C108D108E20CF31C041D73
:103F9000151DE214F3040405150550F0E216F306AE
:103FA0000407150728F40894A108B108C108D1082E
:103FB0006196ECACFDAC0EAD1FAD6197D7019927B2
:103FC000882796018501082B192B2A2B3B2B09AB3F
:103FD0001AAB2BAB3CAB62C26E147F048006910619
:103FE00008F451C220E0E21620E0F20621E00207C8
:103FF00020E0120788F43FEFE316F10401051105F4
:1040000031F028F048E050E060E070E017C040E098
:1040100050E060E070E012C040E0E41640E0F406DA
:1040200040E0040741E0140728F048E150E060E078
:1040300070E004C040E150E060E070E0D801C701EA
:10404000042E04C0B695A795979587950A94D2F744
:104050008E599D4FDC012C9130E2A32EB12CC12C46
:10406000D12CD601C501841B950BA60BB70B821B67
:104070009109A109B1090097A105B10589F4E614D8
:10408000F7040805190508F4F2C16DA47EA48FA4F5
:1040900098A8621473048404950408F0E8C1F3C17D
:1040A0006E968FAF6E97082E04C0EE0CFF1C001F9B
:1040B000111F0A94D2F76A2D681BD201C101062E86
:1040C00004C0B695A795979587950A94D2F75C0199
:1040D0006D01AE28BF28C02AD12AADA2BEA2CFA2B0
:1040E000D8A6720161016E960FAC6E9704C0CC0C1D
:1040F000DD1CEE1CFF1C0A94D2F7C9A2DAA2EBA2C7
:10410000FCA264015301062E04C0D694C794B79450
:10411000A7940A94D2F7D401C3016E960FAC6E97A0
:1041200004C0880F991FAA1FBB1F0A94D2F7EDA4E1
:10413000FEA40FA518A904C016950795F794E79457
:104140006A95D2F737014801682A792A8A2A9B2A78
:104150006D8E7E8E8F8E98A2EDA0FEA00FA118A569
:104160003801882499249801870120703070659661
:104170000CAF1DAF2EAF3FAF6597C601B501A401CF
:1041800093010E948D307B018C01C601B501A40111
:1041900093010E948D30C901DA011C012D01C20179
:1041A000B10165962CAD3DAD4EAD5FAD65970E94FA
:1041B000AF309B01AC018701FF24EE24AD8CBE8C97
:1041C000CF8CD8A0C601AA27BB2757016801A82A0F
:1041D000B92ACA2ADB2AA216B306C406D50600F5F8
:1041E00008942108310841085108EDA0FEA00FA154
:1041F00018A5AE0CBF1CC01ED11EAE14BF04C00655
:10420000D10670F0A216B306C406D50648F4089489
:104210002108310841085108AE0CBF1CC01ED11E38
:10422000A21AB30AC40AD50AC601B501A4019301B2
:104230000E948D307B018C01C601B501A401930160
:104240000E948D30C901DA013C014D01C401B30166
:1042500065962CAD3DAD4EAD5FAD65970E94AF301C
:104260009B01AC018701FF24EE248D8D9E8DAF8DC7
:10427000B8A1A070B07057016801A82AB92ACA2A4B
:10428000DB2AA216B306C406D50600F50894610819
:104290007108810891086DA17EA18FA198A5A60E35
:1042A000B71EC81ED91EA616B706C806D90670F0D6
:1042B000A216B306C406D50648F40894610871082E
:1042C00081089108A60EB71EC81ED91ED601C501C9
:1042D000821B930BA40BB50B898F9A8FAB8FBC8F6E
:1042E000D1019927882764015301A82AB92ACA2A2B
:1042F000DB2AA9AABAAACBAADCAA860175012FEFEC
:104300003FEF40E050E0E222F32204231523A60110
:10431000662777276D964CAF5DAF6EAF7FAF6D9719
:10432000A9A0BAA0CBA0DCA06FEF7FEF80E090E067
:10433000A622B722C822D92289A19AA1ABA1BCA1E9
:104340001D0144245524C801B701A60195010E940E
:10435000AF3069966CAF7DAF8EAF9FAF6997C801E4
:10436000B701A20191010E94AF303B014C016D9653
:104370006CAD7DAD8EAD9FAD6D97A60195010E9490
:10438000AF307B018C016D966CAD7DAD8EAD9FAD78
:104390006D97A20191010E94AF305B016C01A801F1
:1043A0009701260D371D481D591D69966CAC7DACD3
:1043B0008EAC9FAC6997C401AA27BB27280F391F71
:1043C0004A1F5B1F2E153F054007510748F4E12C9B
:1043D000F12C61E0062F112DAE0CBF1CC01ED11EAA
:1043E000CA01AA27BB27BC01CD016A0D7B1D8C1D0C
:1043F0009D1D698C7A8C8B8C9C8C66167706880642
:10440000990640F1661577058805990509F043C0BE
:10441000D9019927882769962CAD3DAD4EAD5FAD8A
:10442000699740705070820F931FA41FB51F2DA570
:104430003EA54FA558A96E960FAC6E9704C0220FEB
:10444000331F441F551F0A94D2F7281739074A070C
:104450005B0708F509A91AA92BA93CA9015010402E
:104460002040304009AB1AAB2BAB3CAB14C06624E8
:104470007724430121E030E040E050E029AB3AAB43
:104480004BAB5CAB0BC066247724430119AA1AAA74
:104490001BAA1CAA03C0662477244301FE0171965F
:1044A00088E0DF011D928A95E9F7A9A8BAA8CBA8F0
:1044B000DCA8A98ABA8ACB8ADC8A6D8A7E8A8F8A2E
:1044C000988E29A93A894B895C89662D7E898F89C6
:1044D000988DC25ADF4FE2E10C94EA30ABE5B0E0D0
:1044E000E4E7F2E20C94CE30A8E04E010894811C7F
:1044F000911CF4016A2E11926A94E9F729833A8398
:104500004B835C836D837E838F839887CE0109966E
:10451000FC011192AA95E9F7A986BA86CB86DC86BA
:10452000ED86FE860F87188B29843A844B845C8441
:10453000AD84BE84CF84D88829813A814B815C8147
:1045400069962FAF69976A963FAF6A976B964FAFA0
:104550006B976C965FAF6C976C966CAC7DAC8EACC9
:104560009FAC6C9769AA7AAA8BAA9CAA6D817E815E
:104570008F8198853B014C016DAA7EAA8FAA98AEC7
:10458000A114B104C104D10409F004C3621473047A
:104590008404950408F000C100E0201600E0300615
:1045A00001E0400600E0500688F41FEF21163104B8
:1045B0004104510439F030F088E0E82EF12C012D4F
:1045C000112D18C0EE24FF24870114C040E02416EA
:1045D00040E0340640E0440641E0540630F0B8E1E3
:1045E000EB2EF12C012D112D05C0A0E1EA2EF12CAE
:1045F000012D112DD201C1010E2C04C0B695A79535
:10460000979587950A94D2F78E599D4FDC012C918E
:1046100080E290E0A0E0B0E08E199F09A00BB10B02
:104620005C016D01A21AB108C108D108A9AEBAAEE9
:10463000CBAEDCAEA114B104C104D10409F43FC077
:1046400069AD062E04C0220C331C441C551C0A9470
:10465000D2F7A4019301062E04C0220F331F441F7A
:10466000551F0A94D2F780E290E08A199B096C9654
:10467000CCACDDACEEACFFAC6C9704C0F694E79428
:10468000D794C7948A95D2F787017601E22AF32A54
:10469000042B152BEDAAFEAA0FAB18AF6C968CADB0
:1046A0009DADAEADBFAD6C9704C0880F991FAA1F1A
:1046B000BB1F6A95D2F789AB9AABABABBCAB3201EF
:1046C00088249924B201A1016070707021964CAFCA
:1046D0005DAF6EAF7FAF21976DA97EA98FA998AD11
:1046E000A40193010E948D307B018C016DA97EA9EC
:1046F0008FA998ADA40193010E948D30CA01B90120
:1047000021962CAD3DAD4EAD5FAD21970E94AF30EF
:104710009B01AC018701FF24EE24A9A8BAA8CBA86D
:10472000DCA8C601AA27BB2757016801A82AB92A15
:10473000CA2ADB2AA216B306C406D50690F4A20C38
:10474000B31CC41CD51CA214B304C404D50448F083
:10475000A216B306C406D50620F4A20CB31CC41CD2
:10476000D51CA21AB30AC40AD50AC601B501A40110
:1047700093010E948D307B018C01C601B501A4011B
:1047800093010E948D30CA01B90121962CAD3DAD37
:104790004EAD5FAD2197BAC12114310441045104DB
:1047A00071F461E070E080E090E020E030E040E013
:1047B00050E00E948D30C901DA011C012D0100E09A
:1047C000201600E0300601E0400600E0500688F4C4
:1047D0001FEF211631044104510439F030F068E034
:1047E000E62EF12C012D112D18C0EE24FF24870197
:1047F00014C040E0241640E0340640E0440641E0A6
:10480000540630F058E1E52EF12C012D112D05C094
:1048100040E1E42EF12C012D112DD201C1010E2C0D
:1048200004C0B695A795979587950A94D2F78E59A7
:104830009D4FDC012C9130E2A32EB12CC12CD12C48
:10484000D601C5018E199F09A00BB10B7C018D010A
:10485000E21AF10801091109E9AEFAAE0BAF1CAF7B
:10486000E114F1040105110539F464015301A218A2
:10487000B308C408D508E2C0F9AC6896FFAE6897E3
:104880000F2C04C0220C331C441C551C0A94D2F774
:104890008A2D8F1964015301082E04C0D694C79441
:1048A000B794A7940A94D2F7A401930104C0220FED
:1048B000331F441F551FFA94D2F76C966CAC7DAC35
:1048C0008EAC9FAC6C9704C0969487947794679451
:1048D0008A95D2F784017301E22AF32A042B152B5F
:1048E000EDA6FEA60FA718AB320188249924B201C9
:1048F000A1016070707025964CAF5DAF6EAF7FAF59
:104900002597C601B501A40193010E948D307B015A
:104910008C01C601B501A40193010E948D30CA012A
:10492000B90125962CAD3DAD4EAD5FAD25970E94EA
:10493000AF309B01AC018701FF24EE24ADA4BEA4DF
:10494000CFA4D8A8C601AA27BB275C016D01AE2859
:10495000BF28C02AD12AA216B306C406D50690F4F1
:10496000A20CB31CC41CD51CA214B304C404D504EB
:1049700048F0A216B306C406D50620F4A20CB31C58
:10498000C41CD51CA21AB30AC40AD50AC601B501B3
:10499000A40193010E948D307B018C01C601B501F9
:1049A000A40193010E948D30CA01B90125962CAD56
:1049B0003DAD4EAD5FAD25970E94AF309B01AC0180
:1049C0008701FF24EE248DA59EA5AFA5B8A9A070F0
:1049D000B07057016801A82AB92ACA2ADB2AA21690
:1049E000B306C406D50690F4A20CB31CC41CD51C97
:1049F000A214B304C404D50448F0A216B306C40636
:104A0000D50620F4A20CB31CC41CD51C6C96ECACCF
:104A1000FDAC0EAD1FAD6C9768960FAC689704C0E7
:104A2000EE0CFF1C001F111F0A94D2F7E9AAFAAA84
:104A30000BAB1CABA21AB30AC40AD50A32018824F4
:104A40009924B201A1016070707029964CAF5DAFDE
:104A50006EAF7FAF2997C601B501A40193010E94F3
:104A60008D307B018C01C601B501A40193010E9428
:104A70008D30CA01B90129962CAD3DAD4EAD5FAD6B
:104A800029970E94AF309B01AC018701FF24EE24DF
:104A9000A9A8BAA8CBA8DCA8C601AA27BB2757019A
:104AA0006801A82AB92ACA2ADB2AA216B306C406B4
:104AB000D50690F4A20CB31CC41CD51CA214B304DC
:104AC000C404D50448F0A216B306C406D50620F4E3
:104AD000A20CB31CC41CD51CA21AB30AC40AD50A62
:104AE000C601B501A40193010E948D307B018C01A8
:104AF000C601B501A40193010E948D30CA01B9011C
:104B000029962CAD3DAD4EAD5FAD29970E94AF30DB
:104B10009B01AC018701FF24EE2489A99AA9ABA9C6
:104B2000BCA9A070B070E82AF92A0A2B1B2BE21648
:104B3000F3060407150790F4E20CF31C041D151D81
:104B4000E214F3040405150548F0E216F306040721
:104B5000150720F4E20CF31C041D151DE21AF30ADC
:104B6000040B150BD801C70109AC04C0B695A79575
:104B7000979587950A94D2F7898B9A8BAB8BBC8BD0
:104B80001D8A1E8A1F8A188E282F3A894B895C89B4
:104B90006D890CC36A147B048C049D0408F409C35A
:104BA00000E0A01600E0B00601E0C00600E0D0067C
:104BB00088F41FEFA116B104C104D10439F030F01C
:104BC00028E0E22EF12C012D112D18C0EE24FF2437
:104BD000870114C040E0A41640E0B40640E0C406DB
:104BE00041E0D40630F098E1E92EF12C012D112D91
:104BF00005C080E1E82EF12C012D112DD601C50153
:104C00000E2C04C0B695A795979587950A94D2F770
:104C10008E599D4FDC012C9180E290E0A0E0B0E045
:104C20008E199F09A00BB10B821B9109A109B10933
:104C30000097A105B10509F04FC0A614B704C80438
:104C4000D90458F06C96ECACFDAC0EAD1FAD6C9772
:104C5000E214F3040405150568F16C96ECACFDACA8
:104C60000EAD1FAD6C97E218F30804091509A401F5
:104C700093012A193B094C095D09AA24BB2465014B
:104C80006C966CAD7DAD8EAD9FAD6C976E157F054E
:104C90008007910728F4B1E0AB2EB12CC12CD12CA8
:104CA000DA01C9018A199B09AC09BD098DAB9EAB1C
:104CB000AFABB8AFE98AFA8A0B8B1C8B6DA87EA8C4
:104CC0008FA898AC6D8A7E8A8F8A988E2E2D3A890D
:104CD0004B895C896DA96AC267968FAF6797A601F9
:104CE0009501082E04C0220F331F441F551F0A943C
:104CF000D2F7A0E2AA2EA81A6696AFAE6697D201A6
:104D0000C10104C0B695A79597958795AA94D2F747
:104D10006C017D01C22AD32AE42AF52AC9A6DAA6A3
:104D2000EBA6FCA68201710167960FAC679704C0E1
:104D3000EE0CFF1C001F111F0A94D2F7EDA2FEA279
:104D40000FA318A76401530166960FAC669704C0C1
:104D5000D694C794B794A7940A94D2F7A401930168
:104D600067960FAC679704C0220F331F441F551F6F
:104D70000A94D2F76C968CAD9DADAEADBFAD6C977D
:104D800066960FAC669704C0B695A79597958795DC
:104D90000A94D2F73C014D01622A732A842A952A8B
:104DA00069A27AA28BA29CA26C96ECACFDAC0EAD73
:104DB0001FAD6C9767960FAC679704C0EE0CFF1C95
:104DC000001F111F0A94D2F7ED8EFE8E0F8F18A3CD
:104DD00049A55AA56BA57CA53B0188249924607040
:104DE00070702D964CAF5DAF6EAF7FAF2D97C60143
:104DF000B501A40193010E948D307B018C01C60195
:104E0000B501A40193010E948D30C901DA011C0192
:104E10002D01C201B1012D962CAD3DAD4EAD5FAD62
:104E20002D970E94AF309B01AC018701FF24EE2437
:104E3000A9A0BAA0CBA0DCA0C601AA27BB27570116
:104E40006801A82AB92ACA2ADB2AA216B306C40610
:104E5000D50600F508942108310841085108E9A455
:104E6000FAA40BA51CA5AE0CBF1CC01ED11EAE140F
:104E7000BF04C006D10670F0A216B306C406D5065C
:104E800048F408942108310841085108AE0CBF1CB1
:104E9000C01ED11EA21AB30AC40AD50AC601B501A2
:104EA000A40193010E948D307B018C01C601B501E4
:104EB000A40193010E948D30C901DA013C014D012A
:104EC000C401B3012D962CAD3DAD4EAD5FAD2D9718
:104ED0000E94AF309B01AC018701FF24EE2489A121
:104EE0009AA1ABA1BCA1A070B07057016801A82A1B
:104EF000B92ACA2ADB2AA216B306C406D50600F5CB
:104F00000894610871088108910869A57AA58BA5A4
:104F10009CA5A60EB71EC81ED91EA616B706C806A3
:104F2000D90670F0A216B306C406D50648F4089454
:104F30006108710881089108A60EB71EC81ED91E07
:104F4000D601C501821B930BA40BB50B898F9A8FD9
:104F5000AB8FBC8FD1019927882784017301E82A80
:104F6000F92A0A2B1B2B4FEFA42E4FEFB42EC12C86
:104F7000D12CAE20BF20C022D122780100271127DA
:104F80006DA07EA08FA098A44FEF5FEF60E070E06F
:104F900064227522862297228DA19EA1AFA1B8A579
:104FA000BD018827992765966CAF7DAF8EAF9FAF07
:104FB0006597C601B501A40193010E94AF306196C7
:104FC0006CAF7DAF8EAF9FAF6197C601B50165969F
:104FD0002CAD3DAD4EAD5FAD65970E94AF301B016E
:104FE0002C01C801B701A40193010E94AF305B01FD
:104FF0006C01C801B70165962CAD3DAD4EAD5FADFE
:1050000065970E94AF307B018C01A6019501220DAE
:10501000331D441D551D61966CAC7DAC8EAC9FACB0
:105020006197C401AA27BB27280F391F4A1F5B1F9E
:105030002A153B054C055D0548F4812C912CE1E0D7
:10504000AE2EB12CE80CF91C0A1D1B1DCA01AA27A3
:10505000BB2757016801A80EB91ECA1EDB1EA90195
:105060003327222761968CAD9DADAEADBFAD619764
:10507000A070B070280F391F4A1F5B1FE98CFA8C93
:105080000B8D1C8DEA14FB040C051D0570F0AE148D
:10509000BF04C006D10669F56D8D7E8D8F8D98A1F8
:1050A000621773078407950720F5DA01C9016DA01F
:1050B0007EA08FA098A486199709A809B909E9A428
:1050C000FAA40BA51CA5AE18BF08C00AD10AEE248D
:1050D000FF248701281739074A075B0728F421E0D6
:1050E000E22EF12C012D112DAE18BF08C00AD10AF5
:1050F00002C0DA01C9016D8C7E8C8F8C98A0681A71
:10510000790A8A0A9B0A498D5A8D6B8D7C8D4A19C2
:105110005B096C097D095A016B01222433242101AA
:105120006D8D7E8D8F8D98A1661577058805990503
:1051300028F481E0282E312C412C512C8601750158
:10514000E218F30804091509A801970166960FAC47
:10515000669704C0220F331F441F551F0A94D2F7CD
:10516000D401C30167960FAC679704C0B695A795A5
:10517000979587950A94D2F7282B392B4A2B5B2BCE
:10518000298B3A8B4B8B5C8B67960FAC679704C06F
:1051900016950795F794E7940A94D2F7ED8AFE8A5C
:1051A0000F8B188F3A894B895C896E2D7E898F8988
:1051B000988DC55ADF4FE2E10C94EA30A0E0B0E0F0
:1051C000E4EEF8E20C94CE30DC012B01FA019C9164
:1051D000923008F439C1EB018881823008F433C180
:1051E000943069F4843009F02FC111969C91119785
:1051F0008981981709F428C1AAE5B2E025C1843055
:1052000009F421C18230A9F4923009F01DC19A013C
:10521000AD0188E0EA010990AE01E90109929E0121
:105220008150C1F7E201898111969C918923818384
:1052300008C1923009F407C112962D903C90139743
:10524000EB018A819B811496AD90BD90CD90DC904E
:105250001797EC80FD800E811F819101281B390B6F
:10526000B90137FF04C066277727621B730B6032D2
:1052700071050CF061C0121613066CF53701480178
:10528000062E04C096948794779467940A94D2F774
:1052900021E030E040E050E004C0220F331F441F03
:1052A000551F6A95D2F721503040404050402E2182
:1052B0003F2140235123211531054105510521F09E
:1052C00021E030E040E050E079018A01E628F7284B
:1052D000082919293CC0232BD1F1260E371E350190
:1052E0004601062E04C096948794779467940A9496
:1052F000D2F721E030E040E050E004C0220F331F3D
:10530000441F551F6A95D2F721503040404050400D
:105310002A213B214C215D212115310541055105F3
:1053200021F021E030E040E050E059016A01A62878
:10533000B728C828D9280BC0821593052CF01C016A
:10534000AA24BB24650103C0EE24FF248701119623
:105350009C91D20111968C91981709F445C099231C
:1053600039F0A80197012A193B094C095D0906C0CB
:10537000A60195012E193F09400B510B57FD08C09E
:1053800011823382228224833583468357831DC052
:1053900081E081833382228288279927DC01821B66
:1053A000930BA40BB50B84839583A683B7830DC0A1
:1053B000220F331F441F551F248335834683578391
:1053C00082819381019793838283248135814681F1
:1053D0005781DA01C9010197A109B1098F5F9F4F78
:1053E000AF4FBF4328F30BC0918333822282EA0C74
:1053F000FB1C0C1D1D1DE482F5820683178383E0D0
:105400008083248135814681578157FF1AC0C901A5
:10541000AA2797FDA095BA2F81709070A070B070E8
:105420005695479537952795822B932BA42BB52B13
:1054300084839583A683B783828193810196938326
:105440008283DF0101C0D201CD01CDB7DEB7E2E139
:105450000C94EA30A0E2B0E0E0E3FAE20C94DA3037
:1054600069837A838B839C832D833E834F83588704
:10547000E9E0EE2EF12CEC0EFD1ECE010196B701F7
:105480000E94BC2F8E010F5E1F4FCE010596B80102
:105490000E94BC2F8A8991E089278A8BC701B801B5
:1054A000AE01475E5F4F0E94DE280E94E72EA09665
:1054B000E6E00C94F630A0E2B0E0E1E6FAE20C940B
:1054C000DA3069837A838B839C832D833E834F8379
:1054D0005887F9E0EF2EF12CEC0EFD1ECE0101965F
:1054E000B7010E94BC2F8E010F5E1F4FCE010596A3
:1054F000B8010E94BC2FC701B801AE01475E5F4FE3
:105500000E94DE280E94E72EA096E6E00C94F6307A
:10551000A0E2B0E0EEE8FAE20C94CE3069837A8340
:105520008B839C832D833E834F835887CE010196C6
:10553000BE01675F7F4F0E94BC2FCE010596BE0162
:105540006F5E7F4F0E94BC2F9985923088F08989C9
:105550008230C8F0943019F4823051F404C08430A1
:1055600029F4923081F48AE592E0C6C0923049F481
:1055700020E09A858A89981321E02A87CE0109962E
:10558000BBC0823049F420E09A858A89981321E0D3
:105590002A8BCE014196B0C02D843E844F8458881A
:1055A0006D887E888F88988CEE24FF248701AA243A
:1055B000BB24650140E050E060E070E0E0E0F0E036
:1055C000C10181709070892BE9F0E60CF71C081D71
:1055D000191D9A01AB012A0D3B1D4C1D5D1D80E07C
:1055E00090E0A0E0B0E0E614F7040805190520F407
:1055F00081E090E0A0E0B0E0BA01A901480F591F96
:105600006A1F7B1FAA0CBB1CCC1CDD1C97FE08C0AC
:1056100081E090E0A0E0B0E0A82AB92ACA2ADB2AFB
:105620003196E032F10549F0660C771C881C991C14
:105630005694479437942794C3CFFA85EA892B89E7
:105640003C898B859C85280F391F2E5F3F4F17C0E3
:10565000CA0181709070892B61F016950795F794B7
:10566000E79480E090E0A0E0B0E8E82AF92A0A2B6D
:105670001B2B76956795579547952F5F3F4F77FD85
:10568000E7CF0CC0440F551F661F771F17FD416001
:10569000EE0CFF1C001F111F21503040403090E0E5
:1056A000590790E0690790E4790760F32B8F3C8FEE
:1056B000DB01CA018F779070A070B07080349105C3
:1056C000A105B10561F447FD0AC0E114F10401052B
:1056D000110529F0405C5F4F6F4F7F4F40781A8E65
:1056E000FE1711F081E08A8F4D8F5E8F6F8F78A348
:1056F00083E0898FCE0149960E94E72EA096E2E1D1
:105700000C94EA30A8E1B0E0E8E8FBE20C94D63073
:1057100069837A838B839C832D833E834F83588751
:10572000B9E0EB2EF12CEC0EFD1ECE010196B70177
:105730000E94BC2F8E010F5E1F4FCE010596B8014F
:105740000E94BC2F2985223008F47EC0398932306E
:1057500010F4B8017CC08A859A8989278A87243009
:1057600011F0223031F4231709F06EC06AE572E0BF
:105770006EC0343039F41D861E861F86188A1C863A
:105780001B8604C0323021F484E08987B7015FC0F2
:105790002B853C858B899C89281B390B3C872B8763
:1057A000ED84FE840F851889AD88BE88CF88D88C9B
:1057B000EA14FB040C051D0540F4EE0CFF1C001F51
:1057C000111F215030403C872B8720E030E040E023
:1057D00050E080E090E0A0E0B0E460E070E0EA1427
:1057E000FB040C051D0540F0282B392B4A2B5B2BA5
:1057F000EA18FB080C091D09B695A795979587959A
:10580000EE0CFF1C001F111F6F5F7F4F6F31710582
:1058100031F7DA01C9018F779070A070B0708034D1
:105820009105A105B10561F427FD0AC0E114F10459
:105830000105110529F0205C3F4F4F4F5F4F207845
:105840002D873E874F87588BBE01675F7F4FCB0107
:105850000E94E72E6896EAE00C94F230A8E1B0E0EE
:10586000E4E3FCE20C94DA3069837A838B839C83D3
:105870002D833E834F83588789E0E82EF12CEC0E70
:10588000FD1ECE010196B7010E94BC2F8E010F5E56
:105890001F4FCE010596B8010E94BC2F898582302A
:1058A00040F08989823028F0C701B8010E94343065
:1058B00001C08FEF6896E6E00C94F630A8E1B0E006
:1058C000E4E6FCE20C94DA3069837A838B839C8370
:1058D0002D833E834F83588789E0E82EF12CEC0E10
:1058E000FD1ECE010196B7010E94BC2F8E010F5EF6
:1058F0001F4FCE010596B8010E94BC2F89858230CA
:1059000040F08989823028F0C701B8010E94343004
:1059100001C08FEF6896E6E00C94F630A8E1B0E0A5
:10592000E4E9FCE20C94DA3069837A838B839C830C
:105930002D833E834F83588789E0E82EF12CEC0EAF
:10594000FD1ECE010196B7010E94BC2F8E010F5E95
:105950001F4FCE010596B8010E94BC2F8985823069
:1059600040F08989823028F0C701B8010E943430A4
:1059700001C081E06896E6E00C94F630A8E1B0E062
:10598000E4ECFCE20C94DA3069837A838B839C83A9
:105990002D833E834F83588789E0E82EF12CEC0E4F
:1059A000FD1ECE010196B7010E94BC2F8E010F5E35
:1059B0001F4FCE010596B8010E94BC2F8985823009
:1059C00040F08989823028F0C701B8010E94343044
:1059D00001C081E06896E6E00C94F630A8E0B0E003
:1059E000E4EFFCE20C94D7309B01AC0183E08983A7
:1059F000DA01C9018827B7FD83959927AA27BB2714
:105A0000B82E211531054105510519F482E089832D
:105A10003AC08823A9F0203080E0380780E04807AA
:105A200080E8580729F460E070E080E09FEC30C027
:105A3000EE24FF248701E21AF30A040B150B02C0BF
:105A400079018A018EE1C82ED12CDC82CB82ED82D5
:105A5000FE820F831887C801B7010E94982E019714
:105A60001816190684F4082E04C0EE0CFF1C001F43
:105A7000111F0A94D2F7ED82FE820F831887C81A8D
:105A8000D90ADC82CB82BA82CE0101960E94E72E2F
:105A90002896E9E00C94F330ACE0B0E0E2E5FDE2FA
:105AA0000C94DE3069837A838B839C83CE010196CC
:105AB000BE016B5F7F4F0E94BC2F8D81823061F1F0
:105AC000823050F1843021F48E81882351F12EC030
:105AD0002F81388537FD20C06E812F3131051CF0B4
